:020000040800F2
:1000000040D500203503000895420008F53500086A
:10001000B13E0008210C00080D600008000000003F
:100020000000000000000000000000007502000851
:10003000A90F000800000000D10200080D550008BB
:100040004F0300084F0300084F0300084F03000848
:100050004F0300084F0300084F0300084F03000838
:100060004F0300084F0300084F0300084F03000828
:100070004F0300084F0300084F0300084F03000818
:10008000050E0008110E00084F0300084F0300087A
:10009000250C00084F0300084F0300084F03000819
:1000A0004F0300084F0300084F0300084F030008E8
:1000B0004F0300084F0300084F0300084F030008D8
:1000C0004F0300084F0300084F0300084F030008C8
:1000D0004F030008C15E0008D55E00084F0300080A
:1000E0004F0300084F0300084F0300084F030008A8
:1000F0004F0300084F0300084F0300084F03000898
:100100004F0300084F0300084F0300084F03000887
:100110004F0300084F0300084F0300084F03000877
:100120004F0300081D0E0008290E00084F030008A9
:100130004F0300084F0300084F0300084F03000857
:10014000310C00084F0300084F0300084F0300085C
:100150004F030008350E00084F030008695F0008D0
:100160004F0300084F0300084F0300084F03000827
:100170004F0300084F0300084F0300080000000071
:100180004F0300084F030008F95B0008055C0008F6
:100190004F0300084F0300084F0300084F030008F7
:1001A00000000000000000004F03000800F002F80B
:1001B00000F050F80AA090E8000C82448344AAF1B1
:1001C0000107DA4501D100F045F8AFF2090EBAE8AF
:1001D0000F0013F0010F18BFFB1A43F0010318477B
:1001E0004CD600006CD600000A4410F8014B14F005
:1001F0000F0508BF10F8015B240908BF10F8014B78
:100200006D1E05D010F8013B6D1E01F8013BF9D1C0
:10021000641E03D0641E01F8015BFBD19142E4D35C
:10022000704700000023002400250026103A28BF54
:1002300078C1FBD8520728BF30C148BF0B60704758
:100240001FB50BF053FF9DE8030000F061FB1FBDDD
:1002500010B510BD00F0DFFB1146FFF7F1FF08F00D
:1002600053FC00F0FDFB03B4FFF7F2FF03BC06F004
:10027000B7FA00002C4B19680868B0E8F04F80F31B
:100280000988BFF36F8F4FF0000080F3118870472B
:100290000000000008480068006880F308884FF0FC
:1002A000000080F3148862B661B6BFF34F8FBFF3CE
:1002B0006F8F00DF00BF00BF08ED00E0DFF80C002B
:1002C000016841F470010160704700BF88ED00E0F3
:1002D000EFF30980BFF36F8F134B1A681EF0100FF6
:1002E00008BF20ED108A20E9F04F106009B44FF0EC
:1002F000500080F31188BFF34F8FBFF36F8F09F069
:100300004FFE4FF0000080F3118809BC196808689F
:10031000B0E8F04F1EF0100F08BFB0EC108A80F369
:100320000988BFF36F8F704700010020EFF305804D
:10033000704700000948804709480047FEE7FEE78C
:10034000FEE7FEE7FEE7FEE7FEE7FEE7FEE7FEE785
:1003500004480549054A064B70470000B955000896
:10036000AD0100084095002040D5002040B5002098
:1003700040B500209FED1A1AF5EE000A40EE010A82
:10038000BDEEE00AF5EEC00A10EE100AF1EE10FA2A
:1003900038BF401E00EE100A1349F7EE001AB8EEFF
:1003A000C00A30EEC00ADFED0F0A20EE200AFCEE94
:1003B000C00A10EE900AC0F3080000EE900A01EBAC
:1003C0008000F8EE600A90ED011A70EE600A90ED80
:1003D000000A71EEE01A21EE800A00EE810A7047F1
:1003E00083F9223E0000004490CF0008DFED190A97
:1003F000B5EEC00A60EE200ABDEEE01A11EE100A5A
:10040000F1EE10FA38BF401E00EE100A1349F7EE65
:10041000001AB8EEC00A30EEC00ADFED0F0A60EE37
:10042000200ABCEEE00A10EE100AC0F3080000EE4D
:10043000100A01EB8000B8EE400A90ED011A70EE50
:10044000C00A90ED000A71EEE01A21EE800A00EE7B
:10045000810A704783F9223E0000004490CF0008D3
:1004600001804280436070472DE9F04F82B04668BA
:1004700053680193058847884B88002000900888BE
:10048000874201BFB2F800C06545528893421EBF43
:100490006FF0020002B0BDE8F08F9FED412A4FEAF5
:1004A000970EC7F3400B00BFDDE9000202EB800AA4
:1004B0004A6898464FF00009B0EE420AB4465FEA37
:1004C0000E0025D092ED001ADCED001A02EB83023B
:1004D000DCED010A01EE810A92ED001A02EB8302C3
:1004E000401ED2ED001A02EB830200EE810A9CED61
:1004F000021ADCED030A00040CF1100C000C01EEF2
:10050000210A92ED001A02EB830200EE810AD9D192
:1005100017F0030026D0ACF10404A2EB830210F024
:10052000010F08D002EB8302D4ED010A92ED001A0C
:10053000241D00EE810A5FEA0B0013D002EB830C4E
:10054000D4ED010A9CED001A02EBC302401E00EE3E
:10055000810AD4ED020A92ED001A04F1080400EEBB
:10056000810AEBD109F10100AAEC010A1FFA80F916
:10057000486800EB8902A8F101001FFA80F8B8F181
:10058000000F99D1009806EB8706184480B20090BE
:10059000681E05042D0C87D102B00020BDE8F08F45
:1005A00000000000704770B5064600F095F9056838
:1005B00006F10B0020F00704B4429CBF002070BD80
:1005C0002B466A68BAB11068A04210D304F1080142
:1005D00088423CBF5068586007D351681019416089
:1005E0001168091B016058601460101D70BD13462E
:1005F0005268002AE7D12146284600F075F9002804
:10060000DED170BD70B50446051F00F065F90068C5
:10061000002C14BF446870BD002C18BFAC423CBF16
:1006200020466468F8D301680A18AA4218BF4560DA
:1006300003D12A6805461144016028684119A14286
:100640001CBF6C6070BD61686960216808442860E7
:1006500070BD53EA020C00F069802DE9F04B4FF0B9
:100660000006002B1FBFB3FA83F503FA05F424FA42
:1006700005F65E4012BF1643B2FA82F502FA05F49F
:10068000C5F120051EBF22FA05FC44EA0C04203502
:1006900056EA044C4FEA144418BF641C4FF000089B
:1006A0004FF00009904271EB030C39D3002919BFB8
:1006B000B1FA81F701FA07F6B0FA80F700FA07F607
:1006C000C7F120071EBF20FA07FC46EA0C062037B8
:1006D000B6FBF4FCA7EB0507103F07F01F0BCBF1AF
:1006E00020060CFA0BFB2CFA06F644BFB346002694
:1006F000202FA4BF5E464FF0000B5BEA060C08BF3C
:100700004FF0010B19EB0B09ABFB027C48EB060821
:10071000C01B06FB02CC0BFB03CC71EB0C01C1E749
:100720000B46024641464846BDE8F08B13B54FF0F4
:1007300000004FF00001AFF30080BDE81C4070479F
:10074000032A40F2308010F0030C00F0158011F8FD
:10075000013BBCF1020F624498BF11F801CB00F8D5
:10076000013B38BF11F8013BA2F1040298BF00F829
:1007700001CB38BF00F8013B11F0030300F02580E6
:10078000083AC0F0088051F8043B083A51F804CB0D
:10079000A0E80810F5E7121D5CBF51F8043B40F8D3
:1007A000043BAFF30080D20724BF11F8013B11F8DE
:1007B00001CB48BF11F8012B24BF00F8013B00F822
:1007C00001CB48BF00F8012B704710B5203AC0F0AC
:1007D0000B80B1E81850203AA0E81850B1E8185042
:1007E000A0E81850BFF4F5AF5FEA027C24BFB1E87F
:1007F0001850A0E8185044BF18C918C0BDE81040F0
:100800005FEA827C24BF51F8043B40F8043B08BFF8
:100810007047D20728BF31F8023B48BF11F8012BBF
:1008200028BF20F8023B48BF00F8012B704702F0B8
:10083000FF0343EA032242EA024200F002B84FF00B
:1008400000020429C0F0128010F0030C00F01B809D
:10085000CCF1040CBCF1020F18BF00F8012BA8BFAB
:1008600020F8022BA1EB0C0100F00DB85FEAC17C6F
:1008700024BF00F8012B00F8012B48BF00F8012B22
:1008800070474FF0000200B5134694469646203953
:1008900022BFA0E80C50A0E80C50B1F12001BFF439
:1008A000F7AF090728BFA0E80C5048BF0CC05DF89F
:1008B00004EB890028BF40F8042B08BF704748BFED
:1008C00020F8022B11F0804F18BF00F8012B704761
:1008D000704770477047704700487047E8940020A1
:1008E000704770477047704738B504460A46002085
:1008F0006946AFF30080002808BF38BD0246009962
:10090000204600F04FF8012038BD012000F07CB8EF
:10091000F8B5AFF30080054600200C46102000BF5C
:100920000646A819A0420DD9324669460020AFF309
:100930000080070008BF00F067F80098A04218BFC9
:100940000546C419FFF7C8FF05600746F01D20F0F3
:1009500007004619284600F00AF8B44208BFF8BD5F
:10096000A21B31463868BDE8F84000F01BB80021F2
:100970000160C0E9011070471020704710B500F009
:100980000DF8006810BD10B5044600F007F80460CB
:1009900010BD000000487047E094002000487047F8
:1009A000E0940020034640688C46002818BF884227
:1009B0003CBF03464068F8D318681844884207D003
:1009C0000CF1030020F00700001D411A521A0146E5
:1009D000081D0A60FFF716BE1FB584B000200A9CF0
:1009E00006AB04AA02A90094AFF3008018B1DDE9B8
:1009F000020108B010BD0348204000F03FF800207D
:100A00000146F6E70000207C10B500F03FF8BDE895
:100A1000104000F02EB87546FFF7BCFFAE4605004B
:100A20006946534620F00700854618B020B5FFF709
:100A30008FFCBDE820404FF000064FF000074FF05C
:100A400000084FF0000B21F00701AC46ACE8C009EC
:100A5000ACE8C009ACE8C009ACE8C0098D467047F5
:100A600010B50446AFF300802046BDE81040FFF704
:100A7000FABB002801D005F0B3BE704710B500F0F6
:100A800047F8BDE81040FFF7F4BF000010B501289B
:100A900005D0002103A000F021F8012010BD09A11C
:100AA000F8E7000053494752544D454D3A204F75E1
:100AB00074206F662068656170206D656D6F727956
:100AC000000000003A2048656170206D656D6F720E
:100AD0007920636F727275707465640070B5054635
:100AE0000C460A2000E06D1C05F07BFE35B128782D
:100AF0000028F8D102E0641C05F073FE14B12078E0
:100B00000028F8D1BDE870400A2005F06ABE000058
:100B100010B5022803D0410103D50DA112E0002039
:100B200010BD010101D50FA10CE0C10001D511A13B
:100B300008E0810001D512A104E0400001D513A115
:100B400000E0002115A0FFF7C9FF012010BD000043
:100B5000496E76616C6964204F7065726174696F6B
:100B60006E000000446976696465204279205A6508
:100B7000726F00004F766572666C6F770000000040
:100B8000556E646572666C6F77000000496E65781B
:100B900061637420526573756C7400005349474655
:100BA00050453A2041726974686D657469632065C7
:100BB0007863657074696F6E3A200000154E164DAB
:100BC000164C96F87408288094EDBE0A281D85ED11
:100BD000010A94EDBF0A85ED020A94EDC00A85ED85
:100BE000030A94EDC10A85ED040A94EDC20A85ED6D
:100BF000050A94EDC30A85ED060A00F01FF80120EE
:100C000007F0DAFF2988281D00F070F8012007F0AE
:100C1000D3FFD6E71420002008110020241900205B
:100C2000FEE70000014800F0FCBB000024080020A3
:100C3000014800F0F6BB00004C08002038B5024621
:100C400090ED000A10209FED221ADFED220A07F036
:100C500023FEDFED211A9FED212A054692ED010AC0
:100C60001020B0EE611AF0EE420A07F015FE0446BD
:100C700092ED020A1020B0EE611AF0EE420A07F07F
:100C80000BFE034692ED030A1020B0EE611AF0EE5F
:100C9000420A07F001FE12494FF408720A6000226E
:100CA0008A60CA6008220A610E492A0A0A704D70D9
:100CB000220A8A70CC701A0A0A714B71020A8A7170
:100CC000C8710A466B460649074800F0DCF938BD92
:100CD00000004842000048C2DA0FC940DA0FC9C01C
:100CE000FC1F00208A0000202408002038B5DFED1A
:100CF0001B1A9FED1B2A024690ED040A0D46102098
:100D0000B0EE611AF0EE420A07F0C6FD034692ED1E
:100D1000050A1020B0EE611AF0EE420A07F0BCFDA1
:100D2000104A002440F22121946011600821C2E998
:100D300003410D4A190A11705370010A9170D07065
:100D4000280A10710948557194710078D0716B466A
:100D50000449074800F097F938BD0000DA0FC94090
:100D6000DA0FC9C0FC1F00208A00002064000020A8
:100D70002408002038B50E4C4FF40075256000257E
:100D8000A560E560082525610A4C050A257060709C
:100D9000080AA070E170100A20716271180AA0712F
:100DA000E3716B4622460249034800F06CF938BDF6
:100DB000CC1F00207A0000202408002038B50E4CFB
:100DC0004FF4007525600025A560E56008252561C4
:100DD0000A4C050A25706070080AA070E170100ABC
:100DE00020716271180AA071E3716B4622460249B4
:100DF000034800F048F938BDE41F002082000020BD
:100E00004C080020014800F043BF0000880B002080
:100E1000014800F03DBF0000E80B0020014800F051
:100E200037BF0000480C0020014800F031BF00002F
:100E3000280B0020014800F02BBF0000A80C002068
:100E400001680A4BCAB2103AA3FB02321209084BDE
:100E50009B5CC365032A04D96FF30901091D8165F1
:100E600002E06FF309018165806D7047ABAAAAAA01
:100E700070CF0008014600208A6A8B69002B0FD0D2
:100E8000B3F5005F1DD08AB3012A30D0022A2ED0DC
:100E9000032A04D1C96A11F0807F00D00120704775
:100EA0001AB1012A07D0022AF9D1C96A11F0807F4C
:100EB000F5D001207047C96AB1F1C07FFAD1012095
:100EC00070475AB1012A0BD0022A07D0032AF7D162
:100ED000C96AB1F1C07FF3D101207047012070478A
:100EE000C96A11F0807FFAD001207047FFE7012026
:100EF00070470000074808B5406800900146064862
:100F00000269914202D2C168491CC1600099016125
:100F100008BD0000001000E01800002000B50E49D8
:100F20002DED028B81B0496800910168009A511A39
:100F300000EE101A0949F8EE400A91ED000A02602D
:100F4000B8EE400A80EE808AFFF7D4FF01B0B0EE21
:100F5000480ABDEC028B00BD001000E01800002024
:100F60000D490A6842F080720A600C4900224A600A
:100F70000B6843F001030B6009494FF47A7348434F
:100F8000B0FBF3F30749C1E90003054BB0FBF3F0F5
:100F9000C1E9020270470000FCED00E0001000E033
:100FA00040420F0018000020704772B6FEE770B58F
:100FB0000C462DED068B054690ED000A05F010FB62
:100FC000F0EE408A95ED010A05F00AFBB0EE409A7A
:100FD00095ED020A05F004FBF0EE409A95ED000A4B
:100FE00005F000FBB0EE408A95ED010A05F0FAFA33
:100FF000B0EE40AA95ED020A05F0F4FA69EE280A6F
:1010000020EE0A1AC4ED000A61EE280A21EE081A41
:1010100049EEC80A09EEA81AC4ED010A69EE8A0A67
:1010200060EEA81A60EE880A40EE081A40EE680AE0
:1010300029EE000AC4ED021A69EE081AC4ED031A7B
:1010400084ED041AC4ED050AF1EE4A0AC4ED060A5D
:1010500084ED070A29EE890A84ED080ABDEC068BA7
:1010600070BD90F82020012A07D0022A05D0416ADD
:1010700041F48021416201207047006842691143B8
:1010800041610020704770B490F82040D0F800C053
:10109000DCF808C0012C08D0022C06D0416A41F4CB
:1010A0008021416270BC012070470CF080640CF01C
:1010B00000652C4302D11CF0805F5FD0CCF3016C43
:1010C000BCF1020F06D9416A41F40001416270BCD3
:1010D00001207047012404FA0CF41C608B684FF463
:1010E000C0749BB1CD6804EB0C162B434D6843EAEA
:1010F000C5030568AB514FF4C273066803EB0C13CC
:101100000D69F550097D012909D00DE00D88CB68E6
:1011100004EB0C1643EA45530568AB51EBE7016855
:10112000CD5845F48075CD501179D379557941EA80
:10113000036193791B0443EA052319434FF4C675F1
:10114000036805EB0C1559511178D37841EA036116
:10115000937852781B0443EA022211434FF4C4737C
:10116000026803EB0C13D150016804EB0C100A5811
:1011700042F001020A5070BC00207047416A41F4FD
:101180000011416270BC01207047000090F82020DF
:10119000012A07D0022A05D0416A41F48021416228
:1011A000012070474248D0F8002242F00102C0F806
:1011B0000022D0F8002222F47C52C0F80022D0F89D
:1011C00000224B6A42EA0322C0F800220A7D012372
:1011D00002F01F0203FA02F2D0F81C329343C0F867
:1011E0001C32CB69D3B9D0F80C329343C0F80C321F
:1011F000B1F80CC04B686CF31F43D1F814C000EB7E
:10120000CC0CCCF84032B1F808C00B686CF31F432B
:10121000D1F814C000EBCC0CCCF84432CB69012BD4
:101220001AD1D0F80C321343C0F80C32B1F800C018
:101230004B686CF31F43D1F814C000EBCC0CCCF816
:101240004032B1F808C0CB686CF31F43D1F814C02A
:1012500000EBCC0CCCF844328B697BB1D0F8043273
:101260001343C0F804320B6973B1D0F8143213433E
:10127000C0F81432096A01290CD010E0D0F8043209
:101280009343C0F80432EEE7D0F814329343C0F829
:101290001432EFE7D0F81C121143C0F81C12D0F83A
:1012A000001221F00101C0F8001200207047000078
:1012B00000640040704710B490F820C0BCF1010FEA
:1012C00009D0BCF1020F06D0416A41F4802141628D
:1012D00010BC0120704739B1D0F800C0DCF810C054
:1012E0001CF0030F7DD006E0D0F800C0DCF80CC085
:1012F0001CF0030F7BD04FF4D87C04680CEB011C6E
:1013000054F80C4004F004049460002C7DD0046870
:1013100054F80C40E4085460046854F80CC00CF015
:10132000020CC2F80CC04FF4DA7C04680CEB011C10
:1013300054F80C4004F00F041461046854F80C4095
:10134000C4F307249461046854F80CC04FEA1C4CA1
:10135000C2F814C04FF4DC72D0F800C002EB0112E6
:101360005CF802C083F800C0D0F800C05CF802C08E
:101370004FEA1C2C83F801C0D0F800C05CF802C012
:101380004FEA1C4C83F802C0D0F800C05CF8022081
:10139000120EDA704FF4DE72D0F800C002EB0112C8
:1013A0005CF802C083F804C0D0F800C05CF802C04A
:1013B0004FEA1C2C83F805C0D0F800C05CF802C0CE
:1013C0004FEA1C4C83F806C0D0F800C05CF802203D
:1013D000120EDA71F9B10068016941F02001016172
:1013E00002E00BE003E010E010BC00207047416A0F
:1013F00041F40011416210BC01207047416A41F480
:101400000011416210BC01207047046854F80C4080
:10141000640D146080E70068C16841F02001C1607C
:10142000DEE72DE9F05F0546002428684669D0F81C
:1014300004908768D0F80CA0D0F810B0D0F81880CD
:1014400016F0010F54D017F0010F17D00121816061
:1014500017F0020F03D0284600F0B0FB0EE017F0A3
:10146000040F02D04FF4006408E017F0080F02D018
:101470004FF4805402E0284600F09FFB17F4807F71
:1014800019D029684FF48070886017F4007F03D06A
:10149000284600F095FB0EE017F4806F02D044F46C
:1014A000005408E017F4006F02D044F4804402E0D6
:1014B000284600F084FB17F4803F19D029684FF4C8
:1014C0008030886017F4003F03D0284600F07AFB94
:1014D0000EE017F4802F02D044F4004408E017F423
:1014E000002F02D044F4803402E0284600F069FB6B
:1014F00016F0080F07D01AF0100F04D044F400744F
:1015000029681020C86016F0040F4FF0080707D0B4
:101510001AF0080F04D02868C760284600F0CCF9FC
:1015200016F0020F07D02868C06810F0030F02D031
:10153000284600F0C3F916F0400F07D01BF0100F3B
:1015400004D044F4806429681020086116F0200F4C
:1015500007D01BF0080F04D028680761284600F068
:10156000F7FA16F0100F07D02868006910F0030F83
:1015700002D0284600F0EDFA16F4003F08D019F02A
:10158000100F05D0296810204860284600F0E2FAC4
:1015900016F4803F07D019F0080F04D02868476080
:1015A000284600F010FB16F4004F4AD019F0040F43
:1015B00044D016F4807F04D018F0010F01D044F01D
:1015C000010416F4007F04D018F0020F01D044F09B
:1015D000020416F4806F04D018F0040F01D044F018
:1015E000040416F4006F29D018F0700F26D008F00C
:1015F0007000402815D006DC102809D020280AD019
:10160000302816D10AE050280ED0602811D10EE003
:1016100044F008040DE044F010040AE044F0200413
:1016200007E044F0400404E044F0800401E044F4A6
:1016300080742868816921F0700181612968042023
:101640004860002C05D0686A204368622846FFF78E
:1016500031FEBDE8F09F70B50446002C03D094F82D
:10166000200010B104E0012070BD204600F0A8F871
:101670002068016841F00101016000F0A9FD054604
:10168000206840684FF0050610F0010F11D100F0FE
:101690009FFD401B0A2807D9606A40F40030606251
:1016A00084F82060012070BD2068406810F0010FB0
:1016B000EDD02068016821F00201016000F088FD92
:1016C00005462068406810F0020F11D000F080FD40
:1016D000401B0A2807D9606A40F40030606284F831
:1016E0002060012070BD2068406810F0020FEDD12D
:1016F000207E01283FD02068016821F08001016030
:10170000607E01283DD02068016821F04001016021
:10171000A07E01283BD02068016821F020010160F3
:10172000E07E012839D02068016841F01001016095
:10173000207F012837D02068016821F0080101606E
:10174000607F012835D02068016821F00401016024
:10175000E168A06862690843216911430843616830
:10176000491E08432168C86100206062012084F896
:101770002000002070BD2068016841F080010160F8
:10178000BEE72068016841F040010160C0E72068C1
:10179000016841F020010160C2E72068016821F082
:1017A00010010160C4E72068016841F00801016090
:1017B000C6E72068016841F004010160C8E7000045
:1017C000F0B587B0044614216846FFF75AF835494A
:1017D000354ADFF8CCE00868D4F800C0324B032467
:1017E0000225092610320027401CF44521D108604B
:1017F000012807D1106840F000701060106800F0F8
:1018000000700590186840F00800186018688DE8AE
:10181000B00000F00800CDE9046069460394234855
:1018200000F0A2FB00220521142000F045FD142049
:1018300032E0DFF87CE0F44530D1D2F800C04CF063
:10184000806CC2F800C0D2F800C001280CF0806C97
:10185000CDF814C0086007D1106840F00070106027
:10186000106800F000700590186840F002001860E1
:101870001868694600F0020005904FF440508DE86A
:10188000A100CDE903460B4800F06EFB00220521C4
:10189000402000F011FD402000F000FD07B0F0BD39
:1018A000006400401000002030380240000C02406C
:1018B00000680040000402407047000010B58AB084
:1018C00004466B4602AA0021FFF7F5FC9748984AA8
:1018D000844279D10298B0F5017F06D035DCA0F5BD
:1018E0000070023801D001286CD10298914B401E43
:1018F000C1B2117001EB410203EB820033F82240C8
:101900000481BDF8004064BA23F82240BDF80220EB
:1019100052BA4280BDF8042052BA82809DF8062057
:1019200082714FF480528448544201294DD00229DB
:101930005AD0032946D1998CB3F92C30C91A914257
:1019400061DD50F89C1F491E62E07A4A7832A2F1AC
:101950001803DFED7A2A9FED7A2AB0F50C7F59D073
:10196000A0F5007031382DD1BDF80000102140BA2B
:1019700000EE100AF0EE620AB8EE400A82ED040AA8
:10198000BDF80200BDEEC00A40BA01EE100A10EE2A
:10199000100AB0EE420AB8EE411A82ED051A07F0BD
:1019A000E3FF83ED040A92ED050A1021F0EE620ACE
:1019B000BDEEC00A10EE100AB0EE420A07F0D4FFE6
:1019C00083ED050A0AB010BD83E09989B3F914309C
:1019D000C91A914202DDC16F491E03E0A142F1DA4A
:1019E000C16F491CC167EDE7198BB3F92030C91AE3
:1019F000914202DDC16D491E03E0A142E2DAC16DF0
:101A0000491CC165DEE7A142DCDA50F89C1F491C85
:101A10000160D7E7BDF80000102140BA00EE100ABF
:101A2000B8EE400A82ED000ABDF80200BDEEC00A21
:101A300040BA01EE100AB8EE411A82ED011ABDF863
:101A4000040040BA01EE100AB8EE411A82ED021A03
:101A5000BDF8060040BA01EE100A10EE100AB8EE0A
:101A6000411A82ED031ADFED370A9FED370A07F0BE
:101A70007BFF83ED000A92ED010A1021F0EE620A6D
:101A8000BDEEC00A10EE100AB0EE420A07F06CFF7D
:101A900083ED010A92ED020A1021F0EE620ABDEE1A
:101AA000C00A10EE100AB0EE420A07F05DFF83EDA7
:101AB000020A92ED030A1021F0EE620ABDEEC00A9E
:101AC00010EE100AB0EE420A07F04EFF83ED030A53
:101AD00078E71E48844286D10298A0F5007001384C
:101AE00005D0012803D0022801D003288AD102980A
:101AF000401EC0B250700F4A00EB4001303202EB82
:101B0000810032F821300381BDF800305BBA22F841
:101B10002130BDF8021049BA4180BDF8041049BA1D
:101B200081809DF8061081714CE700002408002098
:101B3000780000203C1F002014200020DA0FC9404C
:101B4000DA0FC9C000004842000048C24C0800201B
:101B500070477047704770B5044694F8200001281C
:101B600005D0606A40F400206062012070BD022050
:101B700084F820002068016821F00101016000F074
:101B800027FB05462068406810F0010F12D000F0D6
:101B90001FFB401B0A2808D9606A40F400306062CD
:101BA000052084F82000012070BD2068406810F0F6
:101BB000010FECD10020606270BD70477047704724
:101BC00070477047704770472DE9F0410446A66D95
:101BD00000F0FEFA054694F835000027022806D0EA
:101BE0008020606584F834700120BDE8F0812068B1
:101BF000016821F0160101602068416921F080012F
:101C00004161206C08B9A06C20B12068016821F006
:101C1000080101602068016821F00101016020686D
:101C2000006810F0010F12D000F0D2FA401B052816
:101C300008D920206065032084F8350084F83470CA
:101C4000BDE8F0812068006810F0010FECD194F835
:101C50005C003F2101FA00F0B060012084F83500FB
:101C600084F834700020BDE8F08190F83510022926
:101C700003D08021416501207047052180F835108F
:101C80000068016821F00101016000207047000038
:101C90002DE9F84304464FF00008CDF8008076485F
:101CA0004FF416510068B0FBF1F7A56D2E6894F85B
:101CB0005C00082101FA00F0304211D0206802686F
:101CC00012F0040F0CD0026822F00402026094F8B3
:101CD0005C0001FA00F0A860606D40F001006065F2
:101CE00094F85C004FF0010909FA00F0304209D085
:101CF0002168496911F0800F04D0A860606D40F040
:101D00000200606594F85C1004208840304209D0DD
:101D10002168096811F0020F04D0A860606D40F0DE
:101D20000400606594F85C1010208840304224D094
:101D30002168096811F0080F1FD0A86020680168A9
:101D400011F4802F0DD0006810F4002F04D0A16C86
:101D500099B12046884710E0216C71B12046884730
:101D60000BE0016811F4807F03D1016821F00801C4
:101D70000160216C09B12046884794F85C1020204E
:101D80008840304251D02168096811F0100F4CD0C2
:101D9000A86094F8350005280DD02068016811F47A
:101DA000802F32D0006810F4002F29D0E16B59B396
:101DB0002046884739E02068016821F0160101605B
:101DC0002068416921F080014161206C08B9A06C54
:101DD00020B12068016821F00801016094F85C00DE
:101DE0003F2101FA00F0A86084F8359084F834802F
:101DF000216D00293ED001B02046BDE8F0430847E0
:101E0000616C09B1204688470FE0016811F4807FBA
:101E100007D1016821F01001016084F8359084F841
:101E20003480E16B09B120468847606D002821D0DD
:101E3000606D10F0010F15D0052084F83500206882
:101E4000016821F0010101600098401C0090B84237
:101E500004D82068006810F0010FF5D184F835909F
:101E600084F83480E16C002904D001B02046BDE83C
:101E7000F0430847BDE8F883FC0000202DE9F0415D
:101E8000044600F0A5F90546DCB1022084F83500CF
:101E9000002684F834602068016821F001010160A7
:101EA0002068006810F0010F13D000F091F9401B7A
:101EB000052809D920206065032084F83500BDE895
:101EC000F0810120BDE8F0812068006810F0010F6A
:101ED000EBD121680868234A1040A3686268D4F8EF
:101EE00010C01A43E36843EA0C031A4363691A43B8
:101EF000A3691A43E3691A43236A1A431043626AC7
:101F0000042A03D1236BE26A1A4310430860206855
:101F1000406920F00701606A40EA010501270428B2
:101F20000ED1A06A0543E06A50B12046FEF7A2FF39
:101F300030B14020606584F835700120BDE8F08143
:101F4000206845612046FEF77BFF94F85C103F2235
:101F500002FA01F18160666584F835700020BDE801
:101F6000F08100003F8010F02DE9F84F0022DFF8EB
:101F70002C92DFF82CE2DFF82CA24FF0010B0327A4
:101F80004FF00F080BFA02FC0B6803EA0C036345E1
:101F90007AD10C7904F00304012C01D0022C14D165
:101FA0008568540007FA04F6B543CE6806FA04F4CF
:101FB0002C438460446824EA0C0C0C79C4F30014AC
:101FC000944044EA0C0CC0F804C0D1F804C037EACD
:101FD0000C0C0CD0C4684FEA420C07FA0CF5AC4369
:101FE0008D6805FA0CFC4CEA040CC0F80CC091F8A2
:101FF00004C00CF0030CBCF1020F12D14FEAD20C5A
:1020000000EB8C04256A4FEA427C4FEADC6C08FA4C
:102010000CF6B5430E6906FA0CFC4CEA050CC4F844
:1020200020C004684FEA420C07FA0CF5AC430D7966
:1020300005F0030505FA0CFC4CEA040CC0F800C0DE
:10204000D1F804C01CF4403F1ED0D9F800C04CF4B5
:10205000804CC9F800C0D9F800C00CF4804CCDF811
:1020600000C022F0030C0CF1804505F59835D5F839
:1020700008C89407240F08FA04F62CEA06067045EF
:1020800003D14FF0000C2FE067E0A0F1804CBCF5CD
:10209000013C68D0A0F1804CBCF5023C66D0A0F1B8
:1020A000804CBCF5033C64D0A0F1804CBCF5043CF2
:1020B00062D0A0F1804CBCF5053C60D0A0F1804C12
:1020C000BCF5063C5ED0A0F1804CBCF5073C5CD072
:1020D000A0F1804CBCF5083C5AD0A0F1804CBCF576
:1020E000093C58D04FF00A0C0CFA04FC4CEA060CE0
:1020F000C5F808C8DAF800C02CEA030C4C6814F4E0
:10210000801F01D04CEA030CCAF800C0264CD4F85A
:1021100000C02CEA030C4D6815F4001F01D04CEAF6
:10212000030CC4F800C0214CD4F800C02CEA030C06
:102130004D6815F4003F01D04CEA030CC4F800C010
:102140001B4CD4F800C02CEA030C4D6815F4803FFA
:1021500001D04CEA030CC4F800C0521C102AFFF452
:1021600011AFBDE8F88F4FF0010CBDE74FF0020C46
:10217000BAE74FF0030CB7E74FF0040CB4E74FF0A9
:10218000050CB1E74FF0060CAEE74FF0070CABE7DC
:102190004FF0080CA8E74FF0090CA5E744380240BF
:1021A00000000240083C01400C3C0140043C01405E
:1021B000003C01400069084201D001207047002026
:1021C0007047002A01D0816170470904816170471E
:1021D0000148806870470000F000002002488168D4
:1021E0000278114481607047F000002010B50B4860
:1021F000016841F400710160016841F4806101608F
:10220000016841F480710160032000F089F80F201B
:1022100000F006F800F026F8002010BD003C024057
:1022200070B504460D4D4FF47A712878B1FBF0F08B
:102230000B490968B1FBF0F000F0E2FB08B10120A6
:1022400070BD102C07D200222146501E00F034F839
:102250006C60002070BD012070BD0000F000002007
:10226000FC0000200C4882B0016841F4804101600C
:10227000006800F4804000900748001F016841F0AA
:10228000805101600068002200F0805000900F2112
:10229000901E02B000F010B84438024000280ADB5B
:1022A00000F01F01012202FA01F14009800000F153
:1022B000E020C0F80011704710B4184B1B68C3F33E
:1022C0000223C3F1070CBCF1040F01D94FF0040C39
:1022D0001C1D072C01D2002300E0DB1E012404FAA0
:1022E0000CFCACF1010C0CEA0101994004FA03F377
:1022F0005B1E1A401143002806DB00F1E0200901B3
:1023000080F8001410BC704700F00F0000F1E020CE
:10231000090180F8141D10BC704700000CED00E0AE
:1023200000F00700064A11684FF6FF03194041EA22
:10233000002040F0FD7040F08060106070470000A9
:102340000CED00E02DE9F04704460D46002C13D0BB
:10235000DFF85491D9F80000EFB200F00F00A84266
:102360000DD289F80070D9F8000000F00F00A842E3
:1023700005D00120BDE8F0870120BDE8F087206886
:102380004A4E10F0020F14D010F0040F03D0306842
:1023900040F4E0503060207810F0080F03D030682F
:1023A00040F4604030603068A16820F0F0000843DD
:1023B0003060207810F0010F3ED060683C49012861
:1023C00008D002280DD003280BD0096811F0020FA5
:1023D00028D00AE0096811F4003F06D10120BDE8C9
:1023E000F087096811F0007F19D0316821F00301EE
:1023F00008433060FFF7ECFE80463068616800F00B
:102400000C00B0EB810F17D041F2883AFFF7E0FEE5
:10241000A0EB0800504508D90320BDE8F087012053
:10242000BDE8F0870120BDE8F0873068616800F002
:102430000C00B0EB810FE9D1D9F8000000F00F00DB
:10244000A8420AD989F80070D9F8000000F00F00FE
:10245000A84202D00120BDE8F087207810F0040FD8
:1024600005D03068E16820F4E050084330602078FF
:1024700010F0080F06D03068216920F4604040EA6F
:10248000C100306000F042F831680A4AC1F303111C
:10249000515CC8400849086008480068FFF7C0FE62
:1024A0000020BDE8F0870000003C024008380240F0
:1024B0000038024078CF0008FC000020F400002023
:1024C0000148006870470000FC00002000B5FFF7DD
:1024D000F7FF04490968044AC1F38221515CC840EE
:1024E00000BD00000838024088CF000800B5FFF7A3
:1024F000E7FF04490968044AC1F34231515CC8400E
:1025000000BD00000838024088CF000810B5174809
:10251000006810F00C01164816D0164B042912D092
:10252000082911D1144C216801F03F02216811F4EF
:10253000800F0AD02068C0F38810A0FB030100239D
:10254000FEF787F809E0184610BD21680023C1F3A3
:102550008811A1FB0001FEF77CF82168C1F301415D
:10256000491C4900B0FBF1F010BD000008380240E2
:102570000024F400001BB700043802402DE9F84F96
:102580000446002C12D02078FB4E10F0010FA6F16B
:10259000040563D0301D016801F00C0104290CD042
:1025A000006800F00C00082803D010E00120BDE80E
:1025B000F88F306810F4800F09D0286810F4003FBD
:1025C0004CD06068002849D10120BDE8F88F6068D0
:1025D000B0F5803F14D0B0F5A02F16D0286820F4B5
:1025E00080302860286820F480202860606810B35C
:1025F000FFF7EEFD0746286810F4003F0ED02DE0EF
:10260000286840F480302860F0E7286840F4802093
:102610002860286840F480302860E7E7FFF7D8FD9D
:10262000C01B642802D90320BDE8F88F286810F485
:10263000003FF3D012E0FFF7CBFD0746286810F407
:10264000003F0BD0FFF7C4FDC01B642802D9032054
:10265000BDE8F88F286810F4003FF3D12078C74F09
:1026600010F0020F4FF0000957D0C548016811F073
:102670000C0F14D0006800F00C00082803D130685B
:1026800010F4800F0BD0E06880B301203860FFF7B2
:102690009FFD8046286810F0020F12D01EE02868C7
:1026A00010F0020F05D0E068012802D00120BDE83B
:1026B000F88F2868216920F0F80040EAC1002860FE
:1026C0002BE0FFF785FDA0EB0800022802D90320CC
:1026D000BDE8F88F286810F0020FF2D02868216951
:1026E00020F0F80040EAC100286016E0FFE7C7F8D4
:1026F0000090FFF76DFD8046286810F0020F0CD0A7
:10270000FFF766FDA0EB0800022802D90320BDE810
:10271000F88F286810F0020FF2D1207810F0080F1F
:1027200035D09848DFF860A26169C1B1012101602C
:10273000FFF74EFD8046DAF8000010F0020F26D1B8
:10274000FFF746FDA0EB0800022802D90320BDE8F0
:10275000F88FDAF8000010F0020FF1D017E0C0F89F
:102760000090FFF735FD8046DAF8000010F0020F08
:102770000DD0FFF72DFDA0EB0800022802D90320A1
:10278000BDE8F88FDAF8000010F0020FF1D12078E0
:1027900010F0040F71D04FF000087C48006810F072
:1027A000805F0AD17948016841F08051016000687A
:1027B00000F0805000904FF00108DFF8D4B1DBF852
:1027C000000010F4807F1BD1DBF8000040F4807023
:1027D000CBF80000FFF7FCFC8246DBF8000010F4A9
:1027E000807F0DD1FFF7F4FCA0EB0A00022802D98C
:1027F0000320BDE8F88FDBF8000010F4807FF1D0F3
:10280000A068DFF890B1012818D005281DD0DBF8AA
:10281000000020F00100CBF80000DBF8000020F001
:102820000400CBF80000A06840B3FFF7D1FC82465B
:10283000DBF8000010F0020F14D03EE0DBF80000DF
:1028400040F00100CBF80000EDE7DBF8000040F0BD
:102850000400CBF80000DBF8000040F00100CBF8EA
:102860000000E0E7FFF7B4FCA0EB0A0141F288307A
:10287000814204D90320BDE8F88F26E005E0DBF8AB
:10288000000010F0020FEDD017E0FFF7A1FC824628
:10289000DBF8000010F0020F0FD0FFF799FCA0EB5F
:1028A0000A0141F28830814202D90320BDE8F88F45
:1028B000DBF8000010F0020FEFD1B8F1010F04D1E6
:1028C0003248016821F080510160A069F0B32C49C1
:1028D00009684FF0FF3801F00C01082966D0022882
:1028E00010D0C7F86090FFF773FC0446286810F01A
:1028F000007F2BD0FFF76CFC001B022851D903206E
:10290000BDE8F88FC7F86090FFF762FC8146286841
:1029100010F0007F0CD0FFF75BFCA0EB0900022851
:1029200002D90320BDE8F88F286810F0007FF2D1AB
:10293000216AE069A26A0843616A08EB52028901D0
:1029400041EA0241084394F82C1000E055E040EAC7
:102950000160306001203866FFF73AFC04462868C1
:1029600010F0007F49D1FFF733FC001B022813D978
:102970000320BDE8F88F0000043802400000474201
:1029800008380240800E4742743802404038024006
:102990000070004070380240286810F0007FE2D0DC
:1029A0002BE0286810F0007FA4D126E0012822D077
:1029B0003068E26900F4800191421AD1226A00F085
:1029C0003F01914215D147F6C071626A0140B1EBF7
:1029D000821F0ED1A26A00F4403108EB5202B1EB23
:1029E000024F06D194F82C1000F07060B0EB016F2C
:1029F00003D00120BDE70120BBE70020B9E70000BC
:102A0000401EB0F1807F01D3012070474FF0E021DC
:102A10004861044AF0201070002088610720086196
:102A20000020704723ED00E030B490F83C20012AEC
:102A300044D0012480F83C40022280F83D20026806
:102A4000D2F804C093682CF0700C0D6845EA0C0CA9
:102A5000C2F804C00268A2F1804CBCF5803C20D0D2
:102A6000B2F1804F1DD0A2F1804CBCF5806C18D023
:102A7000A2F1804CBCF5006C13D0A2F1804CBCF5E7
:102A8000406C0ED0A2F1804CBCF5823C09D0A2F182
:102A9000804CBCF5A03C04D0A2F1804CBCF5C05CDD
:102AA00004D123F0800349681943916080F83D40C8
:102AB000002180F83C1030BC0020704730BC022060
:102AC000704710B50446002C03D094F83D0010B1B7
:102AD00007E0012010BD002084F83C00204600F0F3
:102AE0001FF8022084F83D00211D206802F0FAFE44
:102AF000012084F8460084F83E0084F83F0084F802
:102B0000400084F8410084F8420084F8430084F8CF
:102B1000440084F8450084F83D00002010BD00000A
:102B200008B500681149B0F1804F0BD0104A9042AF
:102B300010D1086840F004000860086800F0040044
:102B4000009008BD086840F001000860086800F0C7
:102B50000100F5E7074A9042F3D1086840F04000D1
:102B60000860086800F04000EAE7000040380240D2
:102B7000000800400018004090F83D10012901D0E5
:102B800001207047022180F83D100068A0F18041CB
:102B9000B1F5803126D0B0F1804F23D0A0F1804133
:102BA000B1F580611ED0A0F18041B1F5006119D06E
:102BB000A0F18041B1F5406114D0A0F18041B1F5A0
:102BC00082310FD0A0F18041B1F5A0310AD0A0F13F
:102BD0008041B1F5C05105D0016841F001010160AB
:102BE00000207047816801F007010629F8D00168CC
:102BF00041F001010160F3E770B50446002594F847
:102C00003C00012818D0012684F83C60022084F89A
:102C10003D002068826822F0770222F47F428260C1
:102C20000868502839D00EDC202854D006DC002853
:102C300051D0102811D14EE0022070BD30284AD06A
:102C400040280AD13DE0602831D070280DD0B0F581
:102C5000805F03D0B0F5005F13D0012584F83D609C
:102C6000002084F83C00284670BDCB684A6889681B
:102C7000206802F0ACFE2068816841F07701816035
:102C8000ECE7CB684A688968206802F0A0FE2068FB
:102C9000816841F480418160E0E7CA684968206842
:102CA00002F084FF5021206802F09CFED6E7CA683B
:102CB0004968206802F08DFF6021206802F092FED2
:102CC000CCE7CA684968206802F070FF402120689C
:102CD00002F088FEC2E722680146104602F082FE3A
:102CE000BCE7000070B586B0044614216846FDF7C5
:102CF000C8FD206800232149032402220125B0F1E8
:102D0000804F16D01E4EB04223D1086840F0080014
:102D100008600868694600F0080005904FF47040AC
:102D20008DE80D00CDE903321648FFF71DF906B016
:102D300070BD086840F00100086008680094CDE9A3
:102D4000012300F00100CDE90450694603930E48C9
:102D5000EBE70E4B9842EAD1086840F0800008602B
:102D60000868694600F08000059040208DE8250045
:102D70000920CDE903400648D7E70000303802407B
:102D800000080040000C0240000002400018004013
:102D9000001C024070B504460D46002694F83C0025
:102DA00001280FD0012084F83C006AB1042A1FD00A
:102DB000082A32D00C2A44D00126002084F83C0096
:102DC000304670BD022070BD2946206802F012FE18
:102DD0002068816941F0080181612068816921F0E2
:102DE00004018161206881692A6911438161E4E7F6
:102DF0002946206802F036FE2068816941F40061AE
:102E000081612068816921F4806181612068816924
:102E10002A6941EA02218161CFE72946206802F050
:102E20005DFE2068C16941F00801C1612068C16987
:102E300021F00401C1612068C1692A691143C1619F
:102E4000BBE72946206802F085FE2068C16941F48D
:102E50000061C1612068C16921F48061C16120689D
:102E6000C1692A6941EA0221C161A6E710B5044699
:102E7000002C03D094F83D0010B107E0012010BDF4
:102E8000002084F83C00204600F01EF8022084F860
:102E90003D00211D206802F025FD012084F8460038
:102EA00084F83E0084F83F0084F8400084F8410034
:102EB00084F8420084F8430084F8440084F8450014
:102EC00084F83D00002010BD7047000010B5044696
:102ED000002909D004290AD008290BD094F8410010
:102EE00001280AD0012010BD94F83E00F8E794F8BC
:102EF0003F00F5E794F84000F2E70220D9B3042937
:102F000047D0082948D084F841000122206802F007
:102F10004FFD234A20682349904201D0884203D1C3
:102F2000436C43F4004343642068904224D0B0F1E2
:102F3000804F21D0A0F18042B2F580621CD0A0F178
:102F40008042B2F5006217D0A0F18042B2F5406233
:102F500012D0884210D0A0F18041B1F5A0310BD041
:102F6000A0F18041B1F5C05106D0016841F00101E6
:102F70000160002010BD09E0816801F00701062909
:102F8000F7D0016841F001010160F2E784F83E00EA
:102F9000BBE784F83F00B8E784F84000B5E70000DD
:102FA000000001400004014070477047F8B5044636
:102FB00022681068D168536900F00F0CBCF1000F53
:102FC0000AD110F0200F07D011F0200F04D02046B6
:102FD000BDE8F84002F062BE0025BCF1000F75D0DC
:102FE00003F0010C01F490765CEA06066ED010F056
:102FF000010F06D011F4807F03D0226C42F0010251
:10300000226410F0040F06D013F0010F03D0226CDD
:1030100042F00202226410F0020F06D013F0010FFA
:1030200003D0226C42F00402226410F0080F08D092
:1030300001F0200252EA0C0203D0226C42F0080296
:103040002264226C002A35D010F0200F05D011F038
:10305000200F02D0204602F021FE20684069C0F314
:103060008010216C11F0080F00D148B3204602F007
:10307000E1FD2068406910F0400F1CD0206814303A
:1030800050E8001F21F0400140E80012002AF5D16D
:10309000A06B60B15C490165A06BFEF7E6FD0028FE
:1030A00008D0A06B016D01B0BDE8F0400847204694
:1030B000FFF77BFFF8BD2046FFF777FFF8BD05E07F
:1030C000FFE72046FFF771FF2564F8BD236B012B56
:1030D0007ED110F0100F7BD011F0100F7ED0106851
:1030E0005068009050694FF0200310F0400F43D01B
:1030F000A16B0868406880B20028E6D0A28D8242A9
:10310000E3D9E085C869B0F5807F2DD020680C3008
:1031100050E8001F21F4807140E80012002AF5D128
:103120002068143050E8001F21F0010140E800122F
:10313000002AF5D12068143050E8001F21F040012A
:1031400040E80012002AF5D184F83E30256320685B
:103150000C3050E8001F21F0100140E80012002A56
:10316000F5D1A06BFEF730FDA08DE18D401A81B244
:103170002046FFF719FFF8BDA08DE18D401A81B2FE
:10318000E08D0028F7D00029F5D020680C3050E8F9
:10319000002F22F4907240E8002CBCF1000FF4D113
:1031A0002068143050E8002F22F0010240E8002C83
:1031B000BCF1000FF4D184F83E30256320680C3058
:1031C00050E8002F22F0100240E80023002B00E01E
:1031D00004E0F3D12046FFF7E7FEF8BD10F0800FC2
:1031E00007D011F0800F04D02046BDE8F84002F06F
:1031F00037BE10F0400FF0D011F0400FEDD0204658
:10320000BDE8F84002F03DBD255C000870B50446FD
:10321000002C04D094F83D00002510B106E00120F8
:1032200070BD84F83C50204600F022F8242084F839
:103230003D002068C16821F40051C160204602F0C1
:1032400091FD2068016921F4904101612068416984
:1032500021F02A0141612068C16841F40051C16038
:103260002564202084F83D0084F83E00002070BDD5
:103270002DE9F04F87B0044614216846FDF701FBA5
:10328000CB48CA4E2368CA4910380327C94A0025CB
:103290004FF002084FF00809B34215D10B6843F410
:1032A00000230B60096801F400210591016841F0D9
:1032B000040101600068694600F004000590B8024E
:1032C000CDE90008104629E0BB4EB3422ED10B6871
:1032D00043F480130B60096801F4801105910168C3
:1032E00041F004010160016801F0040105910168E9
:1032F00041F008010160006802AB00F00800059091
:10330000B014CDE9000883E8A00269461046FEF734
:103310002BFE0420CDE90008A848694602AB83E8EB
:10332000A002FEF721FE07B0BDE8F08FA44EA54A2B
:10333000B34221D10B6843F080430B60096801F070
:1033400080410591016841F010010160006802AB05
:1033500000F0100005904FF4C070CDE9000883E83C
:10336000A00269461046FEF7FFFD0022052152200B
:10337000FEF7A2FF522021E0934EB34221D10B6809
:1033800043F000430B60096801F0004105910168BA
:1033900041F0100101600068CDE9007800F01000F4
:1033A000CDE90490CDE9025769461046FEF7DCFDF1
:1033B000002205215320FEF77FFF5320FEF76EFF0A
:1033C000B1E7824ADFF8E8C116150CF1040C4FF0A2
:1033D000070A4FF0006B93423AD1DCF8002042F02C
:1033E0001002CCF80020DCF8001001F0100105916B
:1033F000016841F002010160006802AA00F00200C9
:103400000590C020CDE9000882E8A0046946704814
:10341000FEF7AAFD704F6F483860C7E901B5C7E9EC
:10342000035680157D61C7E906504FF44030C7E967
:1034300008053846FEF722FD08B1FDF7B6FDA76383
:10344000002205212520BC63FEF736FF2520B5E7C5
:10345000624A934251D10A6842F400320A60096814
:1034600001F400310591016841F008010160006834
:1034700002AA00F0080005906020CDE9000882E86B
:10348000A00469464D48FEF76FFD534F544860371E
:10349000B0463860C7E901B5C7E903567D614FF40E
:1034A0004036BD61C7E90756D94638467D62FEF70A
:1034B000E5FC08B1FDF779FDA763BC63464F4848BA
:1034C000C0371830E7E802094020A7E82101424848
:1034D00047F81459C030BD61C7E907567D62FEF751
:1034E000CDFC08B1FDF761FD6763002205212620B0
:1034F000BC63FEF7E1FE262060E73A498B427FF489
:103500005FAFDCF8002042F02002CCF80020DCF8AD
:10351000001001F020010591016841F040010160B7
:10352000006802AA00F0400005904FF48440CDE905
:10353000000882E8A00269462B48FEF715FD2548E1
:103540002A4F18384FF020683860C7E90185C7E96D
:1035500003567D614FF40030BD61C7E9075038461E
:103560007D62FEF78BFC08B1FDF71FFDA763BC630E
:103570001E4F184860376030E7E80208402061C7F6
:103580001A4847F814596030BD61FD613D627D62A3
:10359000FEF774FC08B1FDF708FD67630022052102
:1035A0004720BC63FEF788FE472007E7004C004039
:1035B000403802400008024000500040000C024029
:1035C0000078004000100240007C004000100140E4
:1035D0000004024040640240280B002000440040E8
:1035E000886002400014014000180240480C00208E
:1035F00070477047FEE7000070B594B00446502253
:1036000085496846FDF7E1F800206B4603EB0011A1
:1036100004EB800291ED000A401C82ED000A91ED5E
:10362000010A052882ED050A91ED020A82ED0A0AD7
:10363000ECDB00254020FCF7B6FF04EB85064021BB
:10364000B066FDF71EF904EBC500042211464030B8
:10365000B36EFCF705FF6D1C052DEBDB002540204C
:10366000FCF7A1FF04EB8506402146F8F80FFDF7B3
:1036700008F904EBC50004221146E8303368FCF772
:10368000EFFE6D1C022DEADB2420FCF78CFF2421C9
:10369000C4F8A800FDF7F5F80322114604F1A000D4
:1036A000D4F8A830FCF7DCFE2420FCF77CFF2421B2
:1036B000C4F8E400FDF7E5F80322114604F1DC004C
:1036C000D4F8E430FCF7CCFE2420FCF76CFF242176
:1036D000C4F88400FDF7D5F80322114604F17C00FC
:1036E000D4F88430FCF7BCFE2420FCF75CFF2421D6
:1036F000C4F8B400FDF7C5F80322114604F1AC008C
:10370000D4F8B430FCF7ACFE2420FCF74CFF2421A5
:10371000C4F89000FDF7B5F80322114604F18800C3
:10372000D4F89030FCF79CFE2420FCF73CFF2421C9
:10373000C4F89C00FDF7A5F80322114604F194009B
:10374000D4F89C30FCF78CFE2420FCF72CFF9FED76
:10375000330AC4F8D80080ED000AD4F8D800F7EE98
:10376000000A032280ED010AD4F8D8001146C0ED0A
:10377000020AD4F8D80080ED030AD4F8D800C0EDCE
:10378000040AD4F8D800FFEE000A80ED050AD4F848
:10379000D800C0ED060AD4F8D80080ED070AD4F8A6
:1037A000D80080ED080A04F1D000D4F8D830FCF736
:1037B00057FE2420FCF7F7FE2421C4F80801FDF78A
:1037C00060F80322114604F58070D4F80831FCF744
:1037D00047FE0C20FCF7E7FE0025C4F8C00005609A
:1037E000456085600122032104F1B800D4F8C0309F
:1037F000FCF736FE0C20FCF7D6FEC4F8CC000560C2
:10380000456085600122032104F1C400D4F8CC3066
:10381000FCF726FE14B070BDFCCB000800000000D1
:103820000F4810B50D4901600321416000214FF49C
:1038300010228160C0E903124FF400124261017648
:1038400041768176C17601774177FDF704FF002844
:1038500003D0BDE81040FDF7A8BB10BD00640040D8
:10386000240800200F4810B50D4901600321416074
:1038700000214FF410228160C0E903124FF40012BE
:103880004261017641768176C17601774177FDF715
:10389000E2FE002803D0BDE81040FDF786BB10BD56
:1038A000006800404C0800201D4808B5016841F43C
:1038B00080010160016801F480010091016841F418
:1038C000001101600068002200F400100090052142
:1038D0001020FEF7F1FC1020FEF7E0FC002205218D
:1038E0001120FEF7E9FC1120FEF7D8FC002205218B
:1038F0003920FEF7E1FC3920FEF7D0FC002205213B
:103900003A20FEF7D9FC3A20FEF7C8FC0022052138
:103910004520FEF7D1FCBDE808404520FEF7BEBCBF
:103920003038024010B59CB01C2216496846FCF79E
:103930004CFF0021684605F058F9134C11491C2230
:1039400020601C3107A8FCF740FF002107A805F004
:103950004CF90C4960601C2238310EA8FCF735FF89
:1039600000210EA805F041F90649E0601C225431FF
:1039700015A8FCF72AFF002115A805F036F9A0606C
:103980001CB010BD6CC30008000000202DE9F04FF2
:1039900087B014216846FCF774FF5D480024016875
:1039A00041F010010160016801F01001059101680A
:1039B00041F040010160016801F04001059101689A
:1039C00041F004010160016801F004010591016802
:1039D00041F001010160016801F0010105910168F8
:1039E00041F002010160016801F0020105910168E6
:1039F00041F008010160016801F0080105910168CA
:103A000041F480710160016801F4807105910168E1
:103A100041F020010160016801F020010591016879
:103A200041F08001016000683A4E00F0800005908E
:103A3000002203213046FEF7C4FBDFF8DC900022B1
:103A400004214846FEF7BDFBDFF8D0A0002201218B
:103A50005046FEF7B6FBDFF8C8B0002204215846F6
:103A6000FEF7AFFB002280212E48FEF7AAFB41F2B1
:103A70007000CDE9000469462B480294FEF774FA01
:103A8000202002278DE8910069462648FEF76CFA4F
:103A90000325CDE90054CDE9027569463046FEF7AD
:103AA00063FA0C20012603958DE8510069461F48F2
:103AB000FEF75AFA4FF00408CDE90086CDE9026519
:103AC00069464846FEF750FA08208DE8910069469D
:103AD0004846FEF749FA0096694650460196CDE9F8
:103AE0000245FEF741FACDE9008669465846CDE920
:103AF0000245FEF739FA8020CDE9000669460948FB
:103B0000CDE90245FEF730FA07B0BDE8F08F0000BE
:103B1000303802400014024000000240000402401D
:103B2000001C024000200240001002400008024039
:103B300010B58CB000240794089409941C216846A1
:103B40000A94FCF79EFE19481749C0E9001445F293
:103B50000721C0E9024104618461FEF7B2FF08B1A8
:103B6000FDF723FA4FF48050079007A90F48FFF79D
:103B700043F808B1FDF719FA0C48FFF777F908B1D7
:103B8000FDF713FA6020CDE9000402940022694693
:103B900006480494FFF7FEF808B1FDF706FA03485B
:103BA000FFF7A0F80CB010BD001800400409002079
:103BB00010B58EB000240794089409940A940B94CD
:103BC0001C2168460C94FCF75CFE22484FF08041B3
:103BD00001605321C0E9011444F61F61C0E90314D8
:103BE0008461FEF76EFF08B1FDF7DFF94FF48050F6
:103BF000079007A91748FEF7FFFF08B1FDF7D5F9B1
:103C00001448FFF733F908B1FDF7CFF90B940BA96E
:103C100010480C94FEF708FF08B1FDF7C6F96020C4
:103C2000CDE900040294002269460A480494FFF793
:103C3000B1F808B1FDF7B9F9042269460548FFF764
:103C4000A9F808B1FDF7B1F90248FFF74BF80EB03B
:103C500010BD00007408002010B58EB00024079439
:103C6000089409940A940B941C2168460C94FCF760
:103C700008FE2A48284901605321C0E9011444F68E
:103C80001F61C0E903148461FEF71BFF08B1FDF753
:103C90008CF94FF48050079007A92048FEF7ACFF3D
:103CA00008B1FDF782F91D48FFF7E0F808B1FDF70C
:103CB0007CF90B940BA919480C94FEF7B5FE08B1DA
:103CC000FDF773F96020CDE90004029400226946F3
:103CD00012480494FFF75EF808B1FDF766F9042274
:103CE00069460E48FFF756F808B1FDF75EF908225D
:103CF00069460A48FFF74EF808B1FDF756F90C225D
:103D000069460648FFF746F808B1FDF74EF9034843
:103D1000FEF7E8FF0EB010BD00080040BC08002010
:103D20000C4810B50A4901604FF4E13141600021AF
:103D300081600C22C160C0E904128161C161FFF79A
:103D400065FA002803D0BDE81040FDF72EB910BD7C
:103D5000004C00404C0900200C4810B50A49016095
:103D60004FF4E1314160002181600C22C160C0E963
:103D700004128161C161FFF749FA002803D0BDE850
:103D80001040FDF712B910BD00500040900900200E
:103D90000C4810B50A4901604FF4E131416000213F
:103DA00081600C22C160C0E904128161C161FFF72A
:103DB0002DFA002803D0BDE81040FDF7F6B810BD7D
:103DC00000780040D40900200C4810B50A49016071
:103DD0004FF4E1314160002181600C22C160C0E9F3
:103DE00004128161C161FFF711FA002803D0BDE818
:103DF0001040FDF7DAB810BD007C0040180A002022
:103E00000D4810B50B4901600C49416000214FF489
:103E100080628160C0E903120422C0E90521C1610A
:103E2000FFF7F4F9002803D0BDE81040FDF7BDB856
:103E300010BD0000001001405C0A0020A0860100B7
:103E40000C4810B50A4901604FF4E131416000218E
:103E500081600C22C160C0E904128161C161FFF779
:103E6000D5F9002803D0BDE81040FDF79EB810BD7D
:103E700000440040A00A00200C4810B50A49016027
:103E80004FF4E1314160002181600C22C160C0E942
:103E900004128161C161FFF7B9F9002803D0BDE8C0
:103EA0001040FDF782B810BD00140140E40A002064
:103EB000FEE700002DE9F84F8A460446012500F58B
:103EC000FE7200F5E471DF4B7030009500F090FF5A
:103ED00000287DD00027A946DD4E2760DA4DDFF8A7
:103EE0006CC3384606F10408676006F8009000EBE2
:103EF000800208F80090002104EB820202EB8103AB
:103F000093ED7F0A04EBC103D3ED940AB4EEE00A0B
:103F1000F1EE10FA0CDCD3ED950AB4EEE00AF1EE06
:103F200010FA05D3D4F84C32AB4201DC634500D91A
:103F30003754491C0229E1DB002102EB810393ED98
:103F40007F0A04EBC103D3ED940AB4EEE00AF1EE6C
:103F500010FA0CDCD3ED950AB4EEE00AF1EE10FA9B
:103F600005D3D4F84C32AB4201DC634501D908F8E3
:103F70000070491C0529E0DB315C11B12168491C46
:103F8000216018F8001011B16168491C6160401C83
:103F90000428AADB9FEDAF2ADFEDAF3ADFEDAF2AB1
:103FA0009FEDAF3A2068AF4B0028A64A606864D006
:103FB000C0BB0021B0EE630A0846355C8DB3D4ED7A
:103FC000731A61EEA20A60EE830AF0EEE00A00E0E6
:103FD000EBE010EE905A9D4213DA00EB800504EB03
:103FE000850592ED001AD5ED7F0A70EEC10AF0EE5C
:103FF000E00AF4EEC20AF1EE10FA1CD2B0EE602A2A
:1040000018E0F5EEC01A00EB800504EB8505F1EE33
:1040100010FAD5ED7F1A06D2F4EEC01AF1EE10FABE
:1040200006DA08E02AE0F4EEC01AF1EE10FA02D83F
:10403000B0EE610AC1B2401C0428BEDB01EB810076
:1040400004EB800090ED7F0A84ED160A90ED800A63
:10405000002084ED170A94ED930AB1EE400A84ED36
:104060001B0A04EB800191ED160A02EB8001401C53
:1040700081ED000A0228F4DB70E0B8B30021B0EE55
:10408000630A084618F800507DB3D4ED731A61EE48
:10409000A20A60EE830AF0EEE00A10EE905A9D420A
:1040A00013DA00EB800504EB850592ED001AD5EDDF
:1040B0007F0A70EEC10AB0EEE01AB4EEC21AF1EE59
:1040C00010FA1CD2B0EE412A18E0F5EEC01A00EB4F
:1040D000800504EB8505F1EE10FAD5ED7F1A06D2C6
:1040E000F4EEC01AF1EE10FA06DA08E036E0F4EE6B
:1040F000C01AF1EE10FA02D8B0EE610AC1B2401C4B
:104100000428BFDB01EB810004EB800090ED7F0A07
:1041100084ED160A90ED800A84ED170A90ED810A6D
:1041200084ED180A90ED820AB1EE400A84ED190A76
:1041300090ED830A002084ED1A0A94ED930AB1EE03
:10414000400A84ED1B0A04EB800191ED160A02EB94
:104150008001401C81ED000A0528F4DB206800285E
:1041600023D04148D0ED000A9FED400A404A70EE4E
:10417000600AF0EEE00A10EE901A9FED3E1A0AF582
:104180000060914213DD80EDBD1A80EDBE0AC0EDE6
:10419000BF3A9FED390AC0EDC03A80EDC10A9FEDEC
:1041A000370A80EDC20AC0EDC33ABDE8F88F344942
:1041B00091F83020012A1BD1254A91F9423091F91A
:1041C00045500C3ADFED2F0AAB4205D0D2ED021A72
:1041D00071EEA01AC2ED021A11F9473F91F90310CE
:1041E0008B4205D0D2ED021A71EEE00AC2ED020A4E
:1041F000D4ED1B0A70EE810AC0EDBD0A80EDBE0A47
:1042000094ED160ADFED200A80EDBF0A94ED170A3F
:1042100080EDC00A94ED180A30EE600ADFED1B0A4B
:1042200080EDC10A94ED190A30EEC00ADFED180ADC
:1042300030EE600A80EDC20A94ED1A0A80EDC30ADE
:10424000B3E70000241F002066668A41000080BF9B
:10425000700000200000C8420000000066FCBE4163
:1042600066662640000048439C1F00200000204254
:104270009A99993E66666E41C3F5C8BFEC510840F5
:1042800094280020CDCCCC3DC3F5C83FB81E2540B6
:10429000295C0F3FFEE7000070B50446D0F8060029
:1042A00090ED011A784880ED011A0020042317E0F0
:1042B000D4F8061003EB80028D1801EB8001D5EDD8
:1042C000001A71EEC11AC1ED001AD4F80A100A449E
:1042D00001EB8001D2ED001A401CC1ED001A80B242
:1042E0002188491E8142E3DC2188D4F806006FF062
:1042F000070202EB8102024492ED001A6FF0030202
:1043000002EB810131EE000A084480ED000A2188A9
:10431000D4F80A0002EB81010844C0ED000AD4F889
:1043200002002188884202D2401CC4F802001021F9
:1043300004F11A00FCF783FA2188D4F802000B1A62
:1043400098B23BE0D4F80620D4F81A5002EB800271
:1043500000EE905A92ED000A40EE000A10EE905ADC
:10436000C4F81A50D4F81E50D2ED000A00EE105ACC
:1043700030EE800A10EE105AC4F81E50D2ED000A3A
:10438000D4F80A20D4F8225002EB800200EE105A32
:1043900092ED001A401C80B200EE810A10EE105A15
:1043A000C4F82250D2ED000AD4F8262000EE102ADC
:1043B00030EE800A10EE102AC4F826208142C1D8BF
:1043C00000EE101AD4F82200D4F82620B8EE400AE5
:1043D00000EE900AD4F81E0001EE102A60EE800A6A
:1043E00000EE100AD4F81A2040EE410A00EE101A2E
:1043F00001EE102AB8EE400A21EE001A00EE100A73
:10440000002000EE401A80EE810A10EE102AC4F857
:104410000E20C4F8160098B223E0D4F8063000EE5F
:10442000902A03EB800393ED001AD4F8123000EECB
:10443000103AD4F80A3000EE810A03EB8003401CE6
:10444000D3ED000AD4F8163080B230EE600AF0EEF8
:10445000C00A00EE103A30EE800A10EE103AC4F8AE
:1044600016308142D9D800EE101A54F8160FB8EE63
:10447000401A00EE900A80EE810A10EE100A00EE5B
:10448000102A206070BD0000C000002070B50446F6
:10449000002524F8021B8E0025603046FCF783F8C7
:1044A00060603046FCF77FF8A060E56025616068D9
:1044B0003146FCF7E6F9A0683146A41EFCF7E1F9A5
:1044C00004F11A00BDE870401021FCF7B8B970B5CE
:1044D00004462DED028BB0EE608A90F89800F0EE65
:1044E000408A000602D5204604F0A2F804F18C00B0
:1044F000FCF714FD10EE100A18EE101AC4F8900024
:1045000018EE900A08EE101A206108EE900A216059
:1045100038EE680A10EE100AA061D4F8A21009B1B2
:1045200020468847A06900EE100AB5EEC00AF1EEF9
:1045300010FA00EE100A01DCB1EE400AA16C00EEA8
:10454000901AB4EEE00AF1EE10FA7BDDD4F8941084
:1045500004F16203E9B3626800EE102A0A6800EE13
:10456000902A70EE200A00EE100A20EE800A10EE6B
:10457000102A6262A26800EE102A4A6800EE902AB1
:10458000D4F8902070EE200A00EE100A60EE800A47
:1045900000EE102A20EE800A10EE105A2563B4F8BF
:1045A0006050022D4FD900EE900A00EE102A1846F6
:1045B000FFF772FEE06800EE900AD4F8940080687D
:1045C00001EE100A70EE810A20EE200A10EE100AA9
:1045D00050E0FFE7616800EE100A00EE901A20EE4E
:1045E000800A10EE101A00EE100A6162A16800EE57
:1045F000901AD4F8901060EE800A00EE101A20EEA7
:10460000800A10EE102A2263B4F86020022A0AD928
:1046100000EE900A00EE101A1846FFF73DFEE06823
:1046200000EE900AD0E700EE100AE06900EE900A72
:10463000E06870EE600A00EE100A20EE801A00EECC
:10464000101A13E066E0E368896800EE103A00EEA5
:10465000901A30EE201A00EE100AE06900EE900A7F
:1046600030EE600A21EE001A00EE102AC1EE000AB8
:1046700010EE900AE062D4F8A61009B120468847EF
:1046800094F89800400702D5204604F043F894F8C7
:104690009800800602D5204603F05AFE94F8980050
:1046A000800702D5204603F0D3FE94F89800400618
:1046B00002D5204603F0A5FE94F89800C00702D06A
:1046C000204603F021FFA06A00EE100A206B00EEE6
:1046D000900A30EE200A10EE100AA062616A00EE25
:1046E000100A00EE901AE06A70EE800A00EE100ADE
:1046F00030EE800A10EE100A606394F89800C0064D
:1047000002D5204603F04DFF204603F071FF2046FE
:1047100003F0E0FF20696061606BA063E16AE16320
:10472000A169E161216B216200EE100ABDEC028BF0
:1047300070BD000070B504462DED028BB0EE608AAE
:1047400090F89800F0EE408A000602D5204603F06B
:104750006FFF04F18C00FCF7E1FB10EE100A18EE7D
:10476000101AC4F8900018EE900A08EE101A206192
:1047700008EE900A216038EE680A9FED8A1ADFED94
:104780008A0A04F09DF910EE100AA061D4F8A21074
:1047900009B120468847A06900EE100AB5EEC00AAC
:1047A000F1EE10FA00EE100A01DCB1EE400AA16C45
:1047B00000EE901AB4EEE00AF1EE10FA7BDDD4F8C8
:1047C000941004F16203E9B3626800EE102A0A68EB
:1047D00000EE902A70EE200A00EE100A20EE800A09
:1047E00010EE102A6262A26800EE102A4A6800EEFB
:1047F000902AD4F8902070EE200A00EE100A60EEA5
:10480000800A00EE102A20EE800A10EE105A25636E
:10481000B4F86050022D4FD900EE900A00EE102A35
:104820001846FFF739FDE06800EE900AD4F89400CE
:10483000806801EE100A70EE810A20EE200A10EE68
:10484000100A50E0FFE7616800EE100A00EE901ACF
:1048500020EE800A10EE101A00EE100A6162A168C4
:1048600000EE901AD4F8901060EE800A00EE101A54
:1048700020EE800A10EE102A2263B4F86020022A8B
:104880000AD900EE900A00EE101A1846FFF704FD50
:10489000E06800EE900AD0E700EE100AE06900EE52
:1048A000900AE06870EE600A00EE100A20EE801AAE
:1048B00000EE101A13E066E0E368896800EE103A33
:1048C00000EE901A30EE201A00EE100AE06900EEB9
:1048D000900A30EE600A21EE001A00EE102AC1EEB6
:1048E000000A10EE900AE062D4F8A61009B1204642
:1048F000884794F89800400702D5204603F00AFF45
:1049000094F89800800602D5204603F021FD94F823
:104910009800800702D5204603F09AFD94F898008D
:10492000400602D5204603F06CFD94F89800C007BD
:1049300002D0204603F0E8FDA06A00EE100A206BCA
:1049400000EE900A30EE200A10EE100AA062616AB2
:1049500000EE100A00EE901AE06A70EE800A00EE97
:10496000100A30EE800A10EE100A606394F8980086
:10497000C00602D5204603F014FE204603F038FEA0
:10498000204603F0A7FE20696061606BA063E16AC6
:10499000E163A169E161216B216200EE100ABDECC7
:1049A000028B70BDDB0F4940DB0F49C070B5044678
:1049B00011EE100A0025A06410EE900A16466064FD
:1049C00010EE100A206411EE900A2560606012EE6D
:1049D000100AA06012EE900AE06013EE100A256340
:1049E000206513EE900A606514EE100AA06514EEBF
:1049F000900AE065A4F8601004F16200FFF746FD3C
:104A0000C4F88C5084F898600021C4F89910C4F858
:104A10009D1084F8A150656370BD90ED020AB7EE59
:104A2000001A60EE000AB0EE000AF0EE411A40EE05
:104A3000C01AD0ED030A60EEA00A40EEC01AC1ED24
:104A4000001AD0ED010AD0ED021A90ED032A60EEB3
:104A5000800A60EEA10AD0ED001A61EE801A41EEE4
:104A6000C20AC1ED010AD0ED010AD0ED031A90EDA2
:104A7000022A60EE800A60EEA10AD0ED001A61EE13
:104A8000801A41EE820AC1ED020AD0ED010AD0ED92
:104A9000021A90ED032A60EE800A60EEA10AD0EDC2
:104AA000001A61EE801A41EE820AF0EE411AC1ED61
:104AB000030AD0ED010A60EEA00A40EEC01AD0ED64
:104AC000030A60EEA00A40EEC01AC1ED041AD0ED50
:104AD000020AD0ED031A90ED012A60EE800A60EE22
:104AE000A10AD0ED001A61EE801A41EEC20AC1EDB2
:104AF000050AD0ED010AD0ED031A90ED022A60EE0E
:104B0000800A60EEA10AD0ED001A61EE801A41EE33
:104B1000C20AC1ED060AD0ED020AD0ED031A90EDEB
:104B2000012A60EE800A60EEA10AD0ED001A61EE63
:104B3000801A41EE820AC1ED070AD0ED010A60EE4B
:104B4000A00A00EEC01AD0ED020A60EEA00A00EE44
:104B5000C01A81ED081A704730B5144C23685D699E
:104B600045F040055D612368DC6844F01004DC60BA
:104B70000F4C23681D6825F001051D6023681D6822
:104B8000ED07F7D125680B4BAB602368D860206830
:104B90000161206842602068016841F48021016061
:104BA0002068016841F00101016030BD5C0A00200D
:104BB000280B00200410014070B50D462DED028B2E
:104BC0000446D0ED000A90ED030A01F0E1FBB0EEDF
:104BD000408A94ED070A60EE000A94ED080A40EE60
:104BE000000AB0EE600A01F03CFDF0EE400A94EDE0
:104BF000060AB1EE400A01F0CBFBF0EE408AD4ED9C
:104C0000080A94ED070A01F0C3FB85ED020A85EC62
:104C1000028ABDEC028B70BD2DE9F041B7EE002A8F
:104C20002DED028BB6EE008A90ED000A90ED041A8D
:104C3000D0ED080A0E4670EE011A044671EEA01A75
:104C4000F5EEC01AF1EE10FA37DD31EE820A10EE01
:104C5000100A07F095F941EC100B01F0C5FC51EC7E
:104C6000100B05F06BFF00EE900A20EE880A86ED2F
:104C7000000A88EE200AD4ED070A94ED051A70EEBA
:104C8000C10A60EE800AC6ED010AD4ED020A94ED75
:104C9000061A70EEC10A60EE800AC6ED020AD4ED73
:104CA000030A94ED011A70EEC10A20EE800A86ED27
:104CB000030ABDEC028BBDE8F081B4EEC10AF1EE4F
:104CC00010FA06D2B4EEE01AF1EE10FA06D301257E
:104CD00007E0B4EEE00AF1EE10FA01D2022500E09E
:104CE0000025681C032190FBF1F201FB1208A81CAF
:104CF00090FBF1F201FB120704EB051090ED000AA6
:104D000004EB0810D0ED000A04EB071030EE600A47
:104D1000D0ED000A30EE600A30EE020A10EE100A02
:104D200007F02EF941EC100B01F05EFC51EC100B7A
:104D300005F004FF00EE900A06EB850007EB470143
:104D400020EE880A80ED010A88EE200A01EB0800B7
:104D500004EB8000D0ED000A08EB4800C21904EB18
:104D60008202284492ED001A04EB800005EB450214
:104D700070EEC10A60EE800AC6ED000AD0ED000AAE
:104D800002EB080004EB800090ED001A06EB8800AF
:104D900070EE810A60EE800AC0ED010A481904EB4A
:104DA0008000D0ED000AD01904EB800090ED001ACD
:104DB00006EB870070EE810A20EE800A80ED010A82
:104DC00077E70000B5EEC00AF1EE10FA02DDB7EEAB
:104DD000000A7047B5EEC00AF1EE10FA02D2BFEE3B
:104DE000000A70479FED010A7047000000000000B4
:104DF0002DE9F04F15462DED068BA3B00F46044666
:104E00001E464FF0020A2422FE496846DDF8C8809B
:104E1000FBF7DBFC24226946D4F88400FBF7D5FCC1
:104E20009FEDF98ADFF8E49304F1880004F1940B14
:104E30001F90B8F1000F5CD007F12400D4F8901057
:104E4000FFF7EBFD002109F12408002001EB410CE4
:104E50000CEB0002D4F89030401C03EB820308EB0B
:104E6000820293ED000A032882ED000AF0DB491C60
:104E70000329EADB5A4604F17C001F99FBF7F4FA98
:104E800084F83C000021C846002001EB410C0CEBEB
:104E90000002D4F89C30401C03EB820308EB820232
:104EA00093ED000A032882ED000AF0DB491C032978
:104EB000EADBD6496031A1F13C00FFF77DFED34922
:104EC000D2485431FFF778FED048603090ED000AA8
:104ED00020EE080A87ED060A90ED010A20EE080A86
:104EE00087ED070A90ED020A20EE080A87ED080A0E
:104EF00042E097ED060AC548C0EE080A5430C0EDFE
:104F0000000A97ED070AC0EE080AC0ED010A97ED06
:104F1000080AC0EE080AC0ED020AD4F89C10FCF79B
:104F200046F80021C846002001EB410C0CEB0002C2
:104F3000D4F89C30401C03EB820308EB820293ED13
:104F4000000A032882ED000AF0DB491C0329EADB92
:104F500009A9AE48FFF760FE9DED090A87ED090A31
:104F60009DED0A0A87ED0A0A9DED0B0A87ED0B0AF3
:104F70009DED0C0A87ED0C0ADFF89092002009F1F4
:104F8000900996ED000A09EBC00100EB400381EDAA
:104F9000000A96ED010A401C81ED010A9B4996ED3D
:104FA000020A783101EB8301022881ED000A96EDB7
:104FB000030A81ED010A96ED040A81ED020AE0DBA5
:104FC0009FED939AD4F8C00080ED009AD4F8C00009
:104FD00080ED019A9FED8F0AD4F8C00004F1C4025D
:104FE00004F1B80180ED020A5846FBF73DFA84F857
:104FF0003C00864900206C31D4F8CC2002EB8002C2
:1050000092ED000A01EB8002401C82ED000A0328A9
:10501000F2DBDFED811AD7ED000A9FED800A20EE6A
:10502000802A9FED7F1ADFED7F0ADFF8FC8142EED8
:10503000410AC8ED050A97ED012A22EE000A9FED0C
:105040007B2A20EE020A88ED060A97ED022ADFEDA0
:10505000782A6E4822EE222A483022EE012A82EE79
:10506000211A88ED071AC0ED000A80ED010A80EDD3
:10507000021A85ED141A01F08BF988ED000A98EDFB
:10508000050AD8ED060A08F1040020EE000A00EE39
:10509000A00A02F0ADF998ED050AD4ED0C0AF0EE85
:1050A000009A20EE001A98ED060A00EE001A94ED20
:1050B000060A00EE001A00EEE01AD8ED010A60EED2
:1050C000A90A20EE800A81EE00AA88ED02AAB0EEBD
:1050D000CA0A10EE100AB0F17E5F2FDA4746D8F800
:1050E000000006F04DFF41EC180B1AEE100A06F016
:1050F00047FF41EC100B00F09FFF53EC182B51ECD5
:10510000100B05F07DFE05F019FDC9F80000CB4637
:10511000B86806F035FF41EC100B00F08DFFB0EEE3
:10512000408AF0EE608A386806F02AFF53EC182BAC
:1051300006F024FC05F002FDCBF8080098ED050A06
:1051400098ED011A60EE000A98ED060A21EE291A80
:1051500040EE000A94ED060A40EE400A94ED0C0A77
:1051600040EE000A21EE000A80EE808A88ED038A74
:10517000B0EEC80A10EE100AB0F17E5F41DA4F4679
:10518000D9F8000006F0FCFE41EC1A0B18EE100AEC
:1051900006F0F6FE41EC100B00F04EFFD8F80000D0
:1051A000B0EE408AF0EE608A834606F0E9FE53ECEA
:1051B000182B06F0E3FB53EC1A2B06F0DFFB05F08F
:1051C000BDFC7860B86806F0DBFE41EC1A0B58466F
:1051D00006F0D6FE41EC180BD8F80C0006F0D0FE15
:1051E00041EC100B00F028FF53EC182B51EC100B86
:1051F00005F006FE53EC1A2B06F0C0FB05F09EFCF2
:10520000F86017E04CCC0008E12E654228320020FF
:1052100000000000D7E30243B43F0A4266FCBE41EF
:1052200066662640F6381644CC000020666626C026
:1052300066FCBEC104F1AC0000272290F7EE009A94
:105240000C38DFEDAB8A2190AA48DFF8AC8200EB86
:10525000C700814690ED000AD0ED010AB1EE400A88
:1052600030EE600A88ED040A01F0BAF954F8A80F8C
:1052700080ED000A54F86C0980ED019A98ED040A5B
:1052800001F0B0F9E06EB1EE400A80ED020AE06E86
:1052900080ED039AE06EC0ED049AE06E80ED059A11
:1052A00098ED040A01F09EF9E06E80ED060AE06ECA
:1052B00080ED079A98ED040A01F092F9E06E80ED16
:1052C000080ADDE921021F99FBF7CEF804F86C0B00
:1052D000002054F80C2B0DAB54F8B4190DF15808FC
:1052E00002EB800C9CED000A03EB800C8CED000AB5
:1052F00001EB800C9CED000A08EB800C401C8CED4F
:10530000000A0928ECDB91ED020AD1ED050A20A87C
:1053100020EE000A00EEA00A02F06AF87749209811
:1053200088424FF0000034DB76E000EE108AB8EEE1
:10533000C00ADFED730A6F4808EB480120EE200A2F
:10534000183800EB810B8BED010A96ED020A8BED0C
:10535000000A96ED020A01F043F9B0EE408A96ED9C
:10536000020A01F03FF9D4F8B400D0ED000A90ED44
:10537000011A60EE601A60EE880A48EE411A40EEAB
:10538000410AB0EE610A01F003F88BED020A08F160
:10539000010080465045C8DB41E054F8B40F4FF09F
:1053A000FF319DED201AD0ED080A01EB480000EE18
:1053B000100AB8EEC00A20EE010A00F0E9FF4D48DD
:1053C00008EB4801183800EB810B8BED010A01F066
:1053D00009F92068B0EE408A90ED020A90ED051AB6
:1053E000C0EE080A81EE080A00F0D2FF8BED000A39
:1053F00054F8B40990ED060AB1EE400AC0EE080A6E
:1054000090ED070AB1EE401A81EE080A00F0C0FFE5
:105410008BED020A08F1010080465045BDDB0020FB
:1054200059E099ED000A374A10EE101A914202DD58
:1054300030EE680A06E010EE101A334B994201D99B
:1054400030EE280A00EB470101EB810105EB8101F9
:1054500081ED000A99ED010A10EE101A914202DD69
:1054600030EE680A06E0284BD9F80010994201D9BD
:1054700030EE280A00EB470101EB810105EB8101C9
:10548000934681ED010A1B4B002100EB4702183BBC
:1054900002EB820200EB400C05EB820203EB8C0C6A
:1054A0000CEB810393ED000A10EE103A5B4502DD30
:1054B00030EE680A07E010EE103ADFF84C80434502
:1054C00001D930EE280A02EB8103491C83ED020A60
:1054D0000329E5DB401C5045A3DB7F1C022FFFF6B0
:1054E000B3AE23B00120BDEC068BBDE8F08F000009
:1054F000DB0FC940B8320020CC000020ACC52737F4
:10550000DB0F4940DB0F4940DB0F49C010B5FCF70A
:1055100065FE05F02FF9012803D0BDE8104004F026
:1055200025BE10BD30B593B030216846FBF7A9F910
:1055300014210CA8FBF7A5F91D480025016841F0CE
:1055400080510160006800F0805011901948016896
:1055500041F4404101600068022400F44040119091
:1055600001200090000401908001CDE90640062052
:105570000890A820CDE9090404200B906846FCF7A8
:10558000FDFF08B172B6FEE70CA90F2081E83100DB
:105590004FF4A0500F904FF48050109005210CA8AC
:1055A000FCF7D0FE002801D072B6FEE713B030BD84
:1055B00040380240007000400248016841F4700128
:1055C0000160704788ED00E010B504462DED068BB4
:1055D000D0ED070A90ED001A70EEC00A90ED020AB5
:1055E00020EE010A80ED010A90ED031A21EE001A67
:1055F00021EE008A90ED061A60EE018A30EEA89A3C
:10560000B0EEC90A10EE100A06F0BAFC9FED3F1B7F
:1056100053EC112B05F0E6FE41EC1A0B18EE100AC4
:1056200006F0AEFC53EC1A2B05F0EAFB41EC1A0B2A
:1056300018EE100A06F0A4FC53EC1A2B05F0D2FE6B
:1056400041EC100B00F0D0FF51EC100B05F076FA96
:1056500000EE900AB0EE490AFFF7B4FB70EEC80AFC
:10566000B0EE682A20EE200AF6EE000A00EE202AAC
:10567000F0EE480AB0EE490A03F032F978EE890AF2
:1056800060EE202AF0EE480AB0EE490A03F028F94D
:10569000B7EE003AD4ED030A33EE400A42EE002A98
:1056A000B0EE622A82EE080A60EEC02AF0EE480AE6
:1056B000B0EE420A03F014F962EE802AB0EE420A1C
:1056C000FFF780FBD4ED030A60EE203AF0EE480AC3
:1056D000B0EE420A03F004F933EE400A43EEC02A6A
:1056E000C4ED042AC4ED052A94ED060AD4ED000A9F
:1056F00000EEA20A84ED060A94ED071A00EE801A65
:1057000084ED071ABDEC068B10BD00000000000000
:105710000000204010B504462DED068B90ED071AD1
:105720005F4971EE400AF0EEE01A11EE900A8842ED
:1057300012DDDFED5C0AB5EEC00AF1EE10FA02D21E
:1057400030EE200A06E0B5EEC00AF1EE10FA01DDF7
:1057500030EE600A71EE400A94ED020A94ED001AF0
:1057600020EE010A84ED010A94ED031A21EE001ADD
:1057700021EE008A94ED061A60EE018A30EEA89AB6
:10578000B0EEC90A10EE100A06F0FAFB9FED461BB8
:1057900053EC112B05F026FE41EC1A0B18EE100A03
:1057A00006F0EEFB53EC1A2B05F02AFB41EC1A0B2A
:1057B00018EE100A06F0E4FB53EC1A2B05F012FE6B
:1057C00041EC100B00F010FF51EC100B05F0B6F996
:1057D00000EE900AB0EE490AFFF7F4FA70EEC80A3C
:1057E000B0EE682A20EE200AF6EE000A00EE202A2B
:1057F000F0EE480AB0EE490A03F072F878EE890A32
:1058000060EE202AF0EE480AB0EE490A03F068F88C
:10581000B7EE003AD4ED030A33EE400A42EE002A16
:10582000B0EE622A82EE080A60EEC02AF0EE480A64
:10583000B0EE420A03F054F862EE802AB0EE420A5B
:10584000FFF7C0FAD4ED030A60EE203AF0EE480A02
:10585000B0EE420A03F044F833EE400A43EEC02AA9
:10586000C4ED042AC4ED052AD4ED060A94ED001A0D
:1058700041EE220AC4ED060A94ED070A01EE200A61
:105880009FED0B1ADFED0B0A84ED070A03F018F900
:1058900084ED070A94ED060ABDEC068B10BD0000EE
:1058A000DB0F4940DB0FC940000000000000204032
:1058B000DB0F4940DB0F49C080ED030A80ED001A81
:1058C0009FED050AC0ED020A80ED050A80ED060A8B
:1058D000C0ED071A704700000000000080ED070AC5
:1058E00070470000F0B402682C4B2D4C2D4D2E4E0D
:1058F000DFF8B8C098420AD0B0F1804F07D0A0427C
:1059000005D0A84203D0B04201D0604503D122F0B7
:1059100070024F683A43984228D0B0F1804F25D0AA
:10592000A04223D0A84221D0B0421FD060451DD054
:10593000A0F18044B4F5A03418D0A0F18044B4F5AF
:10594000A23413D0A0F18044B4F5A4340ED0A0F159
:105950008044B4F5C05409D0A0F18044B4F5E054BB
:1059600004D0A0F18044B4F5005403D122F4407275
:10597000CC6822434C6922F08002224302608A688C
:10598000C2620A688262984201D0604501D1096909
:10599000016301214161F0BC70470000000001403B
:1059A0000004004000080040000C004000040140DA
:1059B00001F01F0101238B40D0F820C02CEA030323
:1059C0000362036A02FA01F1194301627047D0F8D9
:1059D00008C02CF47F4C42EA0322114341EA0C0137
:1059E00081607047826822F07002114341F0070124
:1059F0008160704770B4026A22F001020262036A99
:105A00004268D0F818C02CF0700C2CF0030C0C6815
:105A100044EA0C0C23F002038C6823430F4C104D16
:105A2000A04201D0A84205D123F00803CE68334339
:105A300023F00403A04201D0A84207D122F48072CF
:105A400022F400724C6922438C6922434260C0F800
:105A500018C049684163036270BC70470000014090
:105A60000004014070B4026A22F010020262036A6C
:105A70004268D0F818C02CF4E04C2CF4407C0C6840
:105A80004CEA042C23F020038C6843EA0413114CE5
:105A9000114DA04201D0A84206D123F08003CE6868
:105AA00043EA061323F04003A04201D0A84209D1E3
:105AB00022F4806222F400624C6942EA84028C691A
:105AC00042EA84024260C0F818C0496881630362F8
:105AD00070BC7047000001400004014070B4026ACD
