:020000040800F2
:10000000287C002031030008D9580008CD51000891
:10001000D55800088112000839940008000000003B
:100020000000000000000000000000007102000855
:100030002522000800000000CD020008218B0008E6
:100040004B0300084B0300084B0300084B03000858
:100050004B0300084B030008272200084B0300084D
:100060004B0300084B030008312200084B03000833
:10007000191700084B0300084B0300084B03000846
:100080004B0300084B0300084B0300084B03000818
:10009000851200084B0300084B0300083B220008B0
:1000A0004B0300084B0300084B0300084B030008F8
:1000B0004B0300084B030008FD8B00084B030008AE
:1000C0004B0300084B0300084B0300084B030008D8
:1000D0004B030008299400084B0300084B03000859
:1000E0004B0300084B0300084B0300084B030008B8
:1000F0004B0300084B0300084B0300084B030008A8
:100100004B0300084B0300084B0300084B03000897
:100110004B0300084B0300084B0300084B03000887
:100120004B0300082917000839170008B91F0008F9
:100130004B0300084B0300084B0300084B03000867
:10014000951200084B0300084B0300084B030008FE
:10015000C91F0008D91F0008E91F00084B03000849
:100160004B0300084B0300084B0300084B03000837
:100170004B0300084B0300084B030008000000007D
:100180004B0300084B03000800F002F800F060F891
:100190000AA090E8000C82448344AAF10107DA45E2
:1001A00001D100F055F8AFF2090EBAE80F0013F0D4
:1001B000010F18BFFB1A43F001031847C0D6000017
:1001C000E0D600000A444FF0000C10F8013B13F099
:1001D000070408BF10F8014B1D1108BF10F8015BA0
:1001E000641E05D010F8016B641E01F8016BF9D193
:1001F00013F0080F1EBF10F8014BAD1C0C1B09D1EA
:100200006D1E58BF01F801CBFAD505E014F8016B5B
:1002100001F8016B6D1EF9D59142D6D370470000ED
:100220000023002400250026103A28BF78C1FBD8FF
:10023000520728BF30C148BF0B6070471FB50DF093
:100240001EF99DE8030000F067FA1FBD10B510BD50
:1002500000F0CEFA1146FFF7F1FF0AF05FFB00F065
:10026000ECFA03B4FFF7F2FF03BC00F01DFB000043
:100270002C4B19680868B0E8F04F80F30988BFF389
:100280006F8F4FF0000080F311887047000000006E
:1002900008480068006880F308884FF0000080F389
:1002A000148862B661B6BFF34F8FBFF36F8F00DF64
:1002B00000BF00BF08ED00E0DFF80C00016841F46A
:1002C00070010160704700BF88ED00E0EFF3098026
:1002D000BFF36F8F134B1A681EF0100F08BF20ED8D
:1002E000108A20E9F04F106009B44FF0500080F3FD
:1002F0001188BFF34F8FBFF36F8F0BF06BFF4FF081
:10030000000080F3118809BC19680868B0E8F04F54
:100310001EF0100F08BFB0EC108A80F30988BFF3FD
:100320006F8F704730000020EFF3058070470000AA
:100330000948804709480047FEE7FEE7FEE7FEE779
:10034000FEE7FEE7FEE7FEE7FEE7FEE704480549B5
:10035000054A064B70470000E98B00088901000838
:1003600028740020287C002028780020287800208D
:1003700070B5064600F0B4F9056806F10B0020F0F0
:100380000704B4429CBF002070BD2B466A68BAB116
:100390001068A04210D304F1080188423CBF5068A5
:1003A000586007D35168101941601168091B01603A
:1003B00058601460101D70BD13465268002AE7D1C2
:1003C0002146284600F094F90028DED170BD70B5B2
:1003D0000446051F00F084F90068002C14BF44682F
:1003E00070BD002C18BFAC423CBF20466468F8D3F7
:1003F00001680A18AA4218BF456003D12A68054659
:100400001144016028684119A1421CBF6C6070BD95
:100410006168696021680844286070BD53EA020C75
:1004200000F069802DE9F04B4FF00006002B1FBF54
:10043000B3FA83F503FA05F424FA05F65E4012BF19
:100440001643B2FA82F502FA05F4C5F120051EBF83
:1004500022FA05FC44EA0C04203556EA044C4FEA23
:10046000144418BF641C4FF000084FF0000990427C
:1004700071EB030C39D3002919BFB1FA81F701FAE6
:1004800007F6B0FA80F700FA07F6C7F120071EBF9B
:1004900020FA07FC46EA0C062037B6FBF4FCA7EB73
:1004A0000507103F07F01F0BCBF120060CFA0BFBE2
:1004B0002CFA06F644BFB3460026202FA4BF5E46A2
:1004C0004FF0000B5BEA060C08BF4FF0010B19EB75
:1004D0000B09ABFB027C48EB0608C01B06FB02CCF9
:1004E0000BFB03CC71EB0C01C1E70B460246414606
:1004F0004846BDE8F08B13B54FF000004FF0000107
:10050000AFF30080BDE81C40704710B5431C02E00B
:1005100010F8011B71B18107FAD14FF0013202C806
:100520008C1A8C4314EAC211F9D0C01A0A0603D0FF
:10053000C01E10BDC01A10BD0A0401D0801E10BD1F
:100540000902FCD0401E10BD032A40F2308010F09A
:10055000030C00F0158011F8013BBCF1020F62445E
:1005600098BF11F801CB00F8013B38BF11F8013BEF
:10057000A2F1040298BF00F801CB38BF00F8013B9C
:1005800011F0030300F02580083AC0F0088051F80C
:10059000043B083A51F804CBA0E80810F5E7121D17
:1005A0005CBF51F8043B40F8043BAFF30080D20736
:1005B00024BF11F8013B11F801CB48BF11F8012B02
:1005C00024BF00F8013B00F801CB48BF00F8012B25
:1005D000704710B5203AC0F00B80B1E81850203AAF
:1005E000A0E81850B1E81850A0E81850BFF4F5AFD3
:1005F0005FEA027C24BFB1E81850A0E8185044BF5D
:1006000018C918C0BDE810405FEA827C24BF51F8C9
:10061000043B40F8043B08BF7047D20728BF31F8BD
:10062000023B48BF11F8012B28BF20F8023B48BF0E
:1006300000F8012B704702F0FF0343EA032242EA6D
:10064000024200F002B84FF000020429C0F012800C
:1006500010F0030C00F01B80CCF1040CBCF1020F75
:1006600018BF00F8012BA8BF20F8022BA1EB0C014A
:1006700000F00DB85FEAC17C24BF00F8012B00F840
:10068000012B48BF00F8012B70474FF0000200B566
:10069000134694469646203922BFA0E80C50A0E8A5
:1006A0000C50B1F12001BFF4F7AF090728BFA0E853
:1006B0000C5048BF0CC05DF804EB890028BF40F81F
:1006C000042B08BF704748BF20F8022B11F0804F61
:1006D00018BF00F8012B7047704770477047000043
:1006E00000487047CC7300207047704770477047D0
:1006F00038B504460A4600206946AFF3008000285A
:1007000008BF38BD02460099204600F04FF801208E
:1007100038BD012000F064B8F8B5AFF3008005469D
:1007200000200C46102000BF0646A819A0420DD993
:10073000324669460020AFF30080070008BF00F092
:100740004FF80098A04218BF0546C419FFF7C8FF2C
:1007500005600746F01D20F007004619284600F006
:100760000AF8B44208BFF8BDA21B31463868BDE89C
:10077000F84000F01BB800210160C0E9011070478B
:100780001020704710B500F00DF8006810BD10B5CE
:10079000044600F007F8046010BD000000487047F0
:1007A000C473002000487047C473002003464068AB
:1007B0008C46002818BF88423CBF03464068F8D3E7
:1007C00018681844884207D00CF1030020F0070095
:1007D000001D411A521A0146081D0A60FFF7F7BDB5
:1007E00010B500F039F8BDE8104000F02FB87047A0
:1007F0007546FFF7D3FFAE4605006946534620F025
:100800000700854618B020B5FFF7A0FDBDE82040E1
:100810004FF000064FF000074FF000084FF0000BBC
:1008200021F00701AC46ACE8C009ACE8C009ACE86F
:10083000C009ACE8C0098D46704710B50446AFF357
:1008400000802046BDE81040FFF70BBD002801D016
:1008500000F02AB87047000010B5012805D000212B
:1008600003A000F027F8012010BD09A1F8E700005F
:1008700053494752544D454D3A204F7574206F6689
:100880002068656170206D656D6F727900000000F1
:100890003A2048656170206D656D6F727920636FD5
:1008A000727275707465640001491820ABBEFEE772
:1008B0002600020070B505460C460A2000E06D1CBB
:1008C00000F011F835B128780028F8D102E0641C56
:1008D00000F009F814B120780028F8D1BDE8704084
:1008E0000A20AFF3008008B569468DF800000320A8
:1008F000ABBE08BD43604280018070472DE9F04FD8
:1009000091B047880B889F4240F0AF8006881388DB
:100910009E4240F0AA804D8853889D4240F0A580B9
:1009200052684FF0000949684FEA85080596049718
:10093000039502924268A9EB97000191079027F076
:10094000030002EB80000C920990B8080B906843FA
:1009500001EB00102946009007F003000A90404286
:10096000069000BF029800EB890ADDE9000BCDF884
:10097000209010900B980F91002847D0CDF838A008
:10098000CDF834B0D946DDF81CA0DDF830B0002435
:100990009BE8C100D9F80010DBF80C500CF020FDEA
:1009A000014620460CF013FD59F808100446304665
:1009B0000CF016FD014620460CF009FD09EB080677
:1009C0000446384656F808100CF00AFD0146204649
:1009D0000CF0FDFC46440446284656F808100CF07E
:1009E000FFFC014620460CF0F2FC044606EB080032
:1009F0000BF1100B1AF1010A00EB0809C8D1109D88
:100A0000DDE90896DDE90DBA03E000BF0C9E002485
:100A10005D460A9868B1069F56F8040B29680CF0E9
:100A2000DFFC014620460CF0D2FC04464544013769
:100A3000F2D110980F994AF8044B0BF1040B0430D3
:100A40000139109096D10498099901EB8001099120
:100A50000C9901EB800105980C91039901388944A8
:100A600005907FF47FAF002000E0FD2040B211B080
:100A7000BDE8F08F10B52DED108B0446F0EE408AE6
:100A8000B0EE609AF0EE419AB0EE61BAB0EE42AAD2
:100A9000F0EE62AAB5EEC0BAF1EE10FA09D1B5EEE9
:100AA000C0AAF1EE10FA04D1F5EEC0AAF1EE10FAE8
:100AB0007DD06BEE0B0A4AEE0A0A4AEEAA0AB0EEA5
:100AC000600A0AF051FFB0EE408AB0EE480A2BEE01
:100AD000000AB0EE40BAB0EE480A2AEE000AB0EEC4
:100AE00040AAB0EE480A2AEE800AF0EE40AA94ED41
:100AF000010AD4ED030A20EE200AD4ED000A94ED99
:100B0000021AB0EE40DA00EEC1DA94ED000AD4ED3C
:100B1000010A20EE200AD4ED020A94ED031AF0EE49
:100B200040DA40EE81DAD4ED000A94ED001AB6EE18
:100B3000000A10EE810AD4ED030A94ED031AB0EE18
:100B400040EA00EE81EA2AEE0E0AF0EE40EA4AEEB2
:100B5000EDEA2AEE8D0AB0EE40FA0BEE4EFA2BEEDD
:100B60002D0AF0EE40FA4AEE4DFA7C4890ED000A6C
:100B7000B5EEC00AF1EE10FA40DD90ED000A60EE2D
:100B80002E0A774890ED000A9FED761A00EE810A52
:100B900080ED000A714890ED000A60EE0F0A72487D
:100BA00090ED000A9FED6F1A00EE810A00E04DE023
:100BB00080ED000A694890ED000A60EE2F0A6B484C
:100BC00090ED000A9FED671A00EE810A80ED000AA1
:100BD000634890ED000A38EE800AF0EE408A6248E1
:100BE00090ED000A39EE000AB0EE409A5F4890EDB1
:100BF000000A39EE800AF0EE409A0EE09FED5C0AA2
:100C0000574880ED000A9FED5A0A574880ED000AC8
:100C10009FED570A554880ED000A5648D0ED000A6E
:100C2000B0EE680A00EEAE0AF0EE408AD0ED000A9F
:100C3000B0EE490A00EE8F0AB0EE409AD0ED000AFD
:100C4000B0EE690A00EEAF0AF0EE409A9FED4A0A54
:100C500028EE800AF0EE408A9FED470A29EE000A4E
:100C6000B0EE409A9FED440A29EE800AF0EE409AD9
:100C7000D4ED00BA94ED01CAD4ED02CAB1EE4C0A2B
:100C800020EE280A0CEEC90AD4ED030A00EEE90AA8
:100C9000D4ED000A30EE200A84ED000A2BEEA80AFB
:100CA0000CEEA90AD4ED030A00EEC90AD4ED010A3C
:100CB00030EE200A84ED010A2BEE890A0CEE690A57
:100CC000D4ED030A00EEA80AD4ED020A30EE200AA1
:100CD00084ED020A2BEEA90A0CEE090A0CEEE80AD2
:100CE000D4ED030A30EE200A84ED030AD4ED000AA5
:100CF00060EEA00A94ED011AD4ED011A41EE210A2A
:100D000094ED021AD4ED021A41EE210A94ED031A71
:100D1000D4ED031A41EE210AB0EE600A0AF024FE77
:100D2000B0EE408A94ED000A20EE080A84ED000A35
:100D300094ED010A20EE080A84ED010A94ED020AFE
:100D400020EE080A84ED020A94ED030A20EE080A58
:100D500084ED030ABDEC108B10BD0000B000002034
:100D6000B40000206F12833AB8000020BC000020BD
:100D700000000000AC0000206F12033A2DE9F041A2
:100D800004460D4616461F4694ED001A21EE011A40
:100D9000D4ED011A94ED012A01EE821AF7EE001A41
:100DA000B0EE002A52EE011AF0EE610A94ED001A3C
:100DB000D4ED031A21EE211AD4ED011A94ED022A82
:100DC00001EE821AF0EE001A21EE211AB0EE410A6D
:100DD00008F0FAFB85ED000AD4ED010A94ED031A40
:100DE00060EE810A94ED001AD4ED021A41EE610A18
:100DF000B8EE001A60EE810AB0EE600A08F04EFB11
:100E000086ED000A94ED001A21EE011AD4ED031AC2
:100E100094ED032A01EE821AF7EE001AB0EE002AD2
:100E200052EE011AF0EE610A94ED001AD4ED011AA7
:100E300021EE211AD4ED021A94ED032A01EE821A52
:100E4000F0EE001A21EE211AB0EE410A08F0BCFBC8
:100E500087ED000ABDE8F081B7EE000A80ED000AD8
:100E60009FED060A80ED010A9FED040A80ED020A5B
:100E70009FED020A80ED030A7047000000000000A9
:100E800070B506460C46154695ED023AF0EE432A3B
:100E900095ED013AB0EE432A95ED003AF0EE431A93
:100EA00094ED023AB0EE431A94ED013AF0EE430AA3
:100EB00094ED003AB0EE430A3046FFF7DBFD70BD1B
:100EC00010B501221021024802F0E2FA10BD000024
:100ED0000000024010B500221021024802F0D8FAAA
:100EE00010BD0000000002407047000010B5012254
:100EF0001146024802F0CCFA10BD00000004024086
:100F000010B500220121024802F0C2FA10BD000013
:100F10000004024010B543781B021BB2047823433F
:100F200000EE103AB8EEC01A1C4BD3ED001A21EEB9
:100F3000211A81ED001AC3781B021BB28478234367
:100F400000EE103AB8EEC01A144BD3ED001A21EEA1
:100F5000211A81ED011A43791B021BB20479234344
:100F600000EE103AB8EEC01A0C4BD3ED001A21EE89
:100F7000211A81ED021A037A1B04C47943EA04237F
:100F80008479234300EE903AB8EE601ADFED041A3C
:100F900021EE211A82ED001A10BD0000840100200C
:100FA00000401C42704710B50446204609F042FE3E
:100FB00010BD10B50446204609F064F810BD0000CD
:100FC0004278120212B203781A4300EE102AF8EEA9
:100FD000C00A144A92ED001A60EE810AC1ED000ABF
:100FE000C278120212B283781A4300EE102AF8EE89
:100FF000C00A0C4A92ED001A60EE810AC1ED010AA6
:101000004279120212B203791A4300EE102AF8EE66
:10101000C00A044A92ED001A60EE810AC1ED020A8C
:10102000704700008801002010B50024FFF75CFF26
:10103000FFF7B8FF08F080FD10B144F0800402E033
:1010400008F0E0FC044308F06FFF10B144F04004E6
:1010500002E008F0EFFE0443204610BD2DE9FC41FC
:1010600005460E461746002000900190FFF732FF1C
:10107000922000F0D1F806226946122000F0ACF868
:10108000FFF71EFF9DF80100000200B29DF800105E
:1010900040EA010400EE104AB8EEC00A4C48D0ED18
:1010A000000A20EE200A86ED000A9DF803000002E7
:1010B00000B29DF8021040EA010400EE104AB8EEBA
:1010C000C00A4348D0ED000A20EE200A86ED010A4E
:1010D0009DF80500000200B29DF8041040EA0104EA
:1010E00000EE104AB8EEC00A3948D0ED000A20EEF2
:1010F000200A86ED020AFFF703FF08226946002056
:1011000000F06AF8FFF7F2FE9DF800000F2838D1D2
:101110009DF80300000200B29DF8021040EA0104AD
:1011200000EE104AB8EEC00A2A48D0ED000A20EEC0
:10113000200A85ED000A9DF80500000200B29DF826
:10114000041040EA010400EE104AB8EEC00A21483B
:10115000D0ED000A20EE200A85ED010A9DF8070077
:10116000000200B29DF8061040EA010400EE104AA9
:10117000B8EEC00A1748D0ED000A20EE200A85ED2F
:10118000020AFFF7A7FEA22000F046F802226946F5
:10119000222000F021F8FFF793FE9DF80000C00028
:1011A0009DF8011040EA6114B4F5806F02DBA4F5EC
:1011B000006004B200EE104AF8EEC00AB4EE001A65
:1011C000B3EE070A00EE810A87ED000ABDE8FC8154
:1011D000840100208801002070B506460C461546A3
:1011E00046F0800000F018F806E0552000F014F8F2
:1011F0002070641C681EC5B2002DF6D170BD70B59C
:1012000004460D4644F0800000F006F8552000F03A
:1012100003F8287070BD000001B582B04FF47A70F9
:10122000012301AA02A90090024802F0B7FE9DF82E
:1012300004000EBDF008002010B502461378DB0054
:10124000547843EA6410B0F5806F02DBA0F50063C8
:1012500018B200EE100AF8EEC00AB4EE001AB3EEAF
:10126000070A00EE810A81ED000A10BD70B505463F
:101270000C462846FFF7D0FF2046FFF7CDFF70BD94
:1012800000BFFEE710B5024801F0F0F910BD000004
:10129000A008002010B5024801F0E8F910BD0000D8
:1012A000C80800202DE9F0412DED068B82B0B0EE8C
:1012B00040AAB0EE608AF0EE418AB0EE619AF0EE9C
:1012C000429A10209FED2D1ADFED2D0AB0EE4A0A4A
:1012D00008F000FF84B20C20B3EE041AFBEE040AFF
:1012E000B0EE480A08F0F6FE85B20C209FED251AF4
:1012F000DFED250AB0EE680A08F0ECFE86B20C209D
:10130000B1EE041ADFED200AB0EE490A08F0E2FE61
:1013100087B20C20B2EE041AFAEE040AB0EE690AA3
:1013200008F0D8FE1FFA80F8012018490860002054
:101330008860C860082008612012154908704C7048
:10134000C5F3071088702807000E40EA2620C870F1
:101350000E71C7F3071048713807000E40EA2820C5
:10136000887181F8078001AB0A460849094800F0F6
:1013700081FF02B0BDEC068BBDE8F0810000704239
:10138000000070C20000FA4300000000D07100208D
:1013900051010020A00800202DE9F0412DED068B21
:1013A00082B0B0EE40AAB0EE608AF0EE418AB0EEB4
:1013B000619AF0EE429A10209FED2D1ADFED2D0A72
:1013C000B0EE4A0A08F086FE84B20C20B3EE041A8E
:1013D000FBEE040AB0EE480A08F07CFE85B20C2051
:1013E0009FED251ADFED250AB0EE680A08F072FEBF
:1013F00086B20C20B1EE041ADFED200AB0EE490AE5
:1014000008F068FE87B20C20B2EE041AFAEE040A65
:10141000B0EE690A08F05EFE1FFA80F80320184952
:10142000086000208860C860082008612012154903
:1014300008704C70C5F3071088702807000E40EA4A
:101440002620C8700E71C7F3071048713807000EC8
:1014500040EA2820887181F8078001AB0A460849D4
:10146000094800F007FF02B0BDEC068BBDE8F08133
:1014700000007042000070C20000FA43000000004B
:10148000D071002051010020A00800202DE9F0417A
:101490002DED068B82B0B0EE40AAB0EE608AF0EE81
:1014A000418AB0EE619AF0EE429A10209FED2D1A1B
:1014B000DFED2D0AB0EE4A0A08F00CFE84B20C20D3
:1014C000B3EE041AFBEE040AB0EE480A08F002FE7E
:1014D00085B20C209FED251ADFED250AB0EE680AD3
:1014E00008F0F8FD86B20C20B1EE041ADFED200AF8
:1014F000B0EE490A08F0EEFD87B20C20B2EE041AF5
:10150000FAEE040AB0EE690A08F0E4FD1FFA80F86A
:1015100005201849086000208860C860082008611C
:101520002012154908704C70C5F307108870280701
:10153000000E40EA2620C8700E71C7F307104871EC
:101540003807000E40EA2820887181F8078001AB37
:101550000A460849094800F08DFE02B0BDEC068B32
:10156000BDE8F08100007042000070C20000FA4344
:1015700000000000D071002051010020A0080020D0
:1015800008B501200C49086000208860C860082068
:101590000861FF200949087048708870C870087198
:1015A00048718871FC20C8716B460A46024904489C
:1015B00000F060FE08BD0000D07100205101002045
:1015C000A008002008B501200C49086000208860B0
:1015D000C86008200861FF200949087048708870B9
:1015E000C870087148718871FE20C8716B460A4640
:1015F0000249044800F03EFE08BD0000D071002002
:1016000051010020A008002008B503200C49086003
:1016100000208860C86008200861FF200949087020
:1016200048708870C870087148718871FC20C87152
:101630006B460A460249044800F01CFE08BD000043
:10164000D071002051010020A008002008B503201F
:101650000C49086000208860C86008200861FF20ED
:101660000949087048708870C8700871487188719D
:10167000FE20C8716B460A460249044800F0FAFD94
:1016800008BD0000D071002051010020A0080020FA
:1016900008B505200C49086000208860C860082053
:1016A0000861FF200949087048708870C870087187
:1016B00048718871FC20C8716B460A46024904488B
:1016C00000F0D8FD08BD0000D071002051010020BD
:1016D000A008002008B505200C490860002088609B
:1016E000C86008200861FF200949087048708870A8
:1016F000C870087148718871FE20C8716B460A462F
:101700000249044800F0B6FD08BD0000D071002079
:1017100051010020A008002010B5024801F088FB0C
:1017200010BD0000B40C002010B5024801F080FB91
:1017300010BD0000140D002010B5FE48C06C0068FC
:10174000FD49884276D9FC4854380068F949C96C8B
:101750000968FA4A914201D1202169E0F549C96C32
:101760000968F54A483A914201D1202160E0F149E7
:10177000C96C0968F14A6032914201D1202157E0D9
:10178000EC49C96C0968EC4A1832914201D1202118
:101790004EE0E849C96C0968E84A1832914201D123
:1017A000C91445E0E349C96C0968E34A303A9142FB
:1017B00001D1C9143CE0DF49C96C0968DF4A7832BD
:1017C000914201D1C91433E0DA49C96C0968DA4A97
:1017D0003032914201D1C9142AE0D649C96C096856
:1017E000D64A3032914202D14FF4001120E0D14963
:1017F000C96C0968D04A183A914202D14FF40011DD
:1018000016E0CC49C96C0968CC4A9032914202D1A9
:101810004FF400110CE0C749C96C0968C64A483248
:10182000914203D14FF4001102E003E04FF0006158
:10183000084070E1BF48C06C0068C049A8318842C8
:1018400076D9BD4858380068BA49C96C0968BB4A9E
:10185000914201D1202169E0B649C96C0968B64AB4
:10186000483A914201D1202160E0B249C96C09682F
:10187000B24A6032914201D1202157E0AD49C96C92
:101880000968AD4A1832914201D120214EE0A949A0
:10189000C96C0968A94A1832914201D1C91445E0BE
:1018A000A449C96C0968A44A303A914201D1C914CB
:1018B0003CE0A049C96C0968A04A7832914201D144
:1018C000C91433E09B49C96C09689B4A3032914284
:1018D00001D1C9142AE09749C96C0968974A303286
:1018E000914202D14FF4001120E09249C96C09687D
:1018F000914A183A914202D14FF4001116E08D49F5
:10190000C96C09688D4A9032914202D14FF400119E
:101910000CE08849C96C0968874A4832914203D172
:101920004FF4001102E003E04FF000610840F2E0E4
:101930008048C06C006881494831884276D97F4828
:10194000103840687B49C96C09687C4A914201D1D2
:10195000202169E07749C96C0968774A483A914281
:1019600001D1202160E07349C96C0968734A603273
:10197000914201D1202157E06E49C96C09686E4A35
:101980001832914201D120214EE06A49C96C0968A0
:101990006A4A1832914201D1C91445E06549C96CBF
:1019A0000968654A303A914201D1C9143CE0614965
:1019B000C96C0968614A7832914201D1C91433E097
:1019C0005C49C96C09685C4A3032914201D1C91442
:1019D0002AE05849C96C0968584A3032914202D10C
:1019E0004FF4001120E05349C96C0968524A183A73
:1019F000914202D14FF4001116E04E49C96C0968BA
:101A00004E4A9032914202D14FF400110CE0494904
:101A1000C96C0968484A4832914203D14FF4001119
:101A200002E003E04FF00061084074E043481038E2
:101A300000684049C96C0968404A914201D120219F
:101A400068E03C49C96C09683B4A483A914201D177
:101A500020215FE03749C96C0968384A60329142F9
:101A600001D1202156E03349C96C0968324A183245
:101A7000914201D120214DE02E49C96C09682F4ABD
:101A80001832914201D1C91444E02A49C96C09684D
:101A9000294A303A914201D1C9143BE02549C96C29
:101AA0000968264A7832914201D1C91432E02149AD
:101AB000C96C0968204A3032914201D1C91429E029
:101AC0001C49C96C09681D4A3032914202D14FF459
:101AD00000111FE01749C96C0968174A183A91426A
:101AE00002D14FF4001115E01249C96C0968134A7C
:101AF0009032914202D14FF400110BE00D49C96CB4
:101B000009680D4A4832914202D14FF4001101E0B8
:101B10004FF00061084000286FD00648C06C006894
:101B2000054988427BD90348C06C00680349884254
:101B300008D105E0F008002058640240106002401F
:101B4000202068E0FE48C06C0068FE49884201D150
:101B5000202060E0FA48C06C0068FB49884201D14F
:101B6000202058E0F648C06C0068F6496031884291
:101B700001D120204FE0F248C06C0068F24948399A
:101B8000884201D1C01446E0ED48C06C0068ED49C0
:101B90001831884201D1C0143DE0E948C06C0068AA
:101BA000E9491831884201D1C01434E0E448C06CDE
:101BB0000068E4497831884201D1C0142BE0E04844
:101BC000C06C0068E0493039884202D14FF40010FF
:101BD00021E0DB48C06C0068DA493031884202D12C
:101BE0004FF4001017E0D648C06C0068D649303179
:101BF000884204D14FF400100DE0D4E10FE0D0484A
:101C0000C06C0068CF499031884202D14FF4001077
:101C100001E04FF00060CB49091F08606AE1C84845
:101C2000C06C0068C8494831884274D9C448C06C47
:101C30000068C5496039884201D1202066E0C0486B
:101C4000C06C0068BF49884201D120205EE0BC48DA
:101C5000C06C0068BC49884201D1202056E0B848D9
:101C6000C06C0068B7496031884201D120204DE046
:101C7000B348C06C0068B4494839884201D1C014E7
:101C800044E0AF48C06C0068AE491831884201D1C9
:101C9000C0143BE0AA48C06C0068AB4918318842C8
:101CA00001D1C01432E0A648C06C0068A549783163
:101CB000884201D1C01429E0A148C06C0068A24943
:101CC0003039884202D14FF400101FE09C48C06CAC
:101CD00000689C493031884202D14FF4001015E071
:101CE0009748C06C006898493031884202D14FF45F
:101CF00000100BE09248C06C006892499031884215
:101D000002D14FF4001001E04FF000608D49083916
:101D10000860EFE0FFE78A48C06C00688A4918391C
:101D2000884274D98648C06C006887496039884207
:101D300001D1202066E08248C06C00688149884259
:101D400001D120205EE07E48C06C00687E49884258
:101D500001D1202056E07A48C06C00687949603192
:101D6000884201D120204DE07548C06C006876495A
:101D70004839884201D1C01444E07148C06C006801
:101D800070491831884201D1C0143BE06C48C06CE6
:101D900000686D491831884201D1C01432E06848AA
:101DA000C06C006867497831884201D1C01429E0CD
:101DB0006348C06C006864493039884202D14FF4EE
:101DC00000101FE05E48C06C00685E4930318842F8
:101DD00002D14FF4001015E05948C06C00685A4910
:101DE0003031884202D14FF400100BE05448C06CEF
:101DF000006854499031884202D14FF4001001E04C
:101E00004FF0006050497039C86073E0FFE74C48FC
:101E1000C06C00684C496039884201D1202066E0DE
:101E20004748C06C00684749884201D120205EE0E5
:101E30004348C06C00684449884201D1202056E0E4
:101E40003F48C06C00683F496031884201D1202082
:101E50004DE03B48C06C00683B494839884201D19D
:101E6000C01444E03648C06C0068364918318842D6
:101E700001D1C0143BE03248C06C006832491831CF
:101E8000884201D1C01432E02D48C06C00682D4951
:101E90007831884201D1C01429E02948C06C00681B
:101EA00029493039884202D14FF400101FE02448FC
:101EB000C06C006823493031884202D14FF40010D1
:101EC00015E01F48C06C00681F493031884202D1BC
:101ED0004FF400100BE01A48C06C006819499031AB
:101EE000884202D14FF4001001E04FF00060164923
:101EF000703988601548007800F0020078B1134806
:101F0000007820F00200114908700846007840F07F
:101F100004000870012211460D4801F0B9FA0D487D
:101F2000007800F00200E0B10A48007820F00200DA
:101F3000084908700846007840F0040008700BE07B
:101F4000F00800201064024070600240FC00002095
:101F500000040240FD00002001221021124801F07F
:101F600097FA1248007800F0020078B10F48007824
:101F700020F002000D4908700846007840F0040087
:101F8000087001221021084801F082FA08F0D6F901
:101F90000748007800F0040028B10648006840F0C7
:101FA00001000449086010BD00000240FE0000204E
:101FB000FC000020103C014010B5024800F038FF42
:101FC00010BD0000A809002010B5024800F030FF45
:101FD00010BD0000F40B002010B5024800F028FFEF
:101FE00010BD0000740D002010B5024800F020FF65
:101FF00010BD0000540C002001460878103818234A
:10200000B0FBF3F20848805CC865032A05D908686C
:102010006FF30900001D886503E008686FF309008D
:102020008865886D70470000E8D4000801460020EC
:102030008A6A8B69CBB932B1012A0DD0022A03D04A
:10204000032A10D10EE000BFCB6A03F08073B3F116
:10205000807F00D1012007E0CB6AB3F1C07F00D1BF
:10206000012001E000E000BF34E08B69B3F5005FC0
:102070001AD132B1012A07D0022A03D0032A11D182
:102080000AE000BF01200EE0CB6A03F08073B3F1D9
:10209000807F00D1012006E0CB6AB3F1C07F00D180
:1020A000012000E000BF15E032B1012A05D0022A6C
:1020B00004D0032A0CD103E000BF00BF012008E0D8
:1020C000CB6A03F08073B3F1807F00D1012000E080
:1020D00000BF00BF704730B50468246824F4802432
:1020E00005682C60046863608468402C04D104682F
:1020F000A2600468E16003E00468A1600468E26033
:1021000030BD000008B508484068009007490098B5
:102110000968884204D206480068401C04490860E7
:1021200002490098086008BD001000E0D0010020BE
:10213000CC0100200C494868F0EE400A00BF0A4973
:102140004968091A01EE101AF8EE411A074991ED93
:10215000001AB8EE411A20EE811AF4EEC11AF1EE1F
:1021600010FAECD370470000001000E0C00100201E
:1021700010B52DED028B82B004460E4840680190E8
:1021800020680199081A00EE100AF8EE400A0A4881
:1021900090ED000AB8EE400A80EE801AB0EE418A57
:1021A00001982060FFF7AEFFB0EE480A02B0BDEC28
:1021B000028B10BD001000E0C00100201249096828
:1021C00041F08071104A11600021104A516011469F
:1021D000096841F0010111600D4941430D4A116048
:1021E000114609684FF47A72B1FBF2F10A4A1160A4
:1021F00008490968064AB1FBF2F1084A116000215A
:10220000074A116070470000FCED00E0001000E09C
:1022100040420F00C0010020C4010020C80100207E
:10222000CC010020704710B5012001F029F810BD45
:1022300010B5102001F024F810BD10B5202001F0D9
:102240001FF810BD72B600BFFEE710B5024692F847
:102250002030012B01D0022B06D1106840690843C1
:1022600014686061002010BD506A40F48020506204
:102270000120F8E7F0B504460D461E4694F820709C
:1022800020688368A86800B900E000BF012F01D072
:10229000022F7CD103F0806030B903F0006018B9E0
:1022A00003F08050002873D0C3F30161022905D9DF
:1022B000606A40F4000060620120F0BD01208840A7
:1022C0003060A86860B9B5F800C0E86840EA4C5CC6
:1022D000206800F5C07000EB0110C0F800C00FE0EE
:1022E000D5E901C040EACC00D5F80CC040EA0C00AA
:1022F000D4F800C00CF5C07C0CEB011CCCF800003D
:10230000D5F810C0206800F5C07000EB0110C0F8CF
:1023100004C0287D01280ED1206800F5C07000EBB4
:102320000110406840F4807C206800F5C07000EB2C
:102330000110C0F804C0D079000692F806C040EA47
:102340000C4092F805C040EA0C2C10794CEA000CC5
:10235000206800F5C07000EB0110C0F80CC0D07808
:10236000000692F802C040EA0C4092F801C040EA30
:102370000C2092F800C040EA0C00D4F800C00CF524
:10238000C07C0CEB011CCCF80800206801E016E0D2
:102390000FE000F5C07000EB0110006840F0010C88
:1023A000206800F5C07000EB0110C0F800C00020EC
:1023B00083E7606A40F40010606201207DE7606A94
:1023C00040F480206062012077E70000F0B5044609
:1023D0000A46216894F82050012D01D0022D7ED1AB
:1023E000424901F50071086840F001000860086882
:1023F00020F47C5008600868566A40EA06200860AD
:10240000107D00F01F06012000FA06F3C86998430A
:10241000C861A1F50071D069C8B9D1F80C02984320
:10242000C1F80C02908880B2968940EA064601F510
:102430001070576940F83760108880B2168940EAFA
:10244000064601F51070576900EBC7004660D06979
:10245000012819D1D1F80C021843C1F80C02908858
:1024600080B2168840EA064601F51070576940F8B8
:102470003760908980B2168940EA064601F51070EF
:10248000576900EBC7004660906928B9D1F804028B
:102490009843C1F8040204E0D1F804021843C1F8DB
:1024A0000402106928B9D1F814029843C1F8140243
:1024B00004E0D1F814021843C1F81402106A01288C
:1024C00004D1D1F81C021843C1F81C02D1F8000253
:1024D00020F00100C1F800020020F0BDFFE7606AB3
:1024E00040F4802060620120F7E7000000640040B3
:1024F000704770B5044694F82050012D01D0022D8C
:102500007DD151B92068C06800F0030080B9606ACD
:1025100040F400106062012070BD2068006900F086
:10252000030028B9606A40F4001060620120F3E7FC
:10253000206800F5D87000EB0110006800F004007E
:102540009060906840B9206800F5D87000EB0110E9
:102550000068400D106007E0206800F5D87000EBBF
:1025600001100068C0085060206800F5D87000EBCA
:102570000110006800F00200D060206800F5D870FB
:1025800000EB0110406800F00F001061206800F5BA
:10259000D87000EB0110406800F47F40000A9061A1
:1025A000206800F5D87000EB01104068000C506105
:1025B000206800F5D87000EB011080681870206862
:1025C00000F5D87000EB0110806800F47F40000A2D
:1025D0005870206800F5D87000EB0110806800F496
:1025E0007F00000C9870206800F5D87000EB011097
:1025F0008068000ED870206800F5D87000E02FE0E9
:1026000000EB0110C0681871206800F5D87000EB6D
:102610000110C06800F47F40000A5871206800F57E
:10262000D87000EB0110C06800F47F00000C9871B6
:10263000206800F5D87000EB0110C068000ED8715A
:1026400031B92068C06840F020002668F06005E0DD
:102650002068006940F020002668306100205BE7B8
:10266000606A40F480206062012055E72DE9F05F48
:1026700004460025206846692068D0F80490206848
:1026800087682068D0F80CA02068D0F810B02068C7
:10269000D0F8188006F00100002855D007F001009E
:1026A000C0B101202168886007F0020018B12046FF
:1026B00000F04DFB0EE007F0040010B145F400659A
:1026C00008E007F0080010B145F4805502E020460C
:1026D00000F03CFB07F48070C8B14FF480702168B3
:1026E000886007F4007018B1204600F032FB0EE05D
:1026F00007F4806010B145F4005508E007F400606D
:1027000010B145F4804502E0204600F021FB07F4BB
:102710008030C8B14FF480302168886007F4003001
:1027200018B1204600F017FB0EE007F4802010B12E
:1027300045F4004508E007F4002010B145F4803569
:1027400002E0204600F006FB06F0080038B10AF06F
:10275000100020B145F4007510202168C86006F013
:10276000040040B10AF0080028B108202168C860C0
:10277000204600F00DFA06F0020038B12068C0686B
:1027800000F0030010B1204600F004FA06F040000B
:1027900038B10BF0100020B145F48065102021689D
:1027A000086106F0200040B10BF0080028B10820B5
:1027B00021680861204600F097FA06F0100038B151
:1027C0002068006900F0030010B1204600F08DFA87
:1027D00006F4003040B109F0100028B11020216843
:1027E0004860204600F082FA06F4803040B109F0DB
:1027F000080028B1082021684860204600F0ACFAA3
:1028000006F4004088B309F0040078B306F4807041
:1028100020B108F0010008B145F0010506F4007090
:1028200020B108F0020008B145F0020506F480600E
:1028300020B108F0040008B145F0040506F400607A
:10284000A0B108F0700088B108F07000402817D0DF
:1028500006DC10280BD020280CD0302819D10CE031
:10286000502810D0602814D110E01DE019E045F088
:1028700008050FE045F010050CE045F0200509E0E3
:1028800045F0400506E045F0800503E045F480751D
:1028900000E000BF00BF2068806920F07000216860
:1028A00088610420216848602DB1606A2843606215
:1028B0002046FFF71DFEBDE8F09F70B504460CB939
:1028C000012070BD94F8200010B9204600F0B0F847
:1028D0002068006840F001002168086000F0DEFD1B
:1028E00005460DE000F0DAFD401B0A2808D9606AB1
:1028F00040F400306062052084F820000120E0E709
:102900002068406800F001000028EBD020680068D3
:1029100020F002002168086000F0C0FD05460DE0CF
:1029200000F0BCFD401B0A2808D9606A40F4003062
:102930006062052084F820000120C2E7206840681A
:1029400000F002000028EBD1207E012806D120688B
:10295000006840F080002168086005E02068006899
:1029600020F0800021680860607E012806D1206880
:10297000006840F040002168086005E020680068B9
:1029800020F0400021680860A07E012806D1206860
:10299000006840F020002168086005E020680068B9
:1029A00020F0200021680860E07E012806D1206820
:1029B000006820F010002168086005E020680068C9
:1029C00040F0100021680860207F012806D12068AF
:1029D000006840F008002168086005E02068006891
:1029E00020F0080021680860607F012806D1206877
:1029F000006840F004002168086005E02068006875
:102A000020F0040021680860D4E90201084321692C
:102A10000843616908436168491E08432168C86129
:102A200000206062012084F82000002049E70000B7
:102A300010B586B00446142101A8FDF726FE4E49C4
:102A40002068884241D14D480068401C4B490860CD
:102A50000846006801280FD100BF002000904848B8
:102A6000006840F00070464908600846006800F0C1
:102A70000070009000BF00BF00BF002000904048E1
:102A80001038006840F008003D49103908600846D9
:102A9000006800F00800009000BF00BF0320019014
:102AA000022002900020039003200490092005904A
:102AB00001A9344800F0F2FB00220521142000F0A7
:102AC0007DFD142000F06AFD54E02F492068884203
:102AD00050D100BF002000902948006840F080607D
:102AE000274908600846006800F08060009000BF39
:102AF00000BF22480068401C204908600846006862
:102B000001280FD100BF002000901D48006840F050
:102B100000701B4908600846006800F000700090D3
:102B200000BF00BF00BF00200090154810380068AB
:102B300040F002001249103908600846006800F0B1
:102B40000200009000BF00BF6020019002200290B0
:102B500000200390032004900920059001A90B4850
:102B600000F09CFB00220621402000F027FD4020C1
:102B700000F014FD06B010BD0064004014000020F9
:102B800040380240000C024000680040000402404F
:102B90007047000010B58AB0044601AB03AA0021BB
:102BA0002046FFF7A6FC4B48844219D1039802281F
:102BB0002BD101A9484807F0A7FA474890ED020A2F
:102BC000D0ED010A30EE600ADFED440AB4EEE00A0F
:102BD000F1EE10FA05D242488088401C40498880B6
:102BE00076E03D4890ED020AD0ED010A30EE600A31
:102BF000DFED3C0AB4EEE00AF1EE10FA68DD384889
:102C00008088401E3649888062E0039804282ED1CF
:102C100001A93148143007F0C5FA2F4890ED070A92
:102C2000D0ED060A30EE600ADFED2C0AB4EEE00AC1
:102C3000F1EE10FA06D22A48808B401C81B2284857
:102C4000818345E0244890ED070AD0ED060A30EE76
:102C5000600ADFED240AB4EEE00AF1EE10FA37DD87
:102C60001F48808B401E81B21D48818330E003984D
:102C700006282DD101A91848283007F0E1FA164896
:102C800090ED0C0AD0ED0B0A30EE600ADFED130A6E
:102C9000B4EEE00AF1EE10FA06D21148808E401C24
:102CA00081B20F48818613E00B4890ED0C0AD0EDFD
:102CB0000B0A30EE600ADFED0B0AB4EEE00AF1EE2B
:102CC00010FA05DD0648808E401E81B204488186D8
:102CD0000AB010BDA00800205C710020DB0FC9BF46
:102CE00000720020DB0FC93F70477047704770B516
:102CF000044694F82000012822D1022084F8200004
:102D00002068006820F001002168086000F0C6FB20
:102D100005460DE000F0C2FB401B0A2808D9606A96
:102D200040F400306062052084F82000012070BD6E
:102D30002068406800F001000028EBD16062F6E7EF
:102D4000606A40F4002060620120F0E7704770473D
:102D50007047704770477047704770B50446A56D5F
:102D600000F09CFB064694F83500022808D080202D
:102D7000606500BF002084F8340000BF012070BDF2
:102D80002068006820F0160021680860206840690B
:102D900020F0800021684861206C08B9A06C28B13F
:102DA0002068006820F0080021680860206800683A
:102DB00020F001002168086010E000F06FFB801B2C
:102DC00005280BD920206065032084F8350000BF5A
:102DD000002084F8340000BF0320D0E7206800689A
:102DE00000F001000028E8D194F85C103F208840F2
:102DF000A860012084F8350000BF002084F834006A
:102E000000BF00BFBBE7014691F83500022803D0A0
:102E10008020486501207047052081F8350008684A
:102E2000006820F001000A6810600020F3E700004D
:102E3000F8B50446002000908C4800684FF4165105
:102E4000B0FBF1F7A56D2E6894F85C10082088405F
:102E5000304098B12068006800F0040070B120682C
:102E6000006820F004002168086094F85C100820D5
:102E70008840A860606D40F00100606594F85C10C7
:102E800001208840304068B12068406900F080002F
:102E900040B194F85C1001208840A860606D40F05B
:102EA0000200606594F85C1004208840304068B1EE
:102EB0002068006800F0020040B194F85C10042023
:102EC0008840A860606D40F00400606594F85C1074
:102ED00010208840304078B32068006800F0080077
:102EE00050B394F85C1010208840A86020680068F7
:102EF00000F4802080B12068006800F4002028B928
:102F0000206CC8B12046216C884715E0A06C98B1B0
:102F10002046A16C88470FE02068006800F48070AC
:102F200028B92068006820F0080021680860206C3B
:102F300010B12046216C884794F85C10202088400E
:102F40003040002865D02068006800F0100000289C
:102F50005FD094F85C1020208840A86094F8350079
:102F6000052828D12068006820F016002168086034
:102F70002068406920F0800021684861206C08B911
:102F8000A06C28B12068006820F008002168086063
:102F900094F85C103F208840A860012084F8350038
:102FA00000BF002084F8340000BF206D10B120461F
:102FB000216D8847F8BD2068006800F4802080B14A
:102FC0002068006800F4002028B9606C10B1204629
:102FD000616C88471DE0E06BD8B12046E16B884703
:102FE00017E02068006800F4807068B92068006805
:102FF00020F0100021680860012084F8350000BF2F
:10300000002084F8340000BFE06B10B12046E16B73
:103010008847606D38B3606D00F00100F0B10520A5
:1030200084F835002068006820F0010021680860FD
:1030300000BF0098401C0090B84200D905E020680D
:10304000006800F001000028F3D100BF012084F8DF
:10305000350000BF002084F8340000BFE06C10B1E0
:103060002046E16C884700BFA4E700002C00002048
:103070002DE9F0410446002500F010FA074614B986
:103080000120BDE8F081606A00B100BF022084F831
:10309000350000BF002084F8340000BF20680068BD
:1030A00020F00100216808600AE000F0F7F9C01B79
:1030B000052805D920206065032084F83500E0E765
:1030C0002068006800F001000028EED12068056843
:1030D00021480540D4E901010843E168084321691A
:1030E000084361690843A1690843E1690843216A0B
:1030F00008430543606A042803D1D4E90B0108435F
:103100000543206805602068456925F00705606A69
:103110000543606A04280DD1A06A0543E06A48B1FE
:103120002046FEF783FF28B140206065012084F827
:103130003500A6E7206845612046FEF75DFF06469C
:1031400094F85C103F208840B0600020606501204A
:1031500084F83500002094E73F8010F02DE9F04717
:1031600004460D4616461F464FF00008D4F8589006
:1031700000BF94F83400012802D10220BDE8F08796
:10318000012084F8340000BF94F83500012825D1CF
:10319000022084F83500002060653B46324629460F
:1031A0002046FEF798FF94F85C103F208840C9F84D
:1031B00008002068006840F0160021680860206C54
:1031C00028B12068006840F0080021680860206885
:1031D000006840F001002168086006E000BF0020A0
:1031E00084F8340000BF4FF002084046C6E70000F4
:1031F00010B50446102C11D11A48007840F0010097
:10320000184908701848007840F001001649087005
:103210001648007828B307F091F822E0202C0BD153
:103220001348007840F00100114908700F480078F9
:10323000B8B107F083F814E0012C12D109F0D6FCE4
:1032400001280ED00B490C48006808F0ABFE094875
:10325000006830B1200709490860BFF34F8FBFF302
:103260006F8F10BDFD000020FE000020FF00002039
:10327000FC0000204C010020C400002004ED00E010
:1032800010B5044604480068204020B1024804609C
:103290002046FFF7ADFF10BD143C0140F8B50246D3
:1032A0000B460025002400200021D6E0012606FA66
:1032B00001F51E6806EA0504AC4274D11E7906F0D9
:1032C0000306012E04D01E7906F00306022E13D148
:1032D00090684F000326BE40B0434F00DE68BE40FA
:1032E00030439060506801268E40B0431E79C6F38B
:1032F00000168E40304350601E7906F00306032E00
:1033000009D0D0684F000326BE40B0434F009E68EE
:10331000BE403043D0601E7906F00306022E13D162
:10332000CF0802F1200656F827004E07F70E0F26A9
:10333000BE40B0434F07FF0E1E69BE403043CF086A
:1033400002F1200646F8270010684F000326BE4011
:10335000B0431E7906F003064F00BE4030431060B4
:103360005E6806F44036002E76D000BF0026009638
:103370003C4E366846F480463A4F3E603E463668DC
:1033800006F48046009600BF00BF374E8F0856F8FF
:1033900027008E07370F0F26BE40B043334EB24290
:1033A00002D1002624E057E0314EB24201D101267D
:1033B0001EE0304EB24201D1022619E02E4EB2423A
:1033C00001D1032614E02D4EB24201D104260FE0B4
:1033D0002B4EB24201D105260AE02A4EB24201D15B
:1033E000062605E0284EB24201D1072600E0082655
:1033F0008F073F0FBE4030431B4E8F0846F8270013
:10340000224E3068A0435E6806F4801606B1204361
:103410001E4E3060361D3068A0435E6806F400160C
:1034200006B12043194E361D3060184E361F3068E5
:10343000A0435E6806F4003606B12043134E361FE3
:103440003060361F3068A0435E6806F4803606B1EF
:1034500020430E4E083E3060491C1029FFF426AF71
:10346000F8BD000044380240083801400000024026
:103470000004024000080240000C0240001002401C
:103480000014024000180240001C0240083C0140A9
:103490000AB1816101E00B04836170470148006853
:1034A00070470000200000200348006803490978A5
:1034B00008440149086070472000002028000020CF
:1034C00010B50D48006840F400700B4908600846CC
:1034D000006840F4806008600846006840F480702E
:1034E0000860032000F0A8F80F2000F007F800F0B3
:1034F0002BF8002010BD0000003C024070B50446CF
:103500000E4800784FF47A71B1FBF0F00C4909686D
:10351000B1FBF0F5284600F056FE08B1012070BD61
:10352000102C07D200222146501E00F047F8054813
:10353000046001E00120F2E70020F0E7280000200D
:103540002C0000202400002008B500BF00200090BF
:103550001148006840F480400F4908600846006840
:1035600000F48040009000BF00BF00BF002000902A
:10357000081F006840F08050091F08600846006876
:1035800000F08050009000BF00BF00220F21901E6D
:1035900000F014F808BD0000443802400146084617
:1035A000002809DB00F01F0301229A4043099B0019
:1035B00003F1E023C3F8002100BF70472DE9F05F5D
:1035C00080460D461646002705F04CFF0746394653
:1035D0002A46334601F00700C0F1070ABAF1040F8A
:1035E00002D94FF0040A01E0C0F1070AD14600F108
:1035F000040ABAF1070F02D24FF0000A01E0A0F16D
:10360000030AD4464FF0010A0AFA09FAAAF1010A9C
:103610000AEA020A0AFA0CFA4FF0010B0BFA0CFB49
:10362000ABF1010B0BEA030B4AEA0B0421464046BF
:1036300005F020FFBDE8F09F00BF00F00702064B39
:1036400019684FF6FF031940044B0B4343EA02216C
:10365000014B196000BF70470CED00E00000FA0557
:1036600070B504460D460CB9012070BD584800687D
:1036700000F00700A84209D255490D7008460068BD
:1036800000F00700A84201D00120EEE7207800F00A
:10369000020002281DD1207800F00400042805D182
:1036A0004C48006840F4E0504A490860207800F037
:1036B0000800082805D14748006840F460404549A3
:1036C00008604448006820F0F000A16808434149C0
:1036D0000860207800F00100A8B36068012807D1D5
:1036E0003C4808380068C0F34040B8B90120BCE746
:1036F0006068022802D06068032807D1354808387E
:103700000068C0F3406048B90120AEE7314808388E
:103710000068C0F3400008B90120A6E72D48006802
:1037200020F00300616808432A490860FFF7B6FEED
:10373000064609E0FFF7B2FE801B41F2883188425D
:1037400002D9032091E707E02248006800F00C004E
:103750006168B0EB810FEDD11D48006800F00700F3
:10376000A84209D91A490D700846006800F0070000
:10377000A84201D0012078E7207800F00400042856
:1037800007D11448006820F4E050E168084311496B
:103790000860207800F00800082808D10D4800686B
:1037A00020F46040216940EAC1000A49086000F045
:1037B0003FF808490968C1F30311074A515CC84042
:1037C0000649086006480068FFF798FE00204CE7AD
:1037D000003C024008380240F0D400082C000020D1
:1037E0002400002001480068704700002C000020E1
:1037F00000B5FFF7F7FF04490968C1F38221034AC6
:10380000515CC84000BD00000838024000D50008E7
:1038100000B5FFF7E7FF04490968C1F34231034AE5
:10382000515CC84000BD00000838024000D50008C7
:103830002DE9F047002400250026A1462548006810
:1038400000F00C0020B1042805D008283AD105E08A
:10385000DFF8849039E0DFF8849036E01D48001FDF
:10386000006800F03F041B48001F006800F480005F
:1038700078B11A481749091F0968C1F38811A0FBDC
:1038800001700146224600233846FCF7C7FD054675
:103890000EE011480F49091F0968C1F38811A0FB08
:1038A00001700146224600233846FCF7B7FD054665
:1038B0000848001F0068C0F30140401C4600B5FBEB
:1038C000F6F902E0DFF8109000BF00BF4846BDE8FF
:1038D000F0870000083802400024F400001BB70005
:1038E000F8B504460CB90120F8BD207800F00100BD
:1038F000002874D0F948006800F00C0004280DD0AE
:10390000F648006800F00C00082813D1F348001FA7
:10391000006800F48000B0F5800F0BD1EF48083844
:103920000068C0F34040002859D06068002856D194
:103930000120D9E700BF6068B0F5803F08D1E748B3
:103940000838006840F48030E449083908601EE017
:103950006068B0F5A02F0DD1E0480838006840F449
:103960008020DE49083908600846006840F480304D
:1039700008600CE0D9480838006820F48030D74946
:10398000083908600846006820F48020086000BFFD
:10399000606890B1FFF782FD054606E0FFF77EFD07
:1039A000401B642801D903209EE7CC4808380068F2
:1039B000C0F340400028F1D011E0FFF76FFD05464D
:1039C00006E0FFF76BFD401B642801D903208BE75D
:1039D000C24808380068C0F340400028F1D1207880
:1039E00000F0020002285FD1BC48006800F00C0023
:1039F00058B1BA48006800F00C0008281CD1B7483C
:103A0000001F006800F48000B0B9B44808380068AE
:103A1000C0F3400020B1E068012801D0012063E735
:103A2000AE480838006820F0F800216940EAC1007B
:103A3000AA490839086037E0E06800B30120A849C6
:103A40000860FFF72BFD054606E0FFF727FD401B4A
:103A5000022801D9032047E7A04808380068C0F3CE
:103A600040000028F1D09D480838006820F0F80098
:103A7000216940EAC10099490839086014E0002032
:103A800097490860FFF70AFD054606E0FFF706FDC7
:103A9000401B022801D9032026E790480838006817
:103AA000C0F340000028F1D1207800F00800082879
:103AB0002CD16069A8B101208A490860FFF7EEFCAB
:103AC000054606E0FFF7EAFC401B022801D9032067
:103AD0000AE782486C300068C0F340000028F1D04B
:103AE00014E000207F490860FFF7D8FC054606E097
:103AF000FFF7D4FC401B022801D90320F4E67748E5
:103B00006C300068C0F340000028F1D1207800F04C
:103B10000400042870D1002770483830006800F095
:103B2000805090B900BF002000906C483830006889
:103B300040F080506949383108600846006800F05C
:103B40008050009000BF00BF01276748006800F464
:103B50008070B0B96448006840F4807062490860C1
:103B6000FFF79CFC054606E0FFF798FC401B022887
:103B700001D90320B8E65C48006800F48070002892
:103B8000F2D000BFA068012808D15448683000680E
:103B900040F001005149683108601DE0A068052827
:103BA0000DD14E486830006840F004004B49683140
:103BB00008600846006840F0010008600CE04748D3
:103BC0006830006820F00100444968310860084608
:103BD000006820F00400086000BFA068A8B1FFF7EB
:103BE0005DFC054609E0FFF759FC401B41F28831B6
:103BF000884202D9032077E626E03848683000681A
:103C0000C0F340000028EED013E0FFF747FC054664
:103C100008E0FFF743FC401B41F28831884201D99C
:103C2000032061E62D4868300068C0F3400000289A
:103C3000EFD1012F07D129483830006820F080509B
:103C400026493831086000BFA069002845D02348C4
:103C5000006800F00C0008285DD0A069022845D15A
:103C600000201F490866FFF719FC054606E0FFF72C
:103C700015FC401B022801D9032035E617480838F7
:103C80000068C0F340600028F1D1D4E9070108437F
:103C9000616A40EA81110122A06AC2EB500041EA48
:103CA00000412C20005D41EA00600C49091F0860BA
:103CB00001200B490866FFF7F1FB054606E0FFF718
:103CC000EDFB401B022801D903200DE6034808380C
:103CD0000068C0F340600028F1D049E00838024095
:103CE00000004742800E47420070004000202149FA
:103CF0000866FFF7D3FB054606E0FFF7CFFB401B46
:103D0000022801D90320EFE51B480068C0F340609A
:103D10000028F2D12CE0A069012800D1E4E5164882
:103D2000001D0668A069012820D006F48001E06922
:103D300081421BD106F03F01206A814216D147F62D
:103D4000C0703040616AB0EB811F0FD106F4403182
:103D50000122A06AC2EB5000B1EB004F06D106F081
:103D600070612C20005DB1EB006F01D00120BBE53C
:103D70000020B9E5000047420038024010B5044673
:103D80000CB9012010BD606A38B96068B0F5827F57
:103D900000D105E00021E16102E0002121616161C3
:103DA0000021A16294F8510028B9002084F8500045
:103DB000204600F047F8022084F85100206800688F
:103DC00020F0400021680860A08800F482702189FA
:103DD00001F404410843A18901F400610843217CF6
:103DE00001F002010843217D01F001010843218B0C
:103DF00001F400710843217F01F0380108432021BC
:103E0000095D01F080010843218D01F40051084350
:103E1000216808600421A06901EA104094F8241088
:103E200001F010010843216848602068C06920F44F
:103E300000602168C86100206065012084F851009D
:103E400000209FE710B586B00446142101A8FCF7B6
:103E50001CFC4B49206888427ED100BF00200090A6
:103E60004848006840F480504649086008460068A9
:103E700000F48050009000BF00BF00BF0020009001
:103E800040481438006840F002003E491439086088
:103E90000846006800F00200009000BF00BF00BFAD
:103EA000002000900846006840F0010008600846C5
:103EB000006800F00100009000BF00BF18200190D2
:103EC0000220029001200390032004900520059019
:103ED00001A92D48FFF7E2F980200190022002900D
:103EE00001200390032004900520059001A9274894
:103EF000FFF7D4F92648274908604FF0C0604860B2
:103F0000002124488160C1604FF48061016100217B
:103F100041618161C1614FF4403101620021416220
:103F2000FFF7A6F808B1FEF78DF900BF1948E06465
:103F3000846300BF16481830174908604FF0C0600E
:103F400048604021144881600021C1604FF48061C5
:103F500001610021416100E010E08161C1614FF425
:103F60000031016200214162FFF782F808B1FEF7DB
:103F700069F900BF0848A064846300BF06B010BDA3
:103F8000003001404438024000040240000002407A
:103F90004064024048090020A80900202DE9FF5F85
:103FA0000446884691461D460E9E01200290002040
:103FB000019000BF94F85000012803D1022004B002
:103FC000BDE8F09F012084F8500000BFFFF766FABB
:103FD000074694F851B060680390AA46BBF1010F00
:103FE0000BD00398B0F5827F04D1A06810B9BBF163
:103FF000040F02D002200190DBE0B8F1000F03D0E3
:10400000B9F1000F00D015B901200190D1E094F86A
:104010005100042802D0052084F85100002060657A
:10402000C4F83890E587A587C4F83080E586A58672
:10403000206460642068006800F04000402805D0DB
:104040002068006840F0400021680860E068B0F532
:10405000006F4AD1606810B1BAF1010F09D1206B2D
:1040600000882168C860206B801C2063E08E401EA1
:10407000E08633E02068806800F00200022810D15A
:10408000E08E70B1029801280BD1206B0088216866
:10409000C860206B801C2063E08E401EE0860020FC
:1040A00002902068806800F0010068B1E08F58B18C
:1040B0002068C068A16B0880A06B801CA063E08FA3
:1040C000401EE08701200290FFF7E8F9C01BB042D4
:1040D00004D3701C10B1032001906AE0E08E002828
:1040E000C8D1E08F0028C5D14AE0606810B1BAF1AC
:1040F000010F09D1206B007821680873206B401CE8
:104100002063E08E401EE08634E02068806800F086
:104110000200022810D1E08E70B1029801280BD164
:10412000206B007821680873206B401C2063E08EB0
:10413000401EE086002002902068806800F00100A8
:1041400068B1E08F58B12068C068A16B0870A06B9F
:10415000401CA063E08F401EE08701200290FFF723
:104160009DF9C01BB04201D3701C00B916B90320E1
:1041700001901EE0E08E0028C7D1E08F0028C4D156
:104180003A463146204604F029FC20B10120019036
:10419000202060650DE0A06850B900BF00200090AD
:1041A0002068C068009020688068009000BF00BF51
:1041B00000BF012084F8510000BF002084F85000A7
:1041C00000BF0198FBE670B504462546681EB0F1B5
:1041D000807F01D301200FE0681E4FF0E02148618D
:1041E0000F214FF0FF3005F045F900204FF0E0219E
:1041F000886107200861002070BD7047704710B5C6
:104200000346002200BF93F83C00012801D10220A0
:1042100010BD012083F83C0000BF22F0FF00CC68F5
:1042200040EA040222F440708C6840EA040222F45E
:1042300080604C6840EA040222F400600C6840EAA6
:10424000040222F480500C6940EA040222F4005077
:104250004C6940EA040222F48040CC6940EA04023E
:104260001868426400BF002083F83C0000BF00BF14
:10427000CEE7000030B502460B4600BF92F83C0086
:10428000012801D1022030BD012082F83C0000BF8E
:10429000022082F83D00106844681068816824F0AC
:1042A00070041868044310684460184D1068A842F0
:1042B0001BD01068B0F1804F17D0154D1068A84280
:1042C00013D0144D1068A8420FD0134D1068A842A7
:1042D0000BD0124D1068A84207D0114D1068A842AB
:1042E00003D0104D1068A84205D121F08001586814
:1042F000014310688160012082F83D0000BF00206A
:1043000082F83C0000BF00BFBDE700000000014094
:104310000004004000080040000C00400004014080
:10432000004001400018004010B504460CB90120BF
:1043300010BD94F83D0028B9002084F83C002046C8
:1043400000F026F8022084F83D00211D206804F0CA
:1043500067FC012084F8460000BF84F83E0001217C
:104360003F200155402001554120015500BF00BFAD
:10437000012084F842004320015544200155452086
:10438000015500BF012084F83D000020D0E7000067
:1043900010B586B00446142101A8FCF776F93F4910
:1043A000206888420FD100BF002000903C48006880
:1043B00040F001003A4908600846006800F001003A
:1043C000009000BF68E03749206888423AD100BFBA
:1043D000002000903248001F006840F0040030497F
:1043E000091F08600846006800F00400009000BF44
:1043F00000BF00BF0020009029481438006840F03A
:1044000008002749143908600846006800F00800D1
:10441000009000BF00BF4FF4804001900220029046
:104420000020039002200490059001A91E48FEF789
:1044300035FF002205211E20FFF7C0F81E20FFF7E0
:10444000ADF829E019492068884211D100BF002049
:1044500000901348001F006840F008001049091F31
:1044600008600846006800F00800009000BF13E0F4
:104470000F49206888420FD100BF002000900848F3
:10448000006840F40030064908600846006800F4FF
:104490000030009000BF00BF06B010BD000001401A
:1044A0004438024000080040000C0240000C00406C
:1044B00000440140014691F83D00012801D001204F
:1044C0007047022081F83D000868C06840F0010094
:1044D0000B68D8601A4B086898421BD00868B0F186
:1044E000804F17D0174B0868984213D0164B0868B6
:1044F00098420FD0154B086898420BD0144B0868AF
:10450000984207D0134B0868984203D0124B0868B2
:1045100098420CD10868806800F00702062A0CD087
:104520000868006840F001000B68186005E0086842
:10453000006840F001000B6818600020C0E7000030
:10454000000001400004004000080040000C004052
:104550000004014000400140001800402DE9F041F6
:1045600004460D46002700BF94F83C00012802D104
:104570000220BDE8F081012084F83C0000BF022049
:1045800084F83D002068866826F0770626F47F468A
:10459000206886602868502833D00CDC202850D052
:1045A00004DC00284BD0102851D149E0302849D0F4
:1045B00040284CD139E060282DD0702807D0B0F5C4
:1045C000805F03D0B0F5005F41D10DE041E0D5E957
:1045D00002136A68206804F08FFB2068866846F042
:1045E00077062068866034E0D5E902136A6820689F
:1045F00004F082FB2068806840F480402168886075
:1046000027E0EA686968206804F066FC50212068A9
:1046100004F07DFB1DE0EA686968206804F06FFC27
:104620006021206804F073FB13E0EA686968206881
:1046300004F052FC4021206804F069FB09E000BF4F
:1046400000BF00BF2968206804F061FB01E001277A
:1046500000BF00BF012084F83D0000BF002084F8A7
:104660003C0000BF384684E7704710B50446206818
:104670000069C0F34000D8B12068C068C0F34000B2
:10468000B0B16FF002002168086101202077206836
:10469000806900F0030018B12046FFF7E5FF05E050
:1046A000204600F02DF9204600F0E1F900202077A7
:1046B00020680069C0F38000D8B12068C068C0F3EA
:1046C0008000B0B16FF004002168086102202077FB
:1046D0002068806900F4407018B12046FFF7C4FFDD
:1046E00005E0204600F00CF9204600F0C0F900205B
:1046F000207720680069C0F3C000D8B12068C06886
:10470000C0F3C000B0B16FF0080021680861042058
:1047100020772068C06900F0030018B12046FFF739
:10472000A3FF05E0204600F0EBF8204600F09FF9DB
:104730000020207720680069C0F30010D8B12068FD
:10474000C068C0F30010B0B16FF0100021680861BC
:10475000082020772068C06900F4407018B1204616
:10476000FFF782FF05E0204600F0CAF8204600F07F
:104770007EF9002020772068006900F0010058B120
:104780002068C06800F0010030B16FF001002168BE
:104790000861204600F06CF920680069C0F3C01081
:1047A00058B12068C068C0F3C01030B16FF080000D
:1047B000216808612046FFF720FD20680069C0F3EA
:1047C000801058B12068C068C0F3801030B16FF01D
:1047D000400021680861204600F04BF9206800691C
:1047E000C0F3401058B12068C068C0F3401030B129
:1047F0006FF02000216808612046FFF7FFFC10BD24
:1048000010B586B00446142101A8FBF73EFF3549D8
:10481000206888421FD100BF002000903248006805
:1048200040F01000304908600846006800F01000B1
:10483000009000BF00BF4FF4C440019002200290DE
:1048400001200390022004900120059001A927482F
:10485000FEF724FD43E02649206888421ED100BFB0
:10486000002000902048006840F080001E49086049
:104870000846006800F08000009000BF00BF4FF4C1
:10488000E050019002200290012003900220049049
:10489000059001A91748FEF701FD20E016492068A0
:1048A00088421CD100BF002000900F48006840F0F3
:1048B00020000D4908600846006800F020000090C4
:1048C00000BF00BF40200190022002900020039012
:1048D00004900320059001A90848FEF7DFFC06B00C
:1048E00010BD0000000001403038024000100240BE
:1048F000000C0040001C0240004401400014024033
:1049000070472DE9F04104460D461646002700BFCA
:1049100094F83C00012802D10220BDE8F08101207A
:1049200084F83C0000BF36B1042E1BD0082E31D0D5
:104930000C2E5ED145E02946206804F0F1F920688C
:10494000806940F00800216888612068806920F053
:10495000040021688861206880692969084321680A
:10496000886148E02946206804F012FA20688069CE
:1049700040F40060216888612068806920F48060CC
:104980002168886120688069296940EA01202168DE
:10499000886130E02946206804F038FA2068C06950
:1049A00040F008002168C8612068C06920F0040058
:1049B0002168C8612068C069296908432168C86105
:1049C00019E02946206804F05DFA2068C06940F4C7
:1049D00000602168C8612068C06920F48060216897
:1049E000C8612068C069296940EA01202168C8615E
:1049F00001E0012700BF00BF00BF002084F83C0099
:104A000000BF384689E710B504460CB9012010BD37
:104A100094F83D0028B9002084F83C00204600F0BE
:104A200025F8022084F83D00211D206804F0F8F8E4
:104A3000012084F8460000BF84F83E0001213F2099
:104A40000155402001554120015500BF00BF012004
:104A500084F842004320015544200155452001556A
:104A600000BF012084F83D000020D0E77047704768
:104A700070477047704770472DE9F84F044620682B
:104A800005682068C668206847694FF00009CA4673
:104A900005F00F09B9F1000F0AD105F0200038B177
:104AA00006F0200020B1204604F0FBFABDE8F88FA4
:104AB000B9F1000F7CD007F0010018B906F490702E
:104AC000002875D005F0010030B106F4807018B1EF
:104AD000206C40F00100206405F0040030B107F0C4
:104AE000010018B1206C40F00200206405F00200C3
:104AF00030B107F0010018B1206C40F004002064D0
:104B000005F0080048B106F0200010B907F00100D8
:104B100018B1206C40F008002064206C002846D0BA
:104B200005F0200028B106F0200010B1204604F066
:104B3000B8FA20684069C0F3801A206C00F00800C1
:104B400010B9BAF1000F2DD0204604F051FA2068B8
:104B5000406900F04000402820D100BF00BF21681C
:104B6000143151E8001F21F040002168143141E860
:104B70000002002AF3D100BFA06B50B17548A16BB1
:104B80000865A06BFEF73FF988B1A06B016D8847FF
:104B90000DE02046FFF76FFF09E009E02046FFF730
:104BA0006AFF04E02046FFF766FF002020647DE7EF
:104BB000206B012876D105F01000002872D006F095
:104BC00010000028FAD000BF002000902068006884
:104BD000009020684068009000BF00BF20684069D6
:104BE00000F0400040285ED1A06B006840681FFACA
:104BF00080F8B8F1000F54D0A08D404551DDA4F8E5
:104C00002E80A06BC069B0F5807F43D000BF00BF8D
:104C100021680C3151E8001F21F4807021680C31AB
:104C200041E80002002AF3D100BF00BF00BF2168A5
:104C3000143151E8001F21F001002168143141E8CE
:104C40000002002AF3D100BF00BF00BF2168143169
:104C500051E8001F21F040002168143141E80002B2
:104C6000002AF3D100BF202084F83E0000202063FA
:104C700000BF00BF21680C3151E8001F21F0100077
:104C800021680C3141E80002002AF3D100BFA06B7B
:104C9000FEF763F8A08DE28D801A81B22046FFF7FF
:104CA000E9FE03E740E0A08DE18D401A1FFA80F88D
:104CB000E08DC0B3B8F1000F35D000BF00BF216850
:104CC0000C3151E8001F21F4907021680C3141E84B
:104CD0000002002AF3D100BF00BF00BF21681431D9
:104CE00051E8001F21F001002168143141E8000261
:104CF000002AF3D100BF202084F83E00002020636A
:104D000000BF00BF21680C3151E8001F21F01000E6
:104D100021680C3141E80002002AF3D100BF41466E
:104D20002046FFF7A7FEC1E605F0800030B106F08F
:104D3000800018B1204604F047FBB7E605F04000BC
:104D400030B106F0400018B1204604F087F9ADE616
:104D500000BFABE6278F000810B504460CB9012050
:104D600010BDA06900B100E000BF94F83D0028B973
:104D7000002084F83C00204600F028F8242084F825
:104D80003D002068C06820F400502168C8602046BB
:104D900004F004FA2068006920F49040216808615A
:104DA0002068406920F02A00216848612068C068B6
:104DB00040F400502168C86000202064202084F85E
:104DC0003D0084F83E000020CAE7000010B586B020
:104DD0000446142101A8FBF758FCC049206888420A
:104DE0007ED100BF00200090BD48006840F0100058
:104DF000BB4908600846006800F01000009000BF42
:104E000000BF00BF00200090B5481438006840F093
:104E10000200B349143908600846006800F0020037
:104E2000009000BF00BF00BF00200090084600684F
:104E300040F0010008600846006800F001000090A2
:104E400000BF00BF8020019002200290002003904C
:104E5000032004900720059001A9A248FEF71EFA3E
:104E60004FF4007001900220029000200390032074
:104E700004900720059001A99B48FEF70FFA9B4874
:104E80009B4908604FF000604860002198488160AD
:104E9000C1604FF480610161002141618161C161A4
:104EA0004FF44031016200214162FEF7E1F808B1A0
:104EB000FDF7C8F900BF8E48A063846300BF8B482C
:104EC00030308C4908604FF00060486040218948CC
:104ED00081600021C1604FF480610161002100E028
:104EE0001AE041618161C1614FF4403101620021EA
:104EF0004162FEF7BDF808B1FDF7A4F900BF7D4897
:104F00006063846300BF002205212520FEF756FB65
:104F10002520FEF743FBDEE07749206888425BD11D
:104F200000BF002000906E48001F006840F4802001
:104F30006B49091F08600846006800F48020009053
:104F400000BF00BF00BF0020009065481438006813
:104F500040F004006249143908600846006800F017
:104F60000400009000BF00BF4FF440600190022099
:104F7000029000200390032004900720059001A9CF
:104F80005E48FEF78BF95E485E4908604FF00060AE
:104F9000486000215B488160C1604FF4806101611D
:104FA000002141618161C1614FF400310162002142
:104FB0004162FEF75DF808B1FDF744F900BF5148C2
:104FC000A063846300BF002204212720FEF7F6FAC5
:104FD0002720FEF7E3FA7EE04B49206888427AD129
:104FE00000BF002000903E48006840F020003C498F
:104FF00008600846006800F02000009000BF00BF75
:1050000000BF0020009036481438006840F040008F
:105010003349143908600846006800F040000090E9
:1050200000BF00BF4FF48440019002200290002096
:105030000390032004900820059001A93348FEF74F
:105040002DF92A48603832490860800548600021FF
:105050002F488160C1604FF480610161002141618E
:105060008161C1614FF44031016200214162FDF76D
:10507000FFFF08B1FDF7E6F800BF2548A063846391
:1050800000BF1A481830234908604FF0206048607C
:105090004021204881600021C1604FF4806101619E
:1050A000002141618161C1614FF440310162002101
:1050B0004162FDF7DDFF08B1FDF7C4F800BF1548F8
:1050C0006063846300BF002205214720FEF776FA63
:1050D0004720FEF763FA06B010BD00000010014043
:1050E000443802400004024000000240886402404C
:1050F000F40B0020540C002000480040000802403F
:1051000028600240B40C0020001401400018024046
:10511000140D0020740D002070470000F7B5044600
:10512000154694F83D00202846D1019800B10DB9EC
:105130000120FEBD00BF94F83C00012801D10220EF
:10514000F7E7012084F83C0000BF01982062A584A5
:10515000E58400202064212084F83D001748616B1D
:10516000C8631748616B08641648616BC864002007
:10517000616B086501AE23681A1D31682B46606BB0
:10518000FDF7ECFF6FF040002168086000BF0020D1
:1051900084F83C0000BF00BF00BF2168143151E813
:1051A000001F41F080002168143141E80002002A0C
:1051B000F3D100BF0020BCE70220BAE78B8F0008C4
:1051C000E38F00083B8F00087047704700BFFEE781
:1051D00010B50E480E4908600320486000210C48B5
:1051E0008160C1604FF4102101614FF400114161F1
:1051F0000021017641768176C17601774177FDF70E
:105200005CFB08B1FDF71EF810BD00000064004013
:10521000A008002010B50E480E4908600320486021
:1052200000210C488160C1604FF4102101614FF4EE
:10523000001141610021017641768176C1760177C6
:105240004177FDF73AFB08B1FCF7FCFF10BD000009
:1052500000680040C808002008B500BF002000908A
:105260002A48006840F48000284908600846006821
:1052700000F48000009000BF00BF00BF002000903D
:105280000846006840F4001008600846006800F412
:105290000010009000BF00BF002205210C20FEF787
:1052A0008DF90C20FEF77AF9002205213920FEF74E
:1052B00085F93920FEF772F9002205213A20FEF720
:1052C0007DF93A20FEF76AF9002205213B20FEF71E
:1052D00075F93B20FEF762F9002205214420FEF714
:1052E0006DF94420FEF75AF9002205214520FEF70A
:1052F00065F94520FEF752F9002205214620FEF708
:105300005DF94620FEF74AF908BD0000303802403A
:1053100000B595B01C2212490EA8FBF75AF90021DE
:105320000EA805F0A2FC0F4908601C220C491C3194
:1053300007A8FBF74EF9002107A805F096FC0A49DB
:1053400008601C22064938316846FBF742F9002103
:10535000684605F08AFC0549086015B000BD0000EC
:1053600094D4000800000020080000200C00002059
:1053700000B587B0142102A8FBF787F900BF002011
:1053800001906B48006840F00200694908600846D7
:10539000006800F00200019000BF00BF00BF0020C5
:1053A00001900846006840F0400008600846006828
:1053B00000F04000019000BF00BF00BF002001903E
:1053C0000846006840F0010008600846006800F0E8
:1053D0000100019000BF00BF00BF002001900846FF
:1053E000006840F0080008600846006800F0080007
:1053F000019000BF00BF00BF002001900846006878
:1054000040F0040008600846006800F004000190C5
:1054100000BF00BF00BF002001900846006840F0B8
:10542000800008600846006800F08000019000BF1E
:1054300000BF00BF002001900846006840F0200037
:1054400008600846006800F02000019000BF00BF1F
:1054500000BF002001900846006840F0100008607E
:105460000846006800F01000019000BF00BF012254
:1054700010213048FEF70CF800224FF400612E484E
:10548000FEF706F8012211462C48FEF701F810201D
:1054900002900120039004900220059002A9254863
:1054A000FDF7FCFE302002904FF404100390012021
:1054B000049002A92248FDF7F1FE012002904FF46A
:1054C000041003900120049002A91E48FDF7E6FE97
:1054D0004FF400600290012003900020049005909A
:1054E00002A91548FDF7DAFE01200290039004900E
:1054F0000220059002A91148FDF7D0FE00220621E6
:105500000846FEF75BF80620FEF748F80022052162
:105510000A20FEF753F80A20FEF740F80022052182
:105520001720FEF74BF81720FEF738F807B000BD3C
:1055300030380240000002400010024000040240E7
:10554000000802400018024010B50F480F490860DB
:105550004FF48270486000210C488160C1600221D4
:10556000016101214161490281613821C16100214C
:105570000162416281620A21C162FEF7FFFB08B14C
:10558000FCF760FE10BD000000300140F008002074
:1055900000B587B01C216846FBF777F81548164917
:1055A00008600020486000211348816041F2873183
:1055B000C160002101618161FEF7B6FE08B1FCF710
:1055C00041FE0D48FFF71FFA08B1FCF73BFE6020D3
:1055D0000090002001900290049000226946064845
:1055E000FFF78FF908B1FCF72DFE0348FFF708F924
:1055F00007B000BD00440140E00A002000B595B0AE
:10560000002011901290139014900F9010901C2174
:1056100008A8FBF73AF820216846FBF736F834482B
:1056200034490860A720486000213248816044F670
:105630001F61C1600021016141618161FEF774FE5B
:1056400008B1FCF7FFFD4FF48050119011A92948D3
:10565000FEF784FF08B1FCF7F5FD2648FFF7D3F904
:1056600008B1FCF7EFFD00200F9010900FA9214822
:10567000FEF700FE08B1FCF7E5FD60200890002071
:1056800009900A900B900C900D900E90002208A9A2
:105690001848FFF736F908B1FCF7D4FD4FF47A70DB
:1056A0000990082208A91348FFF72BF908B1FCF765
:1056B000C9FD0C2208A90F48FFF723F908B1FCF730
:1056C000C1FD0020009001900290039004904FF4DF
:1056D000005005900020079069460648FEF78FFDB0
:1056E00008B1FCF7AFFD0348FFF78AF815B000BD1D
:1056F00000000140080A002000B587B00020039098
:105700000490059006900190029015481549086094
:10571000A720486000211348816042F20F71C160E8
:105720000021016180218161FEF7FEFD08B1FCF7D7
:1057300089FD4FF48050039003A90A48FEF70EFF3D
:1057400008B1FCF77FFD00200190029001A90548F7
:10575000FEF790FD08B1FCF775FD07B000BD000035
:1057600000080040500A002000B58DB000200990CC
:105770000A900B900C90079008901C216846FAF74D
:1057800084FF2848284908600020486000212648F6
:1057900081604FF6FF71C160002101618161FEF7F8
:1057A000C3FD08B1FCF74EFD4FF48050099009A9E4
:1057B0001D48FEF7D3FE08B1FCF744FD1A48FFF779
:1057C00022F908B1FCF73EFD00200790089007A9D8
:1057D0001548FEF74FFD08B1FCF734FD602000903E
:1057E0000020019002900490002269460E48FFF7C5
:1057F00088F808B1FCF726FD042269460A48FFF73D
:1058000080F808B1FCF71EFD082269460648FFF73C
:1058100078F808B1FCF716FD0348FEF7F1FF0DB06C
:1058200000BD0000000C0040980A002010B50B4895
:105830000B4908604FF4E13048600021084881605E
:10584000C16001610C21416100218161C161FFF7EB
:1058500083FA08B1FCF7F6FC10BD0000001001400F
:10586000280B002010B50A480A4908600A48486019
:10587000002108488160C16001610C214161002163
:105880008161C161FFF768FA08B1FCF7DBFC10BD6C
:10589000004800406C0B0020A086010010B50B48AA
:1058A0000B4908604FF4E1304860002108488160EE
:1058B000C16001610C21416100218161C161FFF77B
:1058C0004BFA08B1FCF7BEFC10BD0000001401400B
:1058D000B00B002000BFFEE700BFFEE7B0EE401AAD
:1058E00010B99FED790A704790ED100A80ED110A0A
:1058F00090ED0F0A80ED100AC0ED060A80ED071A40
:1059000030EEC10A80ED0F0A0178002975D190EDC3
:10591000010AD0ED0F1A20EE210A80ED090A90ED60
:105920000A0AD0ED021A90ED0F2A01EE820A80EDEC
:105930000A0A90ED0D0A80ED0E0A90ED0C0A80ED3A
:105940000D0A90ED0F0AD0ED101A30EE610A80EDCD
:105950000C0A90ED030AD0ED0C1A20EE210A80ED1E
:105960000B0A90ED0A0AD0ED051AB4EEE10AF1EE49
:1059700010FA04DD90ED050A80ED0A0A10E090EDC2
:105980000A0AD0ED051AF1EE611AB4EEE10AF1EE61
:1059900010FA05D290ED050AB1EE400A80ED0A0A30
:1059A00090ED090AD0ED0A1A30EE210AD0ED0B1A5B
:1059B00030EE210A80ED080A90ED080AD0ED041AB5
:1059C000B4EEE10AF1EE10FA04DD90ED040A80ED88
:1059D000080A76E090ED080AD0ED041AF1EE611A9B
:1059E000B4EEE10AF1EE10FA6BD290ED040AB1EEDA
:1059F000400A80ED080A64E0FFE70178012960D1E0
:105A000090ED0F0AD0ED101A30EE610AD0ED011AB8
:105A100020EE210A80ED090A90ED020AD0ED0F1A5E
:105A200020EE210A80ED0A0A90ED0D0A80ED0E0AA3
:105A300090ED0C0A80ED0D0A90ED0F0AD0ED101AD2
:105A4000B0EE002A02EE610AD0ED111A30EE210A02
:105A500080ED0C0A90ED030AD0ED0C1A20EE210A1D
:105A600080ED0B0A90ED090AD0ED0A1A30EE210AFA
:105A7000D0ED0B1A30EE210AD0ED081A30EE210AD3
:105A800080ED080A90ED080AD0ED041AB4EEE10AA0
:105A9000F1EE10FA04DD90ED040A80ED080A10E042
:105AA00090ED080AD0ED041AF1EE611AB4EEE10AA5
:105AB000F1EE10FA05D290ED040AB1EE400A80ED45
:105AC000080A90ED080A0EE70000000000B97047D0
:105AD000017080ED010AC0ED020A80ED031AC0EDED
