:020000040800F2
:10000000A051002031030008953400080132000897
:100010009134000829090008894300080000000005
:100020000000000000000000000000007102000855
:100030003913000800000000CD020008E93D000867
:100040004B0300084B0300084B0300084B03000858
:100050004B0300084B0300084B0300084B03000848
:100060004B0300084B0300084B0300084B03000838
:100070004B0300084B0300084B0300084B03000828
:100080004B0300084B0300084B0300084B03000818
:100090002D0900084B0300084B0300084B03000820
:1000A0004B0300084B0300084B0300084B030008F8
:1000B0004B0300084B0300084B0300084B030008E8
:1000C0004B0300084B0300084B0300084B030008D8
:1000D0004B0300084B0300084B0300084B030008C8
:1000E0004B0300084B0300084B0300084B030008B8
:1000F0004B0300084B0300084B0300084B030008A8
:100100004B0300084B0300084B0300084B03000897
:100110004B0300084B0300084B0300084B03000887
:100120004B030008D90F0008E90F00084B03000833
:100130004B0300084B0300084B0300084B03000867
:100140003D0900084B0300084B0300084B0300085F
:100150004B030008F90F0008091000084B030008C2
:100160004B0300084B0300084B0300084B03000837
:100170004B0300084B0300084B030008000000007D
:100180004B0300084B03000800F002F800F060F891
:100190000AA090E8000C82448344AAF10107DA45E2
:1001A00001D100F055F8AFF2090EBAE80F0013F0D4
:1001B000010F18BFFB1A43F00103184778840000B1
:1001C000988400000A444FF0000C10F8013B13F033
:1001D000070408BF10F8014B1D1108BF10F8015BA0
:1001E000641E05D010F8016B641E01F8016BF9D193
:1001F00013F0080F1EBF10F8014BAD1C0C1B09D1EA
:100200006D1E58BF01F801CBFAD505E014F8016B5B
:1002100001F8016B6D1EF9D59142D6D370470000ED
:100220000023002400250026103A28BF78C1FBD8FF
:10023000520728BF30C148BF0B6070471FB508F098
:100240006BF89DE8030000F0D3F91FBD10B510BD99
:1002500000F078FA1146FFF7F1FF05F09AFE00F082
:1002600096FA03B4FFF7F2FF03BC00F0CDFA0000EA
:100270002C4B19680868B0E8F04F80F30988BFF389
:100280006F8F4FF0000080F311887047000000006E
:1002900008480068006880F308884FF0000080F389
:1002A000148862B661B6BFF34F8FBFF36F8F00DF64
:1002B00000BF00BF08ED00E0DFF80C00016841F46A
:1002C00070010160704700BF88ED00E0EFF3098026
:1002D000BFF36F8F134B1A681EF0100F08BF20ED8D
:1002E000108A20E9F04F106009B44FF0500080F3FD
:1002F0001188BFF34F8FBFF36F8F06F0E9FB4FF00C
:10030000000080F3118809BC19680868B0E8F04F54
:100310001EF0100F08BFB0EC108A80F30988BFF3FD
:100320006F8F704720000020EFF3058070470000BA
:100330000948804709480047FEE7FEE7FEE7FEE779
:10034000FEE7FEE7FEE7FEE7FEE7FEE704480549B5
:10035000054A064B70470000B13E000889010008BD
:10036000A04B0020A0510020A04D0020A04D002057
:1003700070B5064600F020F9056806F10B0020F084
:100380000704B4429CBF002070BD2B466A68BAB116
:100390001068A04210D304F1080188423CBF5068A5
:1003A000586007D35168101941601168091B01603A
:1003B00058601460101D70BD13465268002AE7D1C2
:1003C0002146284600F000F90028DED170BD53EA2E
:1003D000020C00F069802DE9F04B4FF00006002B75
:1003E0001FBFB3FA83F503FA05F424FA05F65E405D
:1003F00012BF1643B2FA82F502FA05F4C5F12005E0
:100400001EBF22FA05FC44EA0C04203556EA044CCF
:100410004FEA144418BF641C4FF000084FF0000965
:10042000904271EB030C39D3002919BFB1FA81F75F
:1004300001FA07F6B0FA80F700FA07F6C7F12007CD
:100440001EBF20FA07FC46EA0C062037B6FBF4FC78
:10045000A7EB0507103F07F01F0BCBF120060CFAA6
:100460000BFB2CFA06F644BFB3460026202FA4BF90
:100470005E464FF0000B5BEA060C08BF4FF0010B25
:1004800019EB0B09ABFB027C48EB0608C01B06FB13
:1004900002CC0BFB03CC71EB0C01C1E70B4602460F
:1004A00041464846BDE8F08B13B54FF000004FF0D1
:1004B0000001AFF30080BDE81C40704710B5203A42
:1004C000C0F00B80B1E81850203AA0E81850B1E80D
:1004D0001850A0E81850BFF4F5AF5FEA027C24BFC3
:1004E000B1E81850A0E8185044BF18C918C0BDE8BA
:1004F00010405FEA827C24BF51F8043B40F8043B83
:1005000008BF7047D20728BF31F8023B48BF11F837
:10051000012B28BF20F8023B48BF00F8012B704791
:100520004FF000020429C0F0128010F0030C00F01C
:100530001B80CCF1040CBCF1020F18BF00F8012B9A
:10054000A8BF20F8022BA1EB0C0100F00DB85FEA68
:10055000C17C24BF00F8012B00F8012B48BF00F834
:10056000012B70474FF0000200B5134694469646A3
:10057000203922BFA0E80C50A0E80C50B1F12001B6
:10058000BFF4F7AF090728BFA0E80C5048BF0CC064
:100590005DF804EB890028BF40F8042B08BF7047C2
:1005A00048BF20F8022B11F0804F18BF00F8012B34
:1005B000704770477047704700487047484B0020AD
:1005C000704770477047704738B504460A460020A8
:1005D0006946AFF30080002808BF38BD0246009985
:1005E000204600F075F8012038BD012000F0A2B8C7
:1005F000F8B5AFF30080054600200C46102000BF80
:100600000646A819A0420DD9324669460020AFF32C
:100610000080070008BF00F08DF80098A04218BFC6
:100620000546C419FFF7C8FF05600746F01D20F016
:1006300007004619284600F00AF8B44208BFF8BD82
:10064000A21B31463868BDE8F84000F041B80021EF
:100650000160C0E9011070471020704770B5044672
:10066000051FFFF7A9FF0068002C14BF446870BD88
:10067000002C18BFAC423CBF20466468F8D3016828
:100680000A18AA4218BF456003D12A6805461144DA
:10069000016028684119A1421CBF6C6070BD61688F
:1006A000696021680844286070BD10B500F00CF83E
:1006B000006810BD10B5044600F006F8046010BDD7
:1006C00000487047404B002000487047404B0020D6
:1006D000034640688C46002818BF88423CBF03464A
:1006E0004068F8D318681844884207D00CF103001A
:1006F00020F00700001D411A521A0146081D0A6029
:10070000FFF7ACBF1FB584B000200A9C06AB04AA5B
:1007100002A90094AFF3008018B1DDE9020108B02E
:1007200010BD0348204000F040F800200146F6E7E5
:100730000000207C10B500F03FF8BDE8104000F04C
:100740002FB870477546FFF7BBFFAE4605006946F8
:10075000534620F00700854618B020B5FFF7F6FD98
:10076000BDE820404FF000064FF000074FF00008B2
:100770004FF0000B21F00701AC46ACE8C009ACE833
:10078000C009ACE8C009ACE8C0098D46704710B597
:100790000446AFF300802046BDE81040FFF761BD7E
:1007A000002801D000F030B8704710B500F04CF8C8
:1007B000BDE81040FFF7F4BF10B5012805D00021B7
:1007C00003A000F027F8012010BD09A1F8E7000000
:1007D00053494752544D454D3A204F7574206F662A
:1007E0002068656170206D656D6F72790000000092
:1007F0003A2048656170206D656D6F727920636F76
:10080000727275707465640001491820ABBEFEE712
:100810002600020070B505460C460A2000E06D1C5B
:1008200000F068F835B128780028F8D102E0641C9F
:1008300000F060F814B120780028F8D1BDE87040CD
:100840000A2000F057B8000010B5022803D041017B
:1008500003D50DA112E0002010BD010101D50FA1AB
:100860000CE0C10001D511A108E0810001D512A161
:1008700004E0400001D513A100E0002115A0FFF71E
:10088000C9FF012010BD0000496E76616C696420CB
:100890004F7065726174696F6E000000446976691B
:1008A0006465204279205A65726F00004F76657248
:1008B000666C6F7700000000556E646572666C6F41
:1008C00077000000496E6578616374205265737526
:1008D0006C7400005349474650453A204172697490
:1008E000686D6574696320657863657074696F6E9F
:1008F0003A20000008B569468DF800000320ABBE21
:1009000008BD00000DE003F0FBFB064800F01EF8F8
:10091000012005F064FB034800F08EF8012005F08B
:100920005EFBF0E70045002000BFFEE710B502487F
:1009300000F016FF10BD0000B805002010B50248F9
:1009400000F00EFF10BD0000E00500201FB50446BA
:10095000D4ED000AB0EE600A10209FED301ADFEDF2
:10096000300A05F074F980B2ADF80400D4ED010A44
:10097000B0EE600A10209FED2B1ADFED2B0A05F078
:1009800066F980B2ADF80600D4ED020AB0EE600A56
:1009900010209FED241ADFED240A05F058F980B2EB
:1009A000ADF80800D4ED030AB0EE600A10209FED08
:1009B0001D1ADFED1D0A05F04AF980B2ADF80A00F4
:1009C0004FF40C701949086000208860C860082046
:1009D0000861BDF80400001215490870BDF8040054
:1009E0004870BDF8060000128870BDF80600C87097
:1009F000BDF8080000120871BDF808004871BDF884
:100A00000A0000128871BDF80A00C8716B460A46D8
:100A10000649084800F0A9FC1FBD0000000048423C
:100A2000000048C2DA0FC940DA0FC9C0D44500201F
:100A3000A4000020E00500201FB50446D4ED040A00
:100A4000B0EE600A10209FED1D1ADFED1D0A05F0C3
:100A5000FEF880B2ADF80C00D4ED050AB0EE600AE5
:100A600010209FED161ADFED160A05F0F0F880B29F
:100A7000ADF80E0040F23120124908600020886075
:100A8000C86008200861BDF80C0000120E4908700B
:100A9000BDF80C004870BDF80E0000128870BDF85B
:100AA0000E00C8700020087148718871C8716B46CB
:100AB0000A460449054800F058FC1FBDDA0FC9403A
:100AC000DA0FC9C0D4450020A4000020E0050020B2
:100AD00038B505460C4640F2FF100D49086000206D
:100AE0008860C8600820086100200A4908704870C2
:100AF000280A8870CD70200A08714C710020887116
:100B0000C8716B460A460249034800F02EFC38BD06
:100B1000BC45002094000020B805002038B50446EC
:100B200040F2FF100C49086000208860C86008206F
:100B30000861200A094908704C7000208870C8704C
:100B4000087148718871C8716B460A4602490448A9
:100B500000F00BFC38BD0000BC45002094000020D4
:100B6000E005002008B501200C49086000208860DD
:100B7000C86008200861FF20094908704870887023
:100B8000C870087148718871FD20C8716B460A46AB
:100B90000249044800F0E9FB08BD0000BC45002004
:100BA0009C000020B805002008B501200C49086011
:100BB00000208860C86008200861FF20094908708B
:100BC00048708870C870087148718871FC20C871BD
:100BD0006B460A460249044800F0C7FB08BD000006
:100BE000BC4500209C000020B805002008B503206B
:100BF0000C49086000208860C86008200861FF2058
:100C00000949087048708870C87008714871887107
:100C1000FD20C8716B460A460249044800F0A5FB56
:100C200008BD0000BC4500209C000020B805002045
:100C300008B503200C49086000208860C8600820BF
:100C40000861FF200949087048708870C8700871F1
:100C500048718871FC20C8716B460A4602490448F5
:100C600000F083FB08BD0000BC4500209C00002074
:100C7000B805002008B505200C49086000208860F0
:100C8000C86008200861FF20094908704870887012
:100C9000C870087148718871FD20C8716B460A469A
:100CA0000249044800F061FB08BD0000BC4500207B
:100CB0009C000020B805002008B505200C490860FC
:100CC00000208860C86008200861FF20094908707A
:100CD00048708870C870087148718871FC20C871AC
:100CE0006B460A460249044800F03FFB08BD00007D
:100CF000BC4500209C000020B80500202DE9F041F3
:100D00002DED068B82B0B0EE40AAB0EE608AF0EE18
:100D1000418AB0EE619AF0EE429A10209FED2D1AB2
:100D2000DFED2D0AB0EE4A0A04F091FF84B20C20E8
:100D3000B3EE041AFBEE040AB0EE480A04F087FF93
:100D400085B20C209FED251ADFED250AB0EE680A6A
:100D500004F07DFF86B20C20B1EE041ADFED200A0C
:100D6000B0EE490A04F073FF87B20C20B2EE041A09
:100D7000FAEE040AB0EE690A04F069FF1FFA80F87F
:100D800001201849086000208860C86008200861B8
:100D90002012154908704C70C5F307108870280799
:100DA000000E40EA2620C8700E71C7F30710487184
:100DB0003807000E40EA2820887181F8078001ABCF
:100DC0000A460849094800F0D0FA02B0BDEC068B8B
:100DD000BDE8F081DC0F4940DC0F49C00000FA4358
:100DE00000000000BC4500209C000020B805002049
:100DF0002DE9F0412DED068B82B0B0EE40AAB0EEA9
:100E0000608AF0EE418AB0EE619AF0EE429A1020CC
:100E10009FED2D1ADFED2D0AB0EE4A0A04F017FF00
:100E200084B20C20B3EE041AFBEE040AB0EE480ABA
:100E300004F00DFF85B20C209FED251ADFED250A89
:100E4000B0EE680A04F003FF86B20C20B1EE041A7B
:100E5000DFED200AB0EE490A04F0F9FE87B20C205B
:100E6000B2EE041AFAEE040AB0EE690A04F0EFFEDC
:100E70001FFA80F803201849086000208860C860C5
:100E8000082008612012154908704C70C5F307103E
:100E900088702807000E40EA2620C8700E71C7F33C
:100EA000071048713807000E40EA2820887181F841
:100EB000078001AB0A460849094800F056FA02B01B
:100EC000BDEC068BBDE8F081DC0F4940DC0F49C06A
:100ED0000000FA4300000000BC4500209C000020F8
:100EE000B80500202DE9F0412DED068B82B0B0EE63
:100EF00040AAB0EE608AF0EE418AB0EE619AF0EE60
:100F0000429A10209FED2D1ADFED2D0AB0EE4A0A0D
:100F100004F09DFE84B20C20B3EE041AFBEE040A2A
:100F2000B0EE480A04F093FE85B20C209FED251A1E
:100F3000DFED250AB0EE680A04F089FE86B20C20C7
:100F4000B1EE041ADFED200AB0EE490A04F07FFE8C
:100F500087B20C20B2EE041AFAEE040AB0EE690A67
:100F600004F075FE1FFA80F805201849086000207B
:100F70008860C860082008612012154908704C700C
:100F8000C5F3071088702807000E40EA2620C870B5
:100F90000E71C7F3071048713807000E40EA282089
:100FA000887181F8078001AB0A460849094800F0BA
:100FB000DCF902B0BDEC068BBDE8F081DC0F4940E6
:100FC000DC0F49C00000FA4300000000BC450020CF
:100FD0009C000020B805002010B5024801F078F808
:100FE00010BD00005007002010B5024801F070F855
:100FF00010BD0000F006002010B5024801F068F8AE
:1010000010BD0000B007002010B5024801F060F8E4
:1010100010BD000090060020014608781038182303
:10102000B0FBF3F20848805CC865032A05D908685C
:101030006FF30900001D886503E008686FF309007D
:101040008865886D70470000D08500080146002043
:101050008A6A8B69CBB932B1012A0DD0022A03D03A
:10106000032A10D10EE000BFCB6A03F08073B3F106
:10107000807F00D1012007E0CB6AB3F1C07F00D1AF
:10108000012001E000E000BF34E08B69B3F5005FB0
:101090001AD132B1012A07D0022A03D0032A11D172
:1010A0000AE000BF01200EE0CB6A03F08073B3F1C9
:1010B000807F00D1012006E0CB6AB3F1C07F00D170
:1010C000012000E000BF15E032B1012A05D0022A5C
:1010D00004D0032A0CD103E000BF00BF012008E0C8
:1010E000CB6A03F08073B3F1807F00D1012000E070
:1010F00000BF00BF7047000008B508484068009076
:10110000074900980968884204D206480068401CD4
:101110000449086002490098086008BD001000E01A
:10112000E8000020E40000200C494868F0EE400A86
:1011300000BF0A494968091A01EE101AF8EE411A6F
:10114000074991ED001AB8EE411A20EE811AF4EE2B
:10115000C11AF1EE10FAECD370470000001000E065
:10116000D800002010B52DED028B82B004460E4849
:101170004068019020680199081A00EE100AF8EE04
:10118000400A0A4890ED000AB8EE400A80EE801A44
:10119000B0EE418A01982060FFF7AEFFB0EE480A3A
:1011A00002B0BDEC028B10BD001000E0D8000020A2
:1011B00010B52DED028B00F057F80F4880880E49CE
:1011C000096801EB4102C2EBC11100EBC10000EE66
:1011D000100AB8EE400A0848C08800EE900AF8EEFF
:1011E000600A9FED061A00EE810AB0EE408AB0EE6A
:1011F000480ABDEC028B10BDD00000206F12833A6C
:101200001249096841F08071104A11600021104AAA
:1012100051601146096841F0010111600D494143D7
:101220000D4A1160114609684FF47A72B1FBF2F170
:101230000A4A116008490968064AB1FBF2F1084AF6
:1012400011600021074A116070470000FCED00E0CA
:10125000001000E040420F00D8000020DC00002019
:10126000E0000020E400002038B5294840680090E4
:10127000FFF742FF274800684FF0FF31A0FB013124
:101280000098181841F10001234A03C223480023A3
:101290002149026803C9FFF79AF8214A03C220488E
:1012A0000CC81E4800680024A2FB001503FB005078
:1012B00002FB04021848D0E90030591A60EB020022
:1012C000184AC2E900101648006817490860174814
:1012D00000231449026803C9FFF779F8124988808E
:1012E000084680881149096841430E48D0E900301A
:1012F000591A60F100000E4AC2E900100D4800239F
:101300000B49026803C9FFF762F80749C88038BD76
:10131000001000E0E4000020F0000020D8000020D1
:10132000F800002000010020D0000020DC00002098
:1013300008010020E0000020704772B600BFFEE701
:1013400010B5024692F82030012B01D0022B06D1B5
:1013500010684069084314686061002010BD506A3D
:1013600040F4802050620120F8E7F0B504460D46B5
:101370001E4694F8207020688368A86800B900E0D1
:1013800000BF012F01D0022F7CD103F0806030B963
:1013900003F0006018B903F08050002873D0C3F345
:1013A0000161022905D9606A40F4000060620120F1
:1013B000F0BD012088403060A86860B9B5F800C071
:1013C000E86840EA4C5C206800F5C07000EB011052
:1013D000C0F800C00FE0D5E901C040EACC00D5F864
:1013E0000CC040EA0C00D4F800C00CF5C07C0CEB3B
:1013F000011CCCF80000D5F810C0206800F5C070C2
:1014000000EB0110C0F804C0287D01280ED120682F
:1014100000F5C07000EB0110406840F4807C20684B
:1014200000F5C07000EB0110C0F804C0D0790006D0
:1014300092F806C040EA0C4092F805C040EA0C2C35
:1014400010794CEA000C206800F5C07000EB011028
:10145000C0F80CC0D078000692F802C040EA0C40F8
:1014600092F801C040EA0C2092F800C040EA0C005B
:10147000D4F800C00CF5C07C0CEB011CCCF80800C3
:10148000206801E016E00FE000F5C07000EB0110ED
:10149000006840F0010C206800F5C07000EB0110FE
:1014A000C0F800C0002083E7606A40F4001060626A
:1014B00001207DE7606A40F480206062012077E7C8
:1014C000F0B504460A46216894F82050012D01D059
:1014D000022D7ED1424901F50071086840F00100FB
:1014E0000860086820F47C5008600868566A40EA82
:1014F00006200860107D00F01F06012000FA06F3A8
:10150000C8699843C861A1F50071D069C8B9D1F81C
:101510000C029843C1F80C02908880B2968940EA88
:10152000064601F51070576940F83760108880B2A0
:10153000168940EA064601F51070576900EBC700AE
:101540004660D069012819D1D1F80C021843C1F8BE
:101550000C02908880B2168840EA064601F51070A9
:10156000576940F83760908980B2168940EA06468C
:1015700001F51070576900EBC7004660906928B903
:10158000D1F804029843C1F8040204E0D1F804023F
:101590001843C1F80402106928B9D1F8140298431D
:1015A000C1F8140204E0D1F814021843C1F814027F
:1015B000106A012804D1D1F81C021843C1F81C029A
:1015C000D1F8000220F00100C1F800020020F0BDB7
:1015D000FFE7606A40F4802060620120F7E70000C6
:1015E00000640040704770B5044694F82050012D07
:1015F00001D0022D7DD151B92068C06800F00300F0
:1016000080B9606A40F400106062012070BD2068FB
:10161000006900F0030028B9606A40F400106062BD
:101620000120F3E7206800F5D87000EB0110006896
:1016300000F004009060906840B9206800F5D87010
:1016400000EB01100068400D106007E0206800F515
:10165000D87000EB01100068C0085060206800F5E9
:10166000D87000EB0110006800F00200D060206824
:1016700000F5D87000EB0110406800F00F00106119
:10168000206800F5D87000EB0110406800F47F403E
:10169000000A9061206800F5D87000EB01104068E6
:1016A000000C5061206800F5D87000EB01108068D4
:1016B0001870206800F5D87000EB0110806800F405
:1016C0007F40000A5870206800F5D87000EB0110C8
:1016D000806800F47F00000C9870206800F5D870D6
:1016E00000EB01108068000ED870206800F5D870FB
:1016F00000E02FE000EB0110C0681871206800F5D1
:10170000D87000EB0110C06800F47F40000A5871E7
:10171000206800F5D87000EB0110C06800F47F006D
:10172000000C9871206800F5D87000EB0110C068BB
:10173000000ED87131B92068C06840F020002668DA
:10174000F06005E02068006940F020002668306104
:1017500000205BE7606A40F480206062012055E76A
:101760002DE9F05F04460025206846692068D0F81E
:101770000490206887682068D0F80CA02068D0F812
:1017800010B02068D0F8188006F00100002855D06D
:1017900007F00100C0B101202168886007F0020055
:1017A00018B1204600F08DFC0EE007F0040010B1E7
:1017B00045F4006508E007F0080010B145F48055D5
:1017C00002E0204600F07CFC07F48070C8B14FF4C2
:1017D00080702168886007F4007018B1204600F01E
:1017E00072FC0EE007F4806010B145F4005508E08B
:1017F00007F4006010B145F4804502E0204600F097
:1018000061FC07F48030C8B14FF4803021688860F3
:1018100007F4003018B1204600F057FC0EE007F442
:10182000802010B145F4004508E007F4002010B115
:1018300045F4803502E0204600F046FC06F0080042
:1018400038B10AF0100020B145F40075102021686D
:10185000C86006F0040040B10AF0080028B1082072
:101860002168C860204600F00DFA06F0020038B189
:101870002068C06800F0030010B1204600F004FAB0
:1018800006F0400038B10BF0100020B145F480653F
:1018900010202168086106F0200040B10BF008001C
:1018A00028B1082021680861204600F0D7FB06F027
:1018B000100038B12068006900F0030010B1204624
:1018C00000F0CDFB06F4003040B109F0100028B163
:1018D000102021684860204600F0C2FB06F48030EA
:1018E00040B109F0080028B108202168486020466E
:1018F00000F0ECFB06F4004088B309F0040078B374
:1019000006F4807020B108F0010008B145F001052F
:1019100006F4007020B108F0020008B145F002059D
:1019200006F4806020B108F0040008B145F0040519
:1019300006F40060A0B108F0700088B108F07000F3
:10194000402817D006DC10280BD020280CD03028D7
:1019500019D10CE0502810D0602814D110E01DE0FF
:1019600019E045F008050FE045F010050CE045F0E2
:10197000200509E045F0400506E045F0800503E05C
:1019800045F4807500E000BF00BF2068806920F04A
:101990007000216888610420216848602DB1606A68
:1019A000284360622046FFF71DFEBDE8F09F70B53A
:1019B00004460CB9012070BD94F8200010B92046EF
:1019C00000F0B0F82068006840F00100216808606D
:1019D00000F016FE05460DE000F012FE401B0A283E
:1019E00008D9606A40F400306062052084F8200065
:1019F0000120E0E72068406800F001000028EBD0FB
:101A00002068006820F002002168086000F0F8FDFE
:101A100005460DE000F0F4FD401B0A2808D9606A75
:101A200040F400306062052084F820000120C2E705
:101A30002068406800F002000028EBD1207E0128D9
:101A400006D12068006840F080002168086005E049
:101A50002068006820F0800021680860607E01280E
:101A600006D12068006840F040002168086005E069
:101A70002068006820F0400021680860A07E0128EE
:101A800006D12068006840F020002168086005E069
:101A90002068006820F0200021680860E07E0128AE
:101AA00006D12068006820F010002168086005E079
:101AB0002068006840F0100021680860207F01283D
:101AC00006D12068006840F008002168086005E041
:101AD0002068006820F0080021680860607F012805
:101AE00006D12068006840F004002168086005E025
:101AF0002068006820F0040021680860D4E9020131
:101B0000084321690843616908436168491E084325
:101B10002168C86100206062012084F82000002054
:101B200049E7000010B586B00446142101A8FEF76D
:101B300019FD4E492068884241D14D480068401C3B
:101B40004B4908600846006801280FD100BF0020FB
:101B500000904848006840F0007046490860084618
:101B6000006800F00070009000BF00BF00BF0020C0
:101B7000009040481038006840F008003D49103996
:101B800008600846006800F00800009000BF00BF31
:101B90000320019002200290002003900320049073
:101BA0000920059001A9344800F028FC00220521F5
:101BB000142000F0B5FD142000F0A2FD54E02F49E0
:101BC0002068884250D100BF00200090294800685A
:101BD00040F08060274908600846006800F0806097
:101BE000009000BF00BF22480068401C20490860E8
:101BF0000846006801280FD100BF002000901D4852
:101C0000006840F000701B4908600846006800F05A
:101C10000070009000BF00BF00BF0020009015487A
:101C20001038006840F00200124910390860084678
:101C3000006800F00200009000BF00BF602001902B
:101C400002200290002003900320049009200590B8
:101C500001A90B4800F0D2FB00220521402000F032
:101C60005FFD402000F04CFD06B010BD0064004058
:101C70000C00002040380240000C02400068004088
:101C8000000402407047000010B58AB0044601AB62
:101C900003AA00212046FFF7A6FCE248844276D141
:101CA00040F20621039888423ED1DF48008800B206
:101CB000DD4908819DF805009DF8041040EA0120E7
:101CC000D94908809DF807009DF8061040EA0120D8
:101CD00000B2D54948809DF809009DF8081040EAF7
:101CE000012000B2D04988809DF80A00887108461A
:101CF0000088B1F90810401AB0F5805F05DDCB48C7
:101D0000006D401EC94908658AE1C7480088C64978
:101D1000B1F90810401A10F5805FF5DAC348006D7C
:101D2000401CC24908657BE140F2072103988842C4
:101D30003BD1BD48408901B2BB4841829DF80500B6
:101D40009DF8041040EA0120B74948819DF807003A
:101D50009DF8061040EA012001B2B34881819DF848
:101D600009009DF8081040EA012001B2AE48C18187
:101D70009DF80A1001744189B0F91200081AB0F5F3
:101D8000805F05DDA948016F491E016748E126E033
:101D9000A5484189B0F91200081A10F5805FB3DA3E
:101DA000A248016F491C01673AE10398022804D157
:101DB00001A99F4803F07EFF32E10398042805D172
:101DC00001A99B48103003F0D9FF29E103980628A8
:101DD0009AD101A99648203004F034F820E19548C2
:101DE000844291D10398B0F5087F79D19DF8050020
:101DF0009DF8041040EA012000EE100AB8EE400AF7
:101E00008D4880ED000A9DF807009DF8061040EA15
:101E1000012000EE100AB8EE400A874880ED010A62
:101E20009DF809009DF8081040EA012000EE100A14
:101E3000B8EE400A804880ED020A9DF80B009DF83C
:101E40000A1040EA012000EE100AB8EE400A7A4873
:101E500080ED030A014691ED000ABDEEC00A10EEC6
:101E6000100A1021DFED750A9FED750A04F048FC99
:101E7000744880ED000A704991ED010ABDEEC00A78
:101E800010EE100A1021DFED700A9FED700A04F0C9
:101E900037FC6C4880ED010A674991ED020ABDEEFE
:101EA000C00A10EE100A1021DFED670A9FED670AE5
:101EB00004F026FC634880ED020A5F4991ED030AB5
:101EC000BDEEC00A10EE100A1021DFED5F0A9FED93
:101ED0005F0A04F015FC5B4880ED030AA0E0FFE711
:101EE00040F221210398884252D19DF805009DF8C7
:101EF000041040EA012000EE100AB8EE400A4E48F5
:101F000080ED040A9DF807009DF8061040EA0120C4
:101F100000EE100AB8EE400A474880ED050A9DF829
:101F200009009DF8081040EA0120434908769DF811
:101F30000B009DF80A1040EA01203F49487691EDD8
:101F4000040ABDEEC00A10EE100A1021DFED3E0AB1
:101F50009FED3E0A04F0D4FB3A4880ED040A36496E
:101F600091ED050ABDEEC00A10EE100A1021DFED5A
:101F7000360A9FED360A04F0C3FB324880ED050AAD
:101F80002D48007E2F4908762B48407E487647E052
:101F900040F205210398884242D100202C49086074
:101FA0002C4908702C48008800B22B4908819DF804
:101FB00005009DF8041040EA0120274908809DF89B
:101FC00007009DF8061040EA012000B2224948802F
:101FD0009DF809009DF8081040EA012000B21E4952
:101FE00088809DF80A00887108460088B1F90810B9
:101FF000401AB0F5805F05DD0C488069401E0B4932
:1020000088610DE0144800881349B1F90810401A9E
:1020100010F5805F04DA05488069401C0349886137
:102020000AB010BDB805002034450020EC45002062
:1020300054450020E005002084450020000048426F
:10204000000048C2A0450020DA0FC940DA0FC9C01D
:10205000AC000020B00000204845002070477047C9
:10206000704770B5044694F82000012822D1022060
:1020700084F820002068006820F0010021680860D2
:1020800000F0BEFA05460DE000F0BAFA401B0A283F
:1020900008D9606A40F400306062052084F82000AE
:1020A000012070BD2068406800F001000028EBD1DD
:1020B0006062F6E7606A40F4002060620120F0E7A9
:1020C000704770477047704770477047704700000F
:1020D000F8B50446002000908C4800684FF4165173
:1020E000B0FBF1F7A56D2E6894F85C1008208840CD
:1020F000304098B12068006800F0040070B120689A
:10210000006820F004002168086094F85C10082042
:102110008840A860606D40F00100606594F85C1034
:1021200001208840304068B12068406900F080009C
:1021300040B194F85C1001208840A860606D40F0C8
:102140000200606594F85C1004208840304068B15B
:102150002068006800F0020040B194F85C10042090
:102160008840A860606D40F00400606594F85C10E1
:1021700010208840304078B32068006800F00800E4
:1021800050B394F85C1010208840A8602068006864
:1021900000F4802080B12068006800F4002028B995
:1021A000206CC8B12046216C884715E0A06C98B11E
:1021B0002046A16C88470FE02068006800F480701A
:1021C00028B92068006820F0080021680860206CA9
:1021D00010B12046216C884794F85C10202088407C
:1021E0003040002865D02068006800F0100000280A
:1021F0005FD094F85C1020208840A86094F83500E7
:10220000052828D12068006820F0160021680860A1
:102210002068406920F0800021684861206C08B97E
:10222000A06C28B12068006820F0080021680860D0
:1022300094F85C103F208840A860012084F83500A5
:1022400000BF002084F8340000BF206D10B120468C
:10225000216D8847F8BD2068006800F4802080B1B7
:102260002068006800F4002028B9606C10B1204696
:10227000616C88471DE0E06BD8B12046E16B884770
:1022800017E02068006800F4807068B92068006872
:1022900020F0100021680860012084F8350000BF9C
:1022A000002084F8340000BFE06B10B12046E16BE1
:1022B0008847606D38B3606D00F00100F0B1052013
:1022C00084F835002068006820F00100216808606B
:1022D00000BF0098401C0090B84200D905E020687B
:1022E000006800F001000028F3D100BF012084F84D
:1022F000350000BF002084F8340000BFE06C10B14E
:102300002046E16C884700BFA4E700001C000020C5
:102310002DE9F0410446002500F072F9074614B992
:102320000120BDE8F081606A00B100BF022084F89E
:10233000350000BF002084F8340000BF206800682A
:1023400020F00100216808600AE000F059F9C01B84
:10235000052805D920206065032084F83500E0E7D2
:102360002068006800F001000028EED120680568B0
:1023700021480540D4E901010843E1680843216987
:10238000084361690843A1690843E1690843216A78
:1023900008430543606A042803D1D4E90B010843CC
:1023A0000543206805602068456925F00705606AD7
:1023B0000543606A04280DD1A06A0543E06A48B16C
:1023C0002046FEF743FE28B140206065012084F8D6
:1023D0003500A6E7206845612046FEF71DFE06464B
:1023E00094F85C103F208840B060002060650120B8
:1023F00084F83500002094E73F8010F0F8B50246DD
:102400000B460025002400200021D6E0012606FA14
:1024100001F51E6806EA0504AC4274D11E7906F087
:102420000306012E04D01E7906F00306022E13D1F6
:1024300090684F000326BE40B0434F00DE68BE40A8
:1024400030439060506801268E40B0431E79C6F339
:1024500000168E40304350601E7906F00306032EAE
:1024600009D0D0684F000326BE40B0434F009E689D
:10247000BE403043D0601E7906F00306022E13D111
:10248000CF0802F1200656F827004E07F70E0F2658
:10249000BE40B0434F07FF0E1E69BE403043CF0819
:1024A00002F1200646F8270010684F000326BE40C0
:1024B000B0431E7906F003064F00BE403043106063
:1024C0005E6806F44036002E76D000BF00260096E7
:1024D0003C4E366846F480463A4F3E603E4636688B
:1024E00006F48046009600BF00BF374E8F0856F8AE
:1024F00027008E07370F0F26BE40B043334EB2423F
:1025000002D1002624E057E0314EB24201D101262B
:102510001EE0304EB24201D1022619E02E4EB242E8
:1025200001D1032614E02D4EB24201D104260FE062
:102530002B4EB24201D105260AE02A4EB24201D109
:10254000062605E0284EB24201D1072600E0082603
:102550008F073F0FBE4030431B4E8F0846F82700C1
:10256000224E3068A0435E6806F4801606B1204310
:102570001E4E3060361D3068A0435E6806F40016BB
:1025800006B12043194E361D3060184E361F306894
:10259000A0435E6806F4003606B12043134E361F92
:1025A0003060361F3068A0435E6806F4803606B19E
:1025B00020430E4E083E3060491C1029FFF426AF20
:1025C000F8BD0000443802400838014000000240D5
:1025D0000004024000080240000C024000100240CB
:1025E0000014024000180240001C0240083C014058
:1025F000024613690B400BB1012000E00020704738
:10260000014800687047000010000020034800687F
:102610000349097808440149086070471000002008
:102620001800002010B50D48006840F400700B49F8
:1026300008600846006840F480600860084600684A
:1026400040F480700860032000F0A8F80F2000F02C
:1026500007F800F02BF8002010BD0000003C0240FD
:1026600070B504460E4800784FF47A71B1FBF0F073
:102670000C490968B1FBF0F5284600F031FC08B1BF
:10268000012070BD102C07D200222146501E00F000
:1026900047F80548046001E00120F2E70020F0E778
:1026A000180000201C0000201400002008B500BF06
:1026B000002000901148006840F480400F490860F5
:1026C0000846006800F48040009000BF00BF00BFD3
:1026D00000200090081F006840F08050091F08602B
:1026E0000846006800F08050009000BF00BF002244
:1026F0000F21901E00F014F808BD0000443802407D
:1027000001460846002809DB00F01F0301229A4019
:1027100043099B0003F1E023C3F8002100BF704789
:102720002DE9F05F80460D461646002701F02EFE8B
:10273000074639462A46334601F00700C0F1070A2A
:10274000BAF1040F02D94FF0040A01E0C0F1070A00
:10275000D14600F1040ABAF1070F02D24FF0000A85
:1027600001E0A0F1030AD4464FF0010A0AFA09FA7F
:10277000AAF1010A0AEA020A0AFA0CFA4FF0010B5E
:102780000BFA0CFBABF1010B0BEA030B4AEA0B044F
:102790002146404601F002FEBDE8F09F00BF00F078
:1027A0000702064B19684FF6FF031940044B0B4311
:1027B00043EA0221014B196000BF70470CED00E0B5
:1027C0000000FA0570B504460D460CB9012070BD35
:1027D0005848006800F00700A84209D255490D701A
:1027E0000846006800F00700A84201D00120EEE78B
:1027F000207800F0020002281DD1207800F00400AB
:10280000042805D14C48006840F4E0504A4908606B
:10281000207800F00800082805D14748006840F4F7
:102820006040454908604448006820F0F000A16815
:10283000084341490860207800F00100A8B36068AF
:10284000012807D13C4808380068C0F34040B8B9B7
:102850000120BCE76068022802D06068032807D125
:10286000354808380068C0F3406048B90120AEE739
:10287000314808380068C0F3400008B90120A6E7D5
:102880002D48006820F00300616808432A49086069
:10289000FFF7B6FE064609E0FFF7B2FE801B41F2E5
:1028A0008831884202D9032091E707E02248006876
:1028B00000F00C006168B0EB810FEDD11D4800689D
:1028C00000F00700A84209D91A490D7008460068AF
:1028D00000F00700A84201D0012078E7207800F03E
:1028E0000400042807D11448006820F4E050E1688F
:1028F000084311490860207800F00800082808D132
:102900000D48006820F46040216940EAC1000A498E
:10291000086000F03FF808490968C1F30311074A4D
:10292000515CC8400649086006480068FFF798FEF9
:1029300000204CE7003C024008380240D8850008DF
:102940001C000020140000200148006870470000AF
:102950001C00002000B5FFF7F7FF04490968C1F328
:102960008221034A515CC84000BD00000838024083
:10297000E885000800B5FFF7E7FF04490968C1F3DF
:102980004231034A515CC84000BD00000838024093
:10299000E88500082DE9F047002400250026A1461F
:1029A0002548006800F00C0020B1042805D0082854
:1029B0003AD105E0DFF8849039E0DFF8849036E022
:1029C0001D48001F006800F03F041B48001F0068FE
:1029D00000F4800078B11A481749091F0968C1F34B
:1029E0008811A0FB01700146224600233846FDF7FE
:1029F000EEFC05460EE011480F49091F0968C1F3B6
:102A00008811A0FB01700146224600233846FDF7DD
:102A1000DEFC05460848001F0068C0F30140401C6A
:102A20004600B5FBF6F902E0DFF8109000BF00BFEA
:102A30004846BDE8F0870000083802400024F40052
:102A4000001BB700F8B504460CB90120F8BD20788A
:102A500000F00100002874D0F948006800F00C0074
:102A600004280DD0F648006800F00C00082813D1A7
:102A7000F348001F006800F48000B0F5800F0BD110
:102A8000EF4808380068C0F34040002859D060681B
:102A9000002856D10120D9E700BF6068B0F5803F1B
:102AA00008D1E7480838006840F48030E449083924
:102AB00008601EE06068B0F5A02F0DD1E04808382E
:102AC000006840F48020DE49083908600846006844
:102AD00040F4803008600CE0D9480838006820F4E1
:102AE0008030D749083908600846006820F4802003
:102AF000086000BF606890B1FFF782FD054606E000
:102B0000FFF77EFD401B642801D903209EE7CC48D7
:102B100008380068C0F340400028F1D011E0FFF70A
:102B20006FFD054606E0FFF76BFD401B642801D9E9
:102B300003208BE7C24808380068C0F340400028F3
:102B4000F1D1207800F0020002285FD1BC48006873
:102B500000F00C0058B1BA48006800F00C000828DA
:102B60001CD1B748001F006800F48000B0B9B44819
:102B700008380068C0F3400020B1E068012801D0A7
:102B8000012063E7AE480838006820F0F8002169AA
:102B900040EAC100AA490839086037E0E06800B39C
:102BA0000120A8490860FFF72BFD054606E0FFF766
:102BB00027FD401B022801D9032047E7A048083819
:102BC0000068C0F340000028F1D09D480838006834
:102BD00020F0F800216940EAC100994908390860ED
:102BE00014E0002097490860FFF70AFD054606E05B
:102BF000FFF706FD401B022801D9032026E7904875
:102C000008380068C0F340000028F1D1207800F0B7
:102C1000080008282CD16069A8B101208A49086001
:102C2000FFF7EEFC054606E0FFF7EAFC401B022832
:102C300001D903200AE782486C300068C0F34000E5
:102C40000028F1D014E000207F490860FFF7D8FC8D
:102C5000054606E0FFF7D4FC401B022801D90320FB
:102C6000F4E677486C300068C0F340000028F1D1EA
:102C7000207800F00400042870D100277048383014
:102C8000006800F0805090B900BF002000906C48B0
:102C90003830006840F08050694938310860084693
:102CA000006800F08050009000BF00BF0127674817
:102CB000006800F48070B0B96448006840F4807027
:102CC00062490860FFF79CFC054606E0FFF798FCA8
:102CD000401B022801D90320B8E65C48006800F4D4
:102CE00080700028F2D000BFA068012808D15448A5
:102CF0006830006840F001005149683108601DE00B
:102D0000A06805280DD14E486830006840F00400E6
:102D10004B49683108600846006840F001000860CF
:102D20000CE047486830006820F0010044496831F1
:102D300008600846006820F00400086000BFA06832
:102D4000A8B1FFF75DFC054609E0FFF759FC401B01
:102D500041F28831884202D9032077E626E03848DC
:102D600068300068C0F340000028EED013E0FFF7A1
:102D700047FC054608E0FFF743FC401B41F2883161
:102D8000884201D9032061E62D4868300068C0F30D
:102D900040000028EFD1012F07D1294838300068C2
:102DA00020F0805026493831086000BFA069002813
:102DB00045D02348006800F00C0008285DD0A069C9
:102DC000022845D100201F490866FFF719FC054677
:102DD00006E0FFF715FC401B022801D9032035E669
:102DE000174808380068C0F340600028F1D1D4E9E2
:102DF00007010843616A40EA81110122A06AC2EB1F
:102E0000500041EA00412C20005D41EA00600C497D
:102E1000091F086001200B490866FFF7F1FB054612
:102E200006E0FFF7EDFB401B022801D903200DE669
:102E3000034808380068C0F340600028F1D049E03A
:102E40000838024000004742800E474200700040B0
:102E5000002021490866FFF7D3FB054606E0FFF78F
:102E6000CFFB401B022801D90320EFE51B48006877
:102E7000C0F340600028F2D12CE0A069012800D105
:102E8000E4E51648001D0668A069012820D006F474
:102E90008001E06981421BD106F03F01206A814236
:102EA00016D147F6C0703040616AB0EB811F0FD178
:102EB00006F440310122A06AC2EB5000B1EB004F92
:102EC00006D106F070612C20005DB1EB006F01D0DF
:102ED0000120BBE50020B9E5000047420038024070
:102EE00070B504462546681EB0F1807F01D30120ED
:102EF0000FE0681E4FF0E02148610F214FF0FF30D6
:102F000001F04CFA00204FF0E021886107200861B1
:102F1000002070BD10B504460CB9012010BDA06999
:102F200000B100E000BF94F83D0028B9002084F80B
:102F30003C00204600F028F8242084F83D0020685A
:102F4000C06820F400502168C860204601F006F9EE
:102F50002068006920F49040216808612068406979
:102F600020F02A00216848612068C06840F40050C1
:102F70002168C86000202064202084F83D0084F887
:102F80003E000020CAE7000010B586B004461421B8
:102F900001A8FDF7E7FA8F49206888427ED100BF7B
:102FA000002000908C48006840F010008A490860BA
:102FB0000846006800F01000009000BF00BF00BF8E
:102FC0000020009084481438006840F001008249D5
:102FD000143908600846006800F00100009000BF46
:102FE00000BF00BF002000900846006840F00200CB
:102FF00008600846006800F00200009000BF00BFB3
:1030000048150190022002900020039003200490B4
:103010000720059001A97148FFF7F0F98020019081
:1030200002200290002003900320049007200590C6
:1030300001A96B48FFF7E2F96A486B4908604FF055
:10304000006048604021684881600021C1604FF401
:1030500080610161002141618161C1614FF44031B2
:10306000016200214162FFF753F908B1FEF765F9EB
:1030700000BF5D486063846300BF5A4878385B498D
:1030800008604FF000604860002158488160C160CE
:103090004FF4806101610021416100E019E081612C
:1030A000C1614FF44031016200214162FFF730F904
:1030B00008B1FEF742F900BF4C48A063846300BF2B
:1030C000002205212520FFF72BFB2520FFF718FB09
:1030D0007EE04749206888427AD100BF00200090F6
:1030E0003D48006840F020003B4908600846006801
:1030F00000F02000009000BF00BF00BF0020009043
:1031000035481438006840F04000334914390860ED
:103110000846006800F04000009000BF00BF4FF478
:10312000844001900220029000200390032004902C
:103130000820059001A92F48FFF760F92948903829
:103140002D4908608005486000212B488160C160DE
:103150004FF480610161002141618161C1614FF4DF
:103160004031016200214162FFF7D2F808B1FEF759
:10317000E4F800BF2048A063846300BF19481838F2
:103180001E4908604FF02060486040211B48816064
:103190000021C1604FF480610161002141618161C2
:1031A000C1614FF44031016200214162FFF7B0F884
:1031B00008B1FEF7C2F800BF10486063846300BF27
:1031C000002205214720FFF7ABFA4720FFF798FAC6
:1031D00006B010BD0010014044380240000002401B
:1031E00000040240B864024090060020F00600206F
:1031F000001401400018024050070020B0070020D2
:1032000000BFFEE710B50E480E4908600320486075
:1032100000210C488160C1604FF4102101614FF41E
:10322000001141610021017641768176C1760177F6
:103230004177FEF7BCFB08B1FEF77FF810BD000038
:1032400000640040B805002010B50E480E49086023
:103250000320486000210C488160C1604FF41021B8
:1032600001614FF4001141610021017641768176C0
:10327000C17601774177FEF79AFB08B1FEF75DF85A
:1032800010BD000000680040E005002008B500BF48
:10329000002000901648006840F48000144908603F
:1032A0000846006800F48000009000BF00BF0022C4
:1032B00005213920FFF734FA3920FFF721FA0022DF
:1032C00005213A20FFF72CFA3A20FFF719FA0022DD
:1032D00005214520FFF724FA4520FFF711FA0022C7
:1032E00005214620FFF71CFA4620FFF709FA08BD22
:1032F0003038024000B58FB01C220C4908A8FDF7F9
:10330000DDF8002108A802F085FE094908601C22AA
:1033100006491C3101A8FDF7D1F8002101A802F0EF
:1033200079FE044908600FB000BD000098850008D0
:10333000000000200400002000B587B0142102A87E
:10334000FDF710F900BF002001903348006840F0FD
:103350008000314908600846006800F08000019054
:1033600000BF00BF00BF002001900846006840F089
:10337000010008600846006800F00100019000BFED
:1033800000BF00BF002001900846006840F0080020
:1033900008600846006800F00800019000BF00BF08
:1033A00000BF002001900846006840F0400008601F
:1033B0000846006800F04000019000BF00BF00BF59
:1033C000002001900846006840F0020008600846AE
:1033D000006800F00200019000BF00BF00BF0020A5
:1033E00001900846006840F0200008600846006828
:1033F00000F02000019000BF00BF012002900020DB
:103400000390012004900320059002A90348FEF7D1
:10341000F5FF07B000BD0000303802400014024044
:1034200010B50A480A4908600A484860002108485F
:103430008160C16001610C21416100218161C16134
:10344000FFF768FD08B1FDF778FF10BD00100140DF
:103450000806002000093D0010B50A480A49086026
:103460000A484860002108488160C16001610C2160
:10347000416100218161C161FFF74CFD08B1FDF799
:103480005CFF10BD001401404C06002000093D0007
:1034900000BFFEE700BFFEE710B52DED028B04462E
:1034A000B0EE408AF0EE608AD4F8060090ED010A92
:1034B0008A4880ED000A00201DE054F8062F411CC8
:1034C00002EB810191ED000A8449D1ED000A30EE52
:1034D000600A216801EB800181ED000A6268411CED
:1034E00002EB810191ED000AA41F02EB800181ED46
:1034F000000A411C88B22188491E8142DDDCD4F8D3
:1035000006102088801E01EB800090ED000A30EE4E
:10351000080A2088401E01EB800080ED000AD4F8E4
:103520000A102088401E01EB8000C0ED008AD4F80C
:1035300002002188884204D2D4F80200401CC4F85A
:103540000200102104F11A00FCF7EAFF21886288CA
:10355000891A88B24AE054F8061F01EB8001D1EDC8
:10356000000A216801EB800191ED001A616900EE0B
:10357000101A00EE810A10EE101A616154F8061953
:1035800001EB8001D1ED000AD4F81E1000EE101AF4
:1035900030EE800A10EE101AC4F81E10D4F806108F
:1035A00001EB8001D1ED000AD4F80A1001EB800193
:1035B00091ED001AD4F8221000EE101A00EE810AE4
:1035C00010EE101AC4F82210D4F80A1001EB800192
:1035D000D1ED000AD4F8261000EE101A30EE800A61
:1035E00010EE101AC4F82610411C88B221888142BE
:1035F000B1DCD4F8220000EE100A208800EE900A18
:10360000F8EE600A20EE200AD4F81E0000EE900AC0
:10361000D4F8260001EE100A00EEC10AD4F81A0010
:1036200000EE900A208801EE100AB8EE411A20EE52
:10363000811AD4F81E0000EE900A01EE900A00EE06
:10364000E11AC0EE010A10EE900AC4F80E009FEDD8
:10365000240A10EE100AC4F8160021886288891A1C
:1036600088B221E054F8061F01EB800191ED001AA9
:10367000E16800EE101AA16800EE901A00EE810ACF
:10368000616801EB8001D1ED000A30EE600AF0EED6
:10369000C00A216900EE101A30EE800A10EE101AEE
:1036A0002161A41F411C88B221888142DADCD4F850
:1036B000160000EE100A208800EE900AB8EE601A9C
:1036C000C0EE010A10EE900AC4F81600D4F80E00FD
:1036D00000EE100ABDEC028B10BD00008C00002033
:1036E0000000000070B504460D46A41C24F8025CDE
:1036F00000202060A800FCF73BFE6060A800FCF7FB
:1037000037FEA0609FED0C0A10EE100AE0609FEDFE
:103710000A0A10EE100A2061A9006068FCF722FF77
:10372000A900A068A41EFCF71DFF102104F11A00D7
:10373000FCF7F6FE70BD00000000000010B52DED96
:10374000028B0446B0EE408AF0EE608A94F898004E
:1037500000F0800010B1204602F0BCF904F18C00AA
:10376000FDF700FD10EE100AC4F8900018EE100AE4
:10377000206118EE900A2060206800EE100A20698F
:1037800000EE900A30EE600A10EE100AA061D4F844
:10379000A20018B1D4F8A21020468847A06900EE14
:1037A000100AB5EEC00AF1EE10FA03DDA06900EED2
:1037B000100A04E0A06900EE100AB1EE400AA06C05
:1037C00000EE900AB4EEE00AF1EE10FA7EDDD4F8D5
:1037D000940098BB606800EE100AA06900EE900AA1
:1037E00020EE200A10EE100A6062A06800EE100AB7
:1037F000A06900EE900A60EE200AD4F8900000EE76
:10380000100A20EE800A10EE100A2063B4F860005F
:10381000022814DDA06900EE900AD4F8900000EEB2
:10382000100A04F16200FFF737FEE06800EE900A2C
:1038300020EE200A10EE100AE0627FE016E0A06998
:1038400000EE100AE06900EE900A70EE600AE0688F
:1038500000EE100A20EE801AD4F8900000EE100A54
:10386000C1EE000A10EE900AE06267E0606800EEC8
:10387000100AD4F89400006800EE900A70EE200A56
:10388000A06900EE100A20EE800A10EE100A6062B5
:10389000A06800EE100AD4F89400406800EE900A88
:1038A00070EE200AA06900EE100A60EE800AD4F8DB
:1038B000900000EE100A20EE800A10EE100A20633D
:1038C000B4F8600002281CDDA06900E08EE000EE84
:1038D000900AD4F8900000EE100A04F16200FFF79D
:1038E000DBFDE06800EE900AD4F89400806801EEF9
:1038F000100A70EE810A20EE200A10EE100AE06233
:103900001CE0E06800EE100AD4F89400806800EE35
:10391000900A30EE201AA06900EE100AE06900EE6D
:10392000900A30EE600A21EE001AD4F8900000EE02
:10393000100AC1EE000A10EE900AE062D4F8A60068
:1039400018B1D4F8A6102046884794F8980000F0E3
:10395000040010B1204602F03AF994F8980000F003
:10396000200010B1204601F0D1FE94F8980000F03C
:10397000020010B1204601F06CFF94F8980000F0AE
:10398000400010B1204601F039FF94F8980000F093
:10399000010010B1204601F0D7FFA06A00EE100A26
:1039A000206B00EE900A30EE200A10EE100AA062A2
:1039B000606A00EE100AA06A00EE900A70EE200A1B
:1039C000E06A00EE100A30EE800A10EE100A606322
:1039D00094F8980000F0100010B1204602F02CF886
:1039E000204602F054F8204602F0CEF820696061CB
:1039F000606BA063E06AE063A069E061206B206215
:103A0000606B00EE100ABDEC028B10BD10B52DED01
:103A1000028B0446B0EE408AF0EE608A94F898007B
:103A200000F0800010B1204602F054F804F18C0040
:103A3000FDF798FB10EE100AC4F8900018EE100A7B
:103A4000206118EE900A2060206800EE900A20693C
:103A500001EE100A70EEC10AB0EE600A9FEDA31AE3
:103A6000DFEDA30A02F065FA10EE100AA061D4F8A7
:103A7000A20018B1D4F8A21020468847A06900EE31
:103A8000100AB5EEC00AF1EE10FA03DDA06900EEEF
:103A9000100A04E0A06900EE100AB1EE400AA06C22
:103AA00000EE900AB4EEE00AF1EE10FA7EDDD4F8F2
:103AB000940098BB606800EE100AA06900EE900ABE
:103AC00020EE200A10EE100A6062A06800EE100AD4
:103AD000A06900EE900A60EE200AD4F8900000EE93
:103AE000100A20EE800A10EE100A2063B4F860007D
:103AF000022814DDA06900EE900AD4F8900000EED0
:103B0000100A04F16200FFF7C7FCE06800EE900ABB
:103B100020EE200A10EE100AE0627FE016E0A069B5
:103B200000EE100AE06900EE900A70EE600AE068AC
:103B300000EE100A20EE801AD4F8900000EE100A71
:103B4000C1EE000A10EE900AE06267E0606800EEE5
:103B5000100AD4F89400006800EE900A70EE200A73
:103B6000A06900EE100A20EE800A10EE100A6062D2
:103B7000A06800EE100AD4F89400406800EE900AA5
:103B800070EE200AA06900EE100A60EE800AD4F8F8
:103B9000900000EE100A20EE800A10EE100A20635A
:103BA000B4F8600002281CDDA06900E08EE000EEA1
:103BB000900AD4F8900000EE100A04F16200FFF7BA
:103BC0006BFCE06800EE900AD4F89400806801EE87
:103BD000100A70EE810A20EE200A10EE100AE06250
:103BE0001CE0E06800EE100AD4F89400806800EE53
:103BF000900A30EE201AA06900EE100AE06900EE8B
:103C0000900A30EE600A21EE001AD4F8900000EE1F
:103C1000100AC1EE000A10EE900AE062D4F8A60085
:103C200018B1D4F8A6102046884794F8980000F000
:103C3000040010B1204601F0CAFF94F8980000F08B
:103C4000200010B1204601F061FD94F8980000F0CA
:103C5000020010B1204601F0FCFD94F8980000F03D
:103C6000400010B1204601F0C9FD94F8980000F022
:103C7000010010B1204601F067FEA06A00EE100AB4
:103C8000206B00EE900A30EE200A10EE100AA062BF
:103C9000606A00EE100AA06A00EE900A70EE200A38
:103CA000E06A00EE100A30EE800A10EE100A60633F
:103CB00094F8980000F0100010B1204601F0BCFE0E
:103CC000204601F0E4FE204601F05EFF20696061BD
:103CD000606BA063E06AE063A069E061206B206232
:103CE000606B00EE100ABDEC028B10BDDB0F49408B
:103CF000DB0F49C070B52DED0A8B0446B0EE408A4B
:103D0000F0EE608AB0EE419AF0EE619AB0EE42AA0F
:103D1000F0EE62AAB0EE43BAF0EE63BAB0EE44CA77
:103D2000F0EE64CA0D46164619EE100AA06418EEAD
:103D3000900A606418EE100A20649FED1C0A10EED1
:103D4000100A206019EE900A60601AEE100AA06056
:103D50001AEE900AE0609FED150A10EE100A20633B
:103D60001BEE100A20651BEE900A60651CEE100A1F
:103D7000A0651CEE900AE065A4F86050294604F1A5
:103D80006200FFF7AFFC00208D3444F8010CE672AE
:103D90000021E16021618D3CA12001559FED030AC6
:103DA00010EE100A6063BDEC0A8B70BD00000000CD
:103DB00010EE101A41607047F0EE400AF5EEC00AAE
:103DC000F1EE10FA02DDB7EE000A7047F5EEC00A18
:103DD000F1EE10FA02D2BFEE000AF6E79FED010AFB
:103DE000F3E700000000000010B5FEF70FFC03F041
:103DF00013F8012801D002F065FF10BD00B593B0A3
:103E0000302107A8FCF7AEFB142102A8FCF7AAFB9F
:103E100000BF002001902448006840F080502249F3
:103E200008600846006800F08050019000BF00BFA5
:103E300000BF002001901D48006840F480401B49ED
:103E400008600846006800F48040019000BF00BF91
:103E5000012007900004089002200D9041050E916A
:103E600006210F91A8211091022111910421129194
:103E700007A8FEF7E7FD08B1FDF75FFA0F200290F3
:103E800002200390002004904FF4A05005904FF4BE
:103E900080500690052102A8FEF794FC08B1FDF7BA
:103EA0004CFA13B000BD00004038024000700040E2
:103EB0000348006840F47000014908607047000042
:103EC00088ED00E010B52DED108B88B00446F0EEC3
:103ED000409A9FED7B0AB0EE408A9FED790AF0EEA2
:103EE000408A9FED770AB0EE409A9FED750AF0EE9A
:103EF00040FA9FED730A8DED070A9FED710AB0EE4F
:103F000040FA9FED6F0A8DED060A94ED070A30EE38
:103F1000690A8DED060A94ED020AD4ED000A20EE3E
:103F2000200A84ED010A94ED030AD4ED010A20EE83
:103F3000200AD4ED010A20EE200AB0EE408A94ED6A
:103F4000010AD4ED060A20EE200AF0EE408A9DED2B
:103F5000060A30EE280AB0EE409A19EE100A04F074
:103F600025F9CDE900019DED000B00F0D3FA8DEDB0
:103F7000020B9FED540B53EC102B9DED020B51ECFB
:103F8000100B03F06DFB41EC1E0B18EE100A04F051
:103F90000DF953EC1E2BCDE904019DED040B51EC02
:103FA000100B03F0E1F941EC1C0B18EE100A04F0C1
:103FB000FDF841EC1D0B53EC1C2B03F051FB41ECC5
:103FC0001B0BB0EE4B0AF0EE6B0A00F0ADFAB0EE50
:103FD00040AAF0EE60AA51EC1A0B03F063F80FEE62
:103FE000900AB0EE490AFFF7E7FE7FEEC80A60EEDE
:103FF000200AB0EE001A80EE810A30EE280A8DED1C
:10400000070AF0EE480AB0EE490A01F039FE78EEF0
:10401000890A60EE202AF0EE480AB0EE490A01F063
:104020002FFEF7EE000A70EEC00A9DED070A40EE83
:10403000202AB0EE62FA8FEE080AD4ED030AF1EE00
:10404000600A60EE202AF0EE480AB0EE4F0A01F056
:1040500017FE62EE802AB0EE4F0AFFF7ADFED4EDF8
:10406000030A20EE203AF0EE480AB0EE4F0A01F0C3
:1040700007FEF7EE000A30EEC00A43EE402AC4ED18
:10408000042A94ED040A84ED050A94ED060AD4EDA1
:10409000000A94ED051A00EE810A84ED060A94EDFB
:1040A000070AD4ED000A94ED061A00EE810A84EDA9
:1040B000070A94ED060A08B0BDEC108B10BD000095
:1040C00000000000000000000000204080ED030A16
:1040D00080ED001AC0ED020A9FED052A80ED052A49
:1040E0009FED032A80ED062AC0ED071A70470000F5
:1040F0000000000080ED030A704780ED070A70475A
:10410000134890ED020A134880ED000A1048006A37
:1041100090ED010A0F4880ED010A0D48806A90ED8C
:10412000010A0C4880ED020A0948006B90ED010A73
:10413000084880ED030A084890ED4F0A054880EDD5
:10414000040A054890ED510A024880ED050A7047BF
:10415000EC45002000450020EC4900202DE9F84FF7
:1041600004462068006920F44050E1680843216853
:1041700008612169A068084361690843E16908434F
:1041800000902068C06849F20C6188430099084398
:104190002168C8602068406920F44070A169084324
:1041A0002168486176492068884203D075492068B3
:1041B000884203D1FEF7DEFB814602E0FEF7CAFB30
:1041C0008146E069B0F5004F6CD102206168A0FB28
:1041D000015003461920A9FB007001462A463846C3
:1041E000FCF7F5F86421B0FBF1F04FEA001A022069
:1041F0006168A0FB01510B461920A9FB00712A46FA
:104200003846FCF7E4F8834602206168A0FB0150C1
:1042100003461920A9FB00712A463846FCF7D7F857
:104220006421B0FBF1F000EBC00101EB0010ABEB3F
:104230008000322101EBC0006421B0FBF1F000F0FE
:10424000F8000AEB400A02206168A0FB0150034617
:104250001920A9FB007001462A463846FCF7B7F83A
:10426000834602206168A0FB015003461920A9FB88
:1042700000712A463846FCF7AAF86421B0FBF1F039
:1042800000EBC00101EB0010ABEB8000322101EB31
:10429000C0006421B0FBF1F000F007005044216839
:1042A00088606AE004206168A0FB01500346192081
:1042B000A9FB007001462A463846FCF788F882467A
:1042C00004206168A0FB015003461920A9FB00707F
:1042D00001462A463846FCF77AF86421B0FBF1F033
:1042E00000EBC00101EB0010AAEB8000322101EBD2
:1042F00000106421B0FBF1F000F0F00A04206168C6
:10430000A0FB017003461920A9FB00513A4628463C
:10431000FCF75DF86421B0FBF1F00AEB001A042011
:104320006168A0FB01510B461920A9FB00712A46C8
:104330003846FCF74CF8834604206168A0FB015026
:1043400003461920A9FB007001462A463846FCF7AF
:104350003EF86421B0FBF1F000EBC00101EB00106E
:10436000ABEB8000322101EB00106421B0FBF1F0D7
:1043700000F00F00504421688860BDE8F88F00000D
:10438000001001400014014000BFFEE70248006831
:10439000C0F30220704700000CED00E010B50028CB
:1043A00004DB0A07130E054A135406E00A07140E2D
:1043B000034A00F00F031B1FD45410BD00E400E0BB
:1043C00018ED00E010EE101A08B5444A6846B2EB4A
:1043D000410F28D94FF0E640B0EB410F94BF0020C9
:1043E0004FF0FF3000900098002861DB60EE000A7B
:1043F00010F0010F45D010F0020FDFED391A9FEDDC
:10440000391A00EEE11ADFED381A40EE811A21EE7A
:10441000A01AF0EE400A40EE010A08BFF1EE600A71
:10442000B0EE600A08BD314B21F0004293423CD906
:1044300011F0004FDFED2E0A20EE201ADFED2D0ADD
:1044400019BF31EE601A71EE200A31EE201A71EEBA
:10445000600ABDEEE01A11EE100A9FED271A00F077
:10446000030000EEC10A9FED251A009000EEC10A7C
:104470009FED231A00EEC10A9FED221A00EEC10A39
:10448000B1E79FED211A9FED210A10F0020F00EE17
:10449000810A9FED1F1A00EE801AB7EE000A00EEA7
:1044A000810A18BFB1EE400A08BD00F085F89AE70E
:1044B00010EE100A4000B0F17F4F3CBFB7EE000A8B
:1044C00008BD07D14FF00100FCF7F4F8BDE8084043
:1044D00000F06AB8BDE8084000F063B8B61F927EED
:1044E000336D4C39DA82083CA0AA2ABE490E4946EF
:1044F00083F9223F0000004B0000C93F00A0FD39B6
:104500000020A2331A61342CB93AB2BACA9F2A3DAC
:10451000DDFFFFBE2DED020B019820F00040019061
:104520009DED000B02B0704700B52DED048BB0EE91
:10453000409AF0EE609A83B051EC190B03F030FA18
:1045400041EC180B18EE100A18EE901A8DED008B46
:10455000002818BF0120084320F00040C0F17F6010
:1045600000F1E040C00F14D019EE101A19EE900AB5
:104570008DED009B002918BF0121084320F0004069
:10458000C0F17F6000F1E040C00F04BF0120FCF7E4
:1045900091F8B0EE480A03B0F0EE680ABDEC048B67
:1045A00000BD30EE000A7047DFED020A80EEA00A7F
:1045B00070470000000000002DE9F0014FF07F423D
:1045C000B2EB410F9FBF4FF0FF310160BDE8F0013A
:1045D00070474FF0004242EA0123C1F3C752783AD4
:1045E000551112F01F0C434CCCF120067C44C1F352
:1045F000C752A2F178024FEA621204EB820254F829
:10460000254008BFD2E9015612D0556804FA0CF4CF
:1046100025FA06F73C43976805FA0CF527FA06F8E1
:10462000D26807FA0CFCF24045EA08054CEA02069B
:10463000A4FB034CA5FB0352A6FB03631D449D4250
:1046400034BF012600261319334416B1934202D910
:1046500003E0934201D2012200E00022624402F111
:10466000200C9206DC0C42EA443200EE102A5B0376
:10467000DFED210AF8EEC01A00EE103A4FEA9C1C5A
:1046800011F0004FB8EE400AC0F800C020EE201A2A
:1046900000EE105ADFED190AB8EE400A20EE200AAB
:1046A00071EE810A70EE800A10EE902A02F5006227
:1046B0006FF30B0200EE902A70EEE11A31EEC11A90
:1046C000DFED101A30EE411A9FED0D0A20EE800A40
:1046D00001EE210A9FED0C1A00EE810A04BFBDE82D
:1046E000F0017047CCF180510160BDE8F001B1EEFE
:1046F000400A704700400000000000360000802C97
:1047000022AAFD29DB0FC92F0000C92F70B504466E
:1047100004B970BD002507E0E8B201F0B5FF04F16F
:10472000200141F835006D1C032DF5DB002508E064
:10473000E8B201F09BFF04F1380101EB451108607C
:104740006D1C022DF4DB01F09BFF2060112205217E
:10475000DFEDAB4A9FEDAB4ADFEDA93A9FEDA83AFA
:10476000DFEDA92AB2EE042ADFEDA81A9FEDA41A04
:10477000DFEDA60A9FEDA60A04F17800FFF7BAFA6A
:1047800001220421DFED9E4A9FED9D4ADFED9C3A18
:104790009FED9B3ADFED9F2AB1EE042AF3EE0E1A4D
:1047A0009FED971AF0EE080AB3EE0E0A04F5917029
:1047B000FFF7A0FA11220521DFED914A9FED914A02
:1047C000DFED8F3A9FED8E3ADFED932A9FED932A2E
:1047D000DFED931A9FED8A1ADFED8C0A9FED910AA7
:1047E00004F5E670FFF786FA11220521DFED844A11
:1047F0009FED844ADFED823A9FED813ADFED862A14
:104800009FED862ADFED881A9FED7D1ADFED7F0A86
:104810009FED840A04F27620FFF76CFA012204214E
:10482000DFED774A9FED764ADFED753A9FED743AFA
:10483000DFED7E2AB1EE082AF3EE061A9FED701A1C
:10484000F0EE000A9FED7A0A04F54870FFF752FA7D
:1048500001220421DFED6A4A9FED694ADFED683AE3
:104860009FED673ADFED712AB1EE082AF3EE061AE2
:104870009FED631AF7EE000AB1EE000A04F2CA30A7
:10488000FFF738FAFCF76EF9012001F0A8FBFCF7FE
:10489000ADF9012001F0A3FB204600F03BFA002017
:1048A000A4F8340584F83805A06120680088A08247
:1048B000A18AA06901EB403021680988401A00EE06
:1048C000100AB8EEC00ADFED5B0A20EE200A84ED84
:1048D000020A94ED020A84ED010A206A90ED010AB1
:1048E00084ED090AA06A90ED010A84ED0B0A206BA1
:1048F00090ED010A84ED0D0A002084F8390500BF0F
:1049000020E004F1380101EB401109680A8804F144
:10491000380101EB40118A8204F1380101EB4011AA
:1049200091ED020A04F1380101EB401181ED010A19
:104930009FED330A04F1380101EB401181ED030AC8
:10494000411C08B20228DCDB94ED020AF0EE401AAA
:104950009FED391AF0EE000A9FED380A04F2744018
:10496000FFF7B4FB206A90ED010AF0EE401A9FEDCC
:10497000321AF0EE000AB2EE040A04F29440FFF795
:10498000A5FBA06A90ED010AF0EE401A9FED2A1AED
:10499000F0EE000AB2EE080A04F2B440FFF796FB0C
:1049A000206B90ED010AF0EE401A9FED231AF0EE15
:1049B000000AB2EE0C0A04F2D440FFF787FB04F5BC
:1049C000806090ED4F0AF0EE401A9FED1B1AF0EE5A
:1049D000000AB3EE020AF430FFF778FB04F58060BA
:1049E00090ED510AF0EE401A9FED131AF0EE000A16
:1049F000B3EE020A04F21450FFF768FB00BF88E62A
:104A0000000000005C128B3A0AD7233D0000FA44F4
:104A100000FC7F46CDCC4C3E6F12833A00004843E9
:104A200000007A4400401C46000061440AD7233C41
:104A30007B140E410B8627386F12033B00005C424B
:104A400010B52DED028B82B0044694F8380510B9EC
:104A50000020A08348E094F83805012819D194ED8E
:104A6000031AF0EE410A94ED041AB0EE410A04F183
:104A70007800FEF763FE94ED2B0ABDEEC00A10EE3F
:104A8000101A08B241F28832514201F047FAA0836D
:104A90002AE094F83805022803D094F83805032852
:104AA00022D194ED011AF0EE410A94ED021AB0EE13
:104AB000410A04F59170FEF741FED4F85601E0601A
:104AC00094ED031AF0EE410A94ED041AB0EE410A97
:104AD00004F17800FEF732FE94ED2B0ABDEEC00A19
:104AE00010EE100A00B2A08394F8390528B900210D
:104AF00054200153A4F8741001E194F839050128F9
:104B00002CD194ED111AF0EE410A94ED121AB0EE88
:104B1000410A04F5E670FEF711FE94ED800ABDEE41
:104B2000C00A10EE100A01B25420015394ED191A74
:104B3000F0EE410A94ED1A1AB0EE410A04F2762022
:104B4000FEF7FCFDD4F8AA0200EE100ABDEEC00A82
:104B500010EE100A01B2A4F87410D0E094F83905F0
:104B6000022805D1002154200153A4F87410C6E096
:104B700094F839050328BFD104F5806090ED521AEE
:104B8000F0EE410A90ED511AB0EE410AE038FEF71E
:104B90003DFF04F5806090ED501AF0EE410A90ED73
:104BA0004F1AB0EE410A3638FEF7C8FDD4F8FE03BE
:104BB00000EE100AD4EDD50A30EE200A84ED110A79
:104BC00094ED111AF0EE410A94ED121AB0EE410A7A
:104BD00004F5E670FEF7B2FDD4F8FE0300EE100A0D
:104BE000B1EE400AD4EDD50A30EE200A84ED190A60
:104BF00094ED191AF0EE410A94ED1A1AB0EE410A3A
:104C000004F27620FEF79AFD3F48407EA0B994ED6D
:104C1000800ABDEEC00A10EE100A00B2ADF8040022
:104C2000D4F8AA0200EE100ABDEEC00A10EE100A77
:104C300000B2ADF806004FE03348407E01284BD16A
:104C400004F58060D0ED510AB0EE600AFFF7BAFBC0
:104C50002E48D0ED000A20EE208A04F58060D0EDC9
:104C60004F0A9FED2B1A70EEC10AB0EE600AFFF7F3
:104C7000A9FBD4ED800A48EE000ABDEEE00A10EE72
:104C8000100A00B2ADF8040004F58060D0ED510ABE
:104C9000B0EE600AFFF796FB1C48D0ED000A20EE4C
:104CA000208A04F58060D0ED4F0A9FED191A70EE4E
:104CB000C10AB0EE600AFFF785FBF0EE400AD4F8B7
:104CC000AA0200EE100A08EE600ABDEEC00A10EE5D
:104CD000100A00B2ADF80600BDF9040042F21072ED
:104CE000514201F01BF954210853BDF9060042F26C
:104CF0001072514201F012F9A4F8740000BF02B022
:104D0000BDEC028B10BD0000A0450020C8000020B3
:104D10008FC2F53F10B52DED028B044614B9BDECE2
:104D2000028B10BD7D480068401C7C490860084625
:104D300000681E2802D301207949087001217948B2
:104D4000FDF756FC18B901207749087002E00020F1
:104D5000754908702068B0F9020000EE100AB8EE3C
:104D6000C00ADFED720A20EE200ADFED710A20EEA4
:104D7000200ADFED700A80EE201A84ED041A206804
:104D80000188A06901EB4030A18A401A00EE100AA8
:104D9000B8EEC00ADFED680A20EE200A84ED020AB0
:104DA00000203FE004F1380101EB40110968B1F93E
:104DB000021000EE101AB8EEC00ADFED5C0A20EE19
:104DC000200AF7EE000A20EE200ADFED5C0A80EEF2
:104DD000201A04F1380101EB401181ED041A04F1AD
:104DE000380101EB401109680A8804F1380101EB30
:104DF0004011896902EB413204F1380101EB4011A5
:104E0000898A511A00EE101AB8EEC00ADFED4C0A7A
:104E100020EE200A04F1380101EB401181ED020A75
:104E2000411C08B20228BDDB464890ED100AD0EDC7
:104E3000180A30EE200ADFED440A80EE201AB0EEA8
:104E4000418A9FED421ADFED420AB0EE480A01F0B6
:104E500070F8404880ED510A3A4890ED100AD0EDC4
:104E6000180A30EE600ADFED3C0A80EE201A39485D
:104E700080ED4F1AB4F83405012828D13748407E18
:104E8000012824D19FED360A04F27440FFF732F96D
:104E9000B2EE020A04F29440FFF72CF9B2EE040AD3
:104EA00004F2B440FFF726F9B2EE040A04F2D4404B
:104EB000FFF720F9B2EE0C0A04F2F440FFF71AF9FA
:104EC000B2EE0C0A04F21450FFF714F923E09FED40
:104ED000250A04F27440FFF70DF9B2EE040A04F259
:104EE0009440FFF707F9B2EE080A04F2B440FFF766
:104EF00001F9B2EE0C0A04F2D440FFF7FBF8B3EE6E
:104F0000020A04F2F440FFF7F5F8B3EE020A04F2E5
:104F10001450FFF7EFF800BF01E70000AC000020DD
:104F2000B000002000140240B40000205077D63DAD
:104F300000003B43007060450B862738000010429C
:104F4000C2B8B237EC450020E787C540DB0F4940C7
:104F5000DB0F49C0EC4900201CC73140A0450020B0
:104F60000000344200005C4210B5044604B910BD94
:104F700094F8380540B9D4ED020AB0EE600A04F2A4
:104F80007440FFF7BAF830E094F8380501280CD1E6
:104F9000D4ED020AB0EE600A04F27440FFF7ADF8F7
:104FA000BBEE040A84ED030A1FE094F838050228DA
:104FB0000CD1B3EE040A04F27440FEF783FF04F24E
:104FC000744090ED070A84ED010A0EE07848D0EDB8
:104FD000000AB0EE600A04F27440FEF773FF04F2B8
:104FE000744090ED070A84ED010AB4F83405D8B98D
:104FF000206AD0ED010AB0EE600A04F29440FFF797
:105000007CF8A06AD0ED010AB0EE600A04F2B44068
:10501000FFF773F8206BD0ED010AB0EE600A04F2DE
:10502000D440FFF76AF851E094F83805032822D0FD
:105030009FED600A04F29440FEF744FF9FED5D0A85
:1050400004F2B440FEF73EFF9FED5A0A04F2D4404A
:10505000FEF738FF04F2944090ED070A84ED090A48
:10506000203090ED070A84ED0B0A203090ED070AFE
:1050700084ED0D0A2AE04E48D0ED010AB0EE600A38
:1050800004F29440FEF71EFF4948D0ED020AB0EE4C
:10509000600A04F2B440FEF715FF4548D0ED030A5C
:1050A000B0EE600A04F2D440FEF70CFF04F2944024
:1050B00090ED070A84ED090A203090ED070A84ED8F
:1050C0000B0A203090ED070A84ED0D0A94F839059B
:1050D00098B904F58060D0ED4F0AB0EE600AF43064
:1050E000FFF70BF804F58060D0ED510AB0EE600ACE
:1050F00004F21450FFF701F858E094F8390501283C
:105100001BD104F58060D0ED4F0AB0EE600AF43098
:10511000FEF7F3FF04F58060D0ED510AB0EE600AAF
:1051200004F21450FEF7E9FFB8EE000A84ED110A0C
:10513000B0EE000A84ED190A38E094F83905022827
:1051400013D104F58060D0ED4F0AB0EE600AF43060
:10515000FEF7D3FF04F58060D0ED510AB0EE600A8F
:1051600004F21450FEF7C9FF20E01148D0ED040A04
:10517000B0EE600A04F2F440FEF7A4FE0C48D0ED55
:10518000050AB0EE600A04F21450FEF79BFE04F22A
:10519000F44090ED070AF43880ED500A04F2145000
:1051A00090ED070A04F5806080ED520A00BFDEE64C
:1051B000A04500200000000010B52DED048B044632
:1051C00014B9BDEC048B10BDB4F83405A4F8360551
:1051D000C848007EA4F83405B4F8340528B9002086
:1051E00084F8380584F839050BE0B4F8340540B18B
:1051F000B4F8360528B9012084F83805002084F871
:10520000390594F83805022805D194F8390510B904
:10521000012084F8390594F8380501285DD1B64895
:105220000078012805D1B5480068401CB3490860E2
:1052300002E00020B149086094ED040A10EE101A53
:10524000084602F0B3FF41EC190BB0EE490AF0EE4C
:10525000690AFFF75FF9B0EE408AF0EE608A9FEDD1
:10526000A80B53EC102B51EC180B02F0BDF908D22F
:10527000A548007828B9A1484068401C9F4948606B
:1052800002E000209D4948609C4800680F2825D90D
:1052900000209A4908604860022084F83805002000
:1052A000A06120680088A082A18AA06901EB40303B
:1052B00021680988401A00EE100AB8EEC00ADFED36
:1052C000930A20EE200A84ED020AD4ED020AB0EE21
:1052D000600A04F27440FEF710FF28E08748406837
:1052E000962824D90020854908604860022084F867
:1052F00038050020A06120680088A082A18AA069EA
:1053000001EB403021680988401A00EE100AB8EE1F
:10531000C00ADFED7E0A20EE200A84ED020AD4EDF9
:10532000020AB0EE600A04F27440FEF7E6FE94F85A
:10533000390501287DD194F83A0501280BD09FED5D
:10534000740A04F5E670FEF733FD9FED710A04F26E
:105350007620FEF72DFD94ED120A10EE101A084685
:1053600002F024FF41EC190BB0EE490AF0EE690A95
:10537000FFF7D0F8B0EE408AF0EE608A9FED650B43
:1053800053EC102B51EC180B02F02EF905D26348A8
:105390000068401C6149086002E000205F49086025
:1053A00094ED1A0A10EE101A084602F0FFFE41ECC6
:1053B000190BB0EE490AF0EE690AFFF7ABF8B0EE50
:1053C000408AF0EE608A9FED530B53EC102B51ECAA
:1053D000180B02F009F905D250484068401C4F49AB
:1053E000486002E000204D4948604C48006896281B
:1053F0002AD94A484068962826D90020474908609B
:105400004860022084F83905002121652167A06BDE
:1054100001884C200153A06D0188A4F86C1004F59C
:105420008060D0ED4F0AB0EE600AF430FEF765FE02
:1054300000E009E004F58060D0ED510AB0EE600AAA
:1054400004F21450FEF759FE94F8380502284BD1A7
:1054500094F83905022847D194ED020AF3EE040AC4
:1054600030EE600A10EE101A084602F09FFE41EC82
:10547000190BB0EE490AF0EE690AFFF74BF8B0EEEF
:10548000408AF0EE608A9FED260B53EC102B51EC16
:10549000180B02F0A9F827D294F83A05022810D088
:1054A0009FED210A04F5E670FEF782FC9FED1E0ACF
:1054B00004F27620FEF77CFCFBF77AFE1B4880EDB9
:1054C000000AFBF775FE1948D0ED000A30EE600ABD
:1054D000DFED170AB4EEE00AF1EE10FA04DD032066
:1054E00084F8380584F8390594F8390584F83A05C4
:1054F00000BF66E6A0450020B4000020B8000020F0
:10550000000000A09999E93FB00000200B862738E1
:1055100000007A44000000A09999C93FC000002013
:10552000000000000000E03F00006144CC000020CB
:10553000000096434FF4FA6001F03CFA5448FFF73C
:10554000E5F800F05DFDA2E05248FBF70BFE524883
:1055500080ED530A4E48FFF72FFE4D48FFF7DAFB68
:105560004B48FFF701FD4A48FFF76AFA4849B1F98D
:105570001C00FBF7D3FA4648B0F8340590B9FBF7A6
:10558000F1FA9FED460AFBF7CFFDFBF72FFB9FEDEE
:10559000430AFBF7C9FDFBF76DFB9FED400AFBF7E4
:1055A000C3FD6AE03A48B0F83405002865D03848B1
:1055B000006A807810B9FBF7F7FA16E03448006A01
:1055C000807801280FD13248D0ED090AB0EE600A88
:1055D0009FED332AF1EE041A9FED321ADFED300A07
:1055E000FBF78CFB01E0FBF7BDFA9FED2C0AFBF704
:1055F0009BFD2748806A807810B9FBF719FB16E0FD
:105600002348806A807801280FD12148D0ED0B0A09
:10561000B0EE600A9FED222AF1EE041A9FED221AE5
:10562000DFED1F0AFBF7E4FB01E0FBF7DFFA9FED7C
:105630001B0AFBF779FD1648006B807810B9FBF761
:105640003BFB16E01248006B807801280FD1104810
:10565000D0ED0D0AB0EE600A9FED112AF7EE001AA8
:105660009FED121ADFED0E0AFBF73CFC01E0FBF7A1
:1056700001FB9FED0A0AFBF757FD054AB2F97410CA
:10568000B2F95400FBF724FA012000F0A8FC5BE714
:10569000EC4500203C4B0020EC49002052499D394C
:1056A00000000000000048430000F04200008C426F
:1056B00000B58BB0012009900020079001200890D0
:1056C000002001900290039004900690059001A99B
:1056D0000C48FBF7F5FE0B48FCF7C3FC0221094818
:1056E000FBF72EFE0E200A90069001A90648FBF754
:1056F000E7FE0548FCF7B5FC02210348FBF720FE56
:105700000BB000BDB8050020E0050020816900EE67
:10571000101A816A00EE901A20EE200AB5EEC00A37
:10572000F1EE10FA65DD816900EE101AB5EEC00ADF
:10573000F1EE10FA03DD816900EE101A04E08169D0
:1057400000EE101AB1EE400A416D00EE901AB4EE70
:10575000E00AF1EE10FA00D87047016D00EE101A61
:10576000416D00EE901A70EE200A816900EE101A69
:10577000B5EEC00AF1EE10FA03DD816900EE101AF1
:1057800004E0816900EE101AB1EE400AF4EEC00A9E
:10579000F1EE10FA28DB016D00EE901A816900EE3F
:1057A000101AB5EEC00AF1EE10FA03DD816900EEC1
:1057B000101A04E0816900EE101AB1EE400A70EE92
:1057C000C00A416D00EE101A30EE801A016D00EE35
:1057D000101AC1EE000A016B00EE101A20EE800ACA
:1057E00010EE101A016304E09FED030A10EE101A88
:1057F000016300BFB0E700000000000050F82C1F5C
:1058000000EE101A416E00EE901A60EE201A016B45
:1058100000EE101A416E00EE901A30EE200A81EE72
:10582000801A016900EE101A016B00EE901A60EE0A
:10583000201A00EE101A416E00EE901A30EE200A87
:10584000C1EE800A31EE200A10EE101A40F82C1931
:10585000704710B50446D4F8940090BBB4F86000CB
:10586000022817DD206901EE100AB1EE411AF0EEB0
:10587000410AD4F8900000EE100A04F16200FDF72E
:105880000BFEE06800EE900A20EE200A10EE100AEF
:10589000E06257E0606900EE100A206900EE900AAD
:1058A00070EE600AE06800EE100A20EE801AD4F86C
:1058B000900000EE100AC1EE000A10EE900AE062BD
:1058C00040E0FFE7B4F8600002281EDD206901EE29
:1058D000100AB1EE411AF0EE410AD4F8900000EE41
:1058E000100A04F16200FDF7D7FDE06800EE900AAF
:1058F000D4F89400806801EE100A70EE810A20EE60
:10590000200A10EE100AE0621CE0E06800EE100AC7
:10591000D4F89400806800EE900A30EE201A606996
:1059200000EE100A206900EE900A30EE600A21EEC7
:10593000001AD4F8900000EE900A81EE200A10EED2
:10594000100AE06210BD0000816A00EE101A016BBF
:1059500000EE901A30EE200A344981ED000A416AC7
:1059600000EE101A816A00EE901A70EE200AC16AE9
:1059700000EE101A30EE800A2D4981ED000A91EDFB
:10598000000AB5EEC00AF1EE10FA02DD91ED000A50
:1059900004E0274991ED000AB1EE400A016C00EEE7
:1059A000901AB4EEE00AF1EE10FA11DD816900EE12
:1059B000101A816A00EE901A20EE200AB5EEC00A95
:1059C000F1EE10FA04DD9FED1B0A10EE101A0163D0
:1059D000416C00EE101A1549D1ED000AB4EEE00A50
:1059E000F1EE10FA06D29FED130A10EE101A0163C1
:1059F000416C8162416C00EE101AB1EE400A0B4915
:105A0000D1ED000AB4EEE00AF1EE10FA0CDD9FEDE4
:105A1000090A10EE101A0163416C00EE101AB1EE83
:105A2000400A10EE101A81627047000060030020E7
:105A30005C0300200000000050F8341F00EE101A34
:105A4000C16D00EE901A60EE201A416A00EE101A45
:105A5000C16D00EE901A30EE200A81EE801A416886
:105A600000EE101A416A00EE901A60EE201A00EE65
:105A7000101AC16D00EE901A30EE200AC1EE800AB5
:105A800031EE200A10EE101A40F834197047416BBD
:105A900000EE101A016C00EE901AB4EEE00AF1EE7E
:105AA00010FA01DD016C4163416B00EE101A016CCC
:105AB00000EE901AF1EE600AB4EEE00AF1EE10FA90
:105AC00007D2016C00EE101AB1EE400A10EE101A67
:105AD0004163704710B5416B00EE101A016C00EE87
